:100000000C94AD000C94CA000C94CA000C94CA0065
:100010000C94CA000C94CA000C94CA000C94CA0038
:100020000C94CA000C94CA000C94CA000C94CA0028
:100030000C94CA000C94CA000C94B10E0C94CA0023
:100040000C94CA000C94CA000C94CA000C94CA0008
:100050000C94930F0C94CA000C94CA000C94CA0020
:100060000C94CA000C94CA000C94640E0C94CA0040
:100070000C94CA000C94CA000C94CA007A0D840D2A
:100080007C0D9F0D720D740D760D780D7E0D800D1B
:10009000820D980D9A0D9C0D9E0D9F0D9F0D9F0D2D
:1000A0009F0D9F0D9F0D9F0D9F0D9F0D9F0D9F0DF0
:1000B0009F0D9F0D9F0D9F0D9F0D9F0D9F0D9F0DE0
:1000C0009F0D9F0D9F0D9F0D9F0D9F0D9F0D9F0DD0
:1000D0009F0D9F0D9F0D9F0D9F0D9F0D9F0D9F0DC0
:1000E0009F0D9F0D9F0D9F0D9F0D9F0D9F0D9F0DB0
:1000F0009F0D9F0D9F0D9F0D9F0D9F0D9F0D9F0DA0
:100100009F0D9F0D9F0D9F0D9F0D9F0D9F0D9F0D8F
:100110009F0D9F0D9F0D9F0D9F0D9F0D9F0D9F0D7F
:100120009F0D9F0D9F0D9F0D9F0D9F0D9F0D9F0D6F
:100130009F0D9F0D9F0D9F0D9F0D9F0D9F0D9F0D5F
:100140009F0D9F0D9F0D960D9F0D940D920D900D7F
:100150008E0D8C0D8A0D880D860D11241FBECFEFDC
:10016000D0E1DEBFCDBF16E0A0E0B1E0EAECF3E302
:1001700002C005900D92A03FB107D9F72AE0A0EF89
:10018000B6E001C01D92AA31B207E1F70E942C0F20
:100190000C94E3190C94000080E480937C00EAE75F
:1001A000F0E084E080838081806880838081806447
:1001B0008083808186FDFDCF8091780090917900C9
:1001C00008959093F3068093F2061092F40680FD52
:1001D0000BC021E001C0232F9695879531E0320FA7
:1001E00080FFF9CF2093F406ECE7F0E08081909156
:1001F000F4069F71807E892B8083EAE7F0E080819E
:100200008064808381E08093F50608958091F506EF
:10021000882309F448C080917A00982F907486FD55
:1002200042C08091F406E82FF0E0209178003091F0
:100230007900EE0FFF1FEE5AF84F3183208321E043
:1002400030E0082E02C0220F331F0A94E2F74091DB
:10025000F0065091F106242B352B3093F1062093B4
:10026000F0068F5F4091F2065091F30605C08A3088
:1002700010F48F5F01C0892F9A01082E02C03695B5
:1002800027950A94E2F720FFF2CF8093F406ECE77B
:10029000F0E09081907E8F71892B8083EAE7F0E017
:1002A0008081806480830895CF93DF93EC01FB010C
:1002B00088819981009749F0929582958F7089275E
:1002C0009F70892701979983888380819181929576
:1002D00082958F7089279F70892791838083ADE6EF
:1002E000B7E084E28C93888111968C931197888172
:1002F000998188279F7080818295807F892B1296B3
:100300008C93129780819181807F9F7092958295C6
:100310008F7089279F70892713968C931397149653
:100320001C92149715961C9288819981019682954A
:100330009295907F9827807F9827998388838081E2
:10034000918182959295907F9827807F98279183BD
:100350008083DF91CF910895CF93C091B007C111F1
:1003600016C06093AE07662361F0E82FF92F80E096
:1003700090E02191DC01A257B84F2C93019686178B
:10038000C0F341980E94260E8823E1F30DC0C0916E
:10039000B107C11103C00E943D0E06C08091B10794
:1003A000C1E0813009F0C0E08C2FCF910895EDE6D7
:1003B000F7E0848388279F706295607F692B65834F
:1003C0000895BF92CF92DF92EF92FF920F931F9307
:1003D000CF93DF9300D000D0CDB7DEB719828091E4
:1003E0006807811136C044C061E0CE0101960E94C9
:1003F000AC018823C9F3419AF60112A2F8014081A9
:10040000518150936C0740936B079A01275E3F4FD1
:10041000F801808191812817390728F08081918126
:1004200048175907A8F3F80180819181841795072F
:1004300050F460817181F70180819181860F971F4F
:100440008217930728F3B39480916807B81660F277
:100450000FC0B12C0F2EFEE8CF2EF7E0DF2EF02DCF
:1004600004E810E00F2EF6E8EF2EF12CF02DBCCFB3
:1004700083E0898380E68A8384EF8B838CE68C8398
:1004800064E0CE0101960E94AC018823C9F3419A31
:100490001092B0070F900F900F900F90DF91CF91B7
:1004A0001F910F91FF90EF90DF90CF90BF90089534
:1004B000662309F1DC016150462F50E04F5F5F4F2A
:1004C000480F591F80E190E06D91382F2227FC01E1
:1004D000EE0FEF2FEE1FFF0BF195E627FF27EE0F34
:1004E000FF1FE35FFE4F8081918182279327A4172E
:1004F000B50751F702C080E190E0880F991F089579
:10050000DF92EF92FF920F931F93CF93DF938C01B3
:10051000D62E442321F084E08617A0F01FC0FC01F2
:10052000108282E0818362E0C8010E945802F801D3
:100530009283838364E0C8010E94AC018823D1F3D5
:1005400080E049C0F80134968BEF860F90E0059665
:10055000800F911F1192E817F907E1F7E80124963F
:10056000EC2EFD2E68E0CE010E94AC018823C1F381
:10057000F4E0FD15C0F4EC2FFD2F2BEF2D0D30E036
:100580002B5F3F4F200F311F4CEF5FEF401B510B94
:10059000DA01AE0FBF1FA257B84F50968C918193CE
:1005A000E217F307A9F766E08E2D9F2D0E945802EF
:1005B000492F5527F801228530E04217530751F49F
:1005C0009C013327438550E081E02417350719F457
:1005D00080E001C081E0DF91CF911F910F91FF90EA
:1005E000EF90DF900895AF92BF92CF92DF92EF929B
:1005F000FF920F931F93CF93DF93CDB7DEB768972A
:100600000FB6F894DEBF0FBECDBF1D8681E08E878A
:1006100062E0CE010D960E9458029F87888B8091E0
:100620006807882309F444C0B12C0F2EFEE8CF2EB2
:10063000F7E0DF2EF02D04E810E00F2EF6E8EF2EA5
:10064000F12CF02D61E0CE010D960E94AC018823C3
:10065000C9F3419AD60192961C92F80140815181CA
:1006600050936C0740936B079A01275E3F4FD80168
:100670008D919C9111972817390728F08D919C91A5
:1006800048175907A0F3F8018081918184179507D5
:1006900050F460817181D7018D919C91860F971FD5
:1006A0008217930720F3B39480916807B81650F22D
:1006B00064E0CE010D960E94AC018823C9F310922C
:1006C000B007E0916807EE2309F44EC0B12C0F2E5D
:1006D000F5EBCF2EF7E0DF2EF02D0DE617E00F2E15
:1006E000FEE8EF2EF7E0FF2EF02DD6018C9186FF6D
:1006F0000DC0F0E0EB19F109EE0FFF1FEB5BF64FB9
:1007000061E0808191810E94D70103C0F8011482C9
:100710001582D8018C91898B11968C9111978A8BB7
:1007200012968C9112978B8B13968C9113978C8BBE
:1007300014968C9114978D8B15968C918E8B66E008
:10074000CE0141960E9458029F8B888F68E0CE01AF
:1007500041960E94AC018823C9F3F70112A2B39419
:10076000E0916807BE1608F2419A1092B00710E0B7
:100770000F2EF5EBEF2EF7E0FF2EF02D0F2EFDE6FE
:10078000AF2EF7E0BF2EF02D0F2EFEE8CF2EF7E0B4
:10079000DF2EF02D412F6CE0CE0101960E948002E9
:1007A000882329F0419A1092B00781E02BC0D7012D
:1007B0009C9196FD1CC01123D1F0F50191812E81F1
:1007C00029130BC0FE01379622E030E04191D90198
:1007D000A359B84F9C91491729F0419A1092B0073C
:1007E00081E010C02F5F3F4F2630310579F7D601E9
:1007F00092961C921F5F90916807911758F6419A44
:100800001092B00768960FB6F894DEBF0FBECDBF4A
:10081000DF91CF911F910F91FF90EF90DF90CF90DC
:10082000BF90AF900895BF92CF92DF92EF92FF9268
:100830000F931F93CF93DF931F92CDB7DEB719822B
:10084000EDE6F7E0168284E0878397E0908792ECEC
:100850009187128696E093879AE9948794E9958721
:10086000168698E097879EE5908B92E5918B128A89
:100870009AE0938B93EC948B858B80916807882307
:1008800069F0E7E4F9E0815090E0880F991F875BF9
:10089000964F11921192E817F907D9F71092B50700
:1008A00088EA91E690938C0980938B0980E194EA21
:1008B00090938E0980938D096DE879E08BE899E03B
:1008C0000E94540180916807811136C044C061E0E4
:1008D000CE0101960E94AC018823C9F3419AF6012A
:1008E00012A2F8014081518150936C0740936B072D
:1008F0009A01205E3C4FF8018081918128173907C9
:1009000028F08081918148175907A8F3F801808168
:1009100091818417950750F460817181F70180817E
:100920009181860F971F8217930728F3B3948091C4
:100930006807B81660F20FC0B12C0F2EFEE8CF2E5C
:10094000F7E0DF2EF02D04E810E00F2EF6E8EF2E92
:10095000F12CF02DBCCF0E94F3020F90DF91CF91CC
:100960001F910F91FF90EF90DF90CF90BF9008956F
:100970003F924F925F926F927F928F929F92AF922F
:10098000BF92CF92DF92EF92FF920F931F93CF937C
:10099000DF93CDB7DEB764970FB6F894DEBF0FBE16
:1009A000CDBF6C010E94E10120918400309185004F
:1009B0004091FE065091FF0660910007709101077B
:1009C0004E5F5F4F6F4F7F4F8091FE069091FF0605
:1009D000A0910007B091010784179507A607B707F4
:1009E00098F3E4E8F0E08081918128173907D8F77F
:1009F00040918400509185009A0128513C4FE4E8D1
:100A0000F0E0A6E8B0E0808191812817390728F04E
:100A10008081918148175907B0F3808191818417B3
:100A2000950708F08FC0608171818D919C9111971D
:100A3000860F971F8217930730F3612C712C812C3E
:100A4000912C84C01192AE16BF06E1F764E0CE018E
:100A500001960E94AC018823C9F3F80112A280918B
:100A60006807882309F460C07301512C68E0CE0147
:100A700005960E94AC018823C9F3FE013D9680E0F3
:100A800090E0DC01A257B84F50962C91219301962B
:100A900088309105B1F766E0832D942D0E945802AD
:100AA0002B8930E0322F22274C89242B8217930781
:100AB00091F5852D90E0FC01EE0FFF1FE80FF91F67
:100AC000EE0FFF1FEE0FFF1FEE0FFF1FEE0DFF1DBE
:100AD000EC0DFD1D8E8590E0982F88272D85822BAB
:100AE00091838083888990E0982F88272F85822B97
:100AF000938382838A8990E0982F88272989822B83
:100B000095838483F80112A2539480916807581644
:100B100008F4ACCF09C087E091E00E94750F419ABC
:100B20001092B00781E034C0419AF80112A2FFEFA1
:100B30008F1A9F0A86E0680E711CE4E08E169104FD
:100B400069F425C0612C712C812C912C5E01FDE093
:100B5000AF0EB11C0EE817E03A2C4B2CF401EE0F4F
:100B6000FF1FEE0FFF1FE359F84F868189838781AE
:100B70008A83D401AA0FBB1FAA0FBB1FAB58B84F63
:100B80008C918B8381858C83FE0135965BCF80E0D1
:100B900064960FB6F894DEBF0FBECDBFDF91CF9144
:100BA0001F910F91FF90EF90DF90CF90BF90AF908B
:100BB0009F908F907F906F905F904F903F9008959F
:100BC000AF92BF92CF92DF92EF92FF920F931F935B
:100BD000CF93DF9300D000D0CDB7DEB7A82E198217
:100BE00080916807882309F442C0B12C0F2EFEE8DB
:100BF000CF2EF7E0DF2EF02D04E810E00F2EF6E800
:100C0000EF2EF12CF02D61E0CE0101960E94AC0197
:100C10008823C9F3419AF60112A2F801408151815B
:100C200050936C0740936B079A01275E3F4FF80182
:100C3000808191812817390728F080819181481798
:100C40005907A8F3F801808191818417950750F422
:100C500060817181F70180819181860F971F8217D2
:100C6000930728F3B39480916807B81660F285E083
:100C70008983F3E0AF16D1F0FA1538F081E0A816B9
:100C800079F0E2E0AE1679F008C0F5E0AF16A1F019
:100C9000AF1678F086E0A81691F080E68A8311C03E
:100CA00081E68A830EC082E68A830BC083E68A834C
:100CB00008C084E68A8305C085E68A8302C086E68A
:100CC0008A8362E0CE0101960E9458029B838C8346
:100CD00064E0CE0101960E94AC018823C9F3419AD9
:100CE0001092B0070F900F900F900F90DF91CF915F
:100CF0001F910F91FF90EF90DF90CF90BF90AF903A
:100D000008952F923F924F925F926F927F928F92AF
:100D10009F92AF92BF92CF92DF92EF92FF920F938A
:100D20001F93CF93DF93CDB7DEB76F970FB6F894CD
:100D3000DEBF0FBECDBF0E94E00520918400309140
:100D40008500E4E8F0E0A901465D5C4FA6E8B0E06C
:100D5000B9016C577C4F808191814817590728F061
:100D60008081918128173907B0F3808191818217A2
:100D7000930750F4008111818D919C911197800F00
:100D8000911F8617970738F386E00E94E0052091AF
:100D9000840030918500E4E8F0E0A901465D5C4FF5
:100DA000A6E8B0E0B9016C577C4F8081918148176B
:100DB000590728F08081918128173907B0F3808185
:100DC00091818217930750F4008111818D919C913C
:100DD0001197800F911F8617970738F319828CE0BF
:100DE0008A8362E0CE0101960E9458029B838C8325
:100DF0004E0105E0800E911C3E011DE0610E711C4C
:100E0000F4011192E615F705E1F764E0CE010196D1
:100E10000E94AC018823C9F31092B0078091680743
:100E2000882309F442C0512C0EE817E068E0CE0197
:100E300005960E94AC018823C9F3FE013D9680E02F
:100E400090E0DC01A257B84F50962C912193019667
:100E500088309105B1F766E0CE010D960E945802E8
:100E60002B8930E0322F22274C89242B82179307BD
:100E7000B9F4E52DF0E0EE0FFF1FE157F64F8A8938
:100E800090E0982F88272989822B91838083D8012D
:100E900092961C92539480916807581638F205C0B8
:100EA000419A1092B00781E0ACC1419A1092B0070C
:100EB00019828EE08A8362E0CE0101960E94580278
:100EC0009B838C83F40111924F01E615F705D1F74E
:100ED00064E0CE0101960E94AC018823C9F3109210
:100EE000B00780916807882309F446C0912C0EE86A
:100EF00017E068E0CE0105960E94AC018823C9F393
:100F0000FE013D9680E090E0DC01A257B84F50967C
:100F10002C912193019688309105B1F766E0CE01BE
:100F20000D960E9458022B8930E0322F22274C89DF
:100F3000242B82179307B9F4E92DF0E0EE0FFF1F81
:100F4000E155F64F8A8990E0982F88272989822BCE
:100F500091838083D80192961C9293948091680724
:100F6000981638F209C08AE091E00E94750F419A04
:100F70001092B00781E045C1419A1092B007B0913C
:100F80006807BF8FBB2309F431C10F2EFFE86F2E16
:100F9000F9E07F2EF02D0F2EFFEC8F2EF9E09F2E23
:100FA000F02D8B2F8150482E512CC201880F991F94
:100FB000880F991FFC01ED52F64F2F01D3014D917F
:100FC0005D913D016894AA24A6F80F2EF2E4BF2E8D
:100FD000F02D0F2EFFE0CF2EF02DD12CE12CF12C97
:100FE00000E010E0242F352F40E050E060E070E09A
:100FF00080E090E00E944D18D3015E96ED91FC9147
:101000005F975F01C12CD12CE12CF12C8701ED8B76
:10101000BE8ACF8AD88EE98EFA8E0B8F1C8FC12C98
:10102000D12CE12CF12C00E010E00E94A8182F3DFB
:10103000E6EE3E07EBE04E075105610571058105BF
:10104000910531F12CF1205E364E4B40510961097A
:101050007109810991090F2EFAEBAF2EF02DBB24F7
:10106000BA94CC24CA94DD24DA94EE24EA94FF24C2
:10107000FA940FEF1FEF0E94A818D4012C93119639
:101080003C93119712964C93129713965C9381C0E0
:101090002F31E0E33E07E5E04E075105610571059C
:1010A0008105910531F12CF1205E364E4B405109FE
:1010B00061097109810991090F2EF2E9AF2EF02D16
:1010C000BB24BA94CC24CA94DD24DA94EE24EA94A6
:1010D000FF24FA940FEF1FEF0E94A818D4012C935D
:1010E00011963C93119712964C93129713965C931A
:1010F00050C0273DEAEC3E07E2E04E07510561058E
:1011000071058105910509F02CF520513A474740BA
:10111000510961097109810991090F2EFDECAF2E6A
:10112000F02DBB24BA94CC24CA94DD24DA94EE24A6
:10113000EA94FF24FA940FEF1FEF0E94A818D4013D
:101140002C9311963C93119712964C9312971396E9
:101150005C931FC02858374D4940510961097109F6
:10116000810991090F2EF3EBAF2EF02DBB24BA9419
:10117000CC24CA94DD24DA94EE24EA94FF24FA9471
:101180000FEF1FEF0E94A818F401208331834283E0
:101190005383F4E08F0E911C8414950409F00ECF54
:1011A0004091CF095091D0096091D1097091D20935
:1011B0000F8D0230D8F0E3EDF9E0202F225030E01F
:1011C000220F331F220F331F2952364F81919191E5
:1011D000A191B191481759076A077B0724F4382E6B
:1011E000292EAD8FBE8FE217F30781F730920F0AD9
:1011F0002092100A1D8D1093110A2E8D2093120A31
:1012000080E06F960FB6F894DEBF0FBECDBFDF91C2
:10121000CF911F910F91FF90EF90DF90CF90BF90F3
:10122000AF909F908F907F906F905F904F903F9086
:101230002F9008950F931F93CF93DF938C0180918C
:101240006807882351F180E0A1E0B0E0282F30E06A
:10125000F801E20FF31F1082220F331FE901C35F71
:10126000DC4F6881798120E030E0AD01022E02C0C0
:10127000440F551F0A94E2F746235723452B19F0D4
:1012800090819F5F90832F5F3F4F2C30310569F72E
:101290008F5F909168078917C8F2DF91CF911F91F6
:1012A0000F9108952F923F924F925F926F927F928B
:1012B0008F929F92AF92BF92CF92DF92FF920F9345
:1012C0001F93CF93DF93CDB7DEB72E970FB6F89469
:1012D000DEBF0FBECDBFD82EF92E7E836D8358871B
:1012E0004F833A8729871C870B872DB73EB73E87E8
:1012F0002D8780916807EDB7FEB7E81BF1090FB69F
:10130000F894FEBF0FBEEDBF0DB71EB70F5F1F4FA6
:10131000C8010E941A0980916807882309F45CC0FB
:101320002DE033E03A83298348012D2C3F2C815056
:1013300090E00196F801E80FF91FFC83EB83F12C94
:10134000412C512C320160E070E00F2EF0E5AF2E01
:10135000F3ECBF2EF02DCC24C394D12C32C09601D7
:10136000082E02C0220F331F0A94E2F720233123F4
:1013700021153105A1F040815181440E551E611C9B
:10138000711C4D915C9111974A155B0538F06417FB
:10139000750728F4232B19F0BA0101C05A010196F0
:1013A000329612968C309105D1F6F40181914F015D
:1013B000F80EF8E12F0E311C2B813C8128153905E0
:1013C000B9F0E981FA8101911191FA83E983D101A0
:1013D000F10180E090E0C3CFF12C412C512C32017F
:1013E00060E070E00F2EF0E5AF2EF3ECBF2EF02D95
:1013F000ED81FE8171836083EF81F885B182A082E7
:101400002F2D30E040E050E0C301B2010E940618E9
:10141000E985FA8531832083EB85FC85F0822D8573
:101420003E850FB6F8943EBF0FBE2DBF2E960FB669
:10143000F894DEBF0FBECDBFDF91CF911F910F910A
:10144000FF90DF90CF90BF90AF909F908F907F9054
:101450006F905F904F903F902F9008954F925F92C2
:101460007F928F929F92AF92BF92CF92DF92EF9234
:10147000FF920F931F93CF93DF93CDB7DEB75C013D
:101480007B018A0149014DB65EB6809168072DB790
:101490003EB7281B31090FB6F8943EBF0FBE2DBFD3
:1014A0008DB79EB701960E941A0980916807811135
:1014B0002FC050C02191319126173707B8F042173D
:1014C0005307A0F42133354788F09601082E02C057
:1014D000220F331F0A94E2F789012D913C91119755
:1014E00020233123232B11F0E02AF12A01968C309E
:1014F000910501F7E72DF0E0EE0FFF1FE80DF91D54
:10150000F182E082739480916807781658F022C0C7
:10151000712CB7016C597F4FA8014C595F4FCC24F7
:10152000C394D12CA72DB0E0FD01EE0FFF1FEA0FF1
:10153000FB1FEE0FFF1FEE0FFF1FEE0FFF1FEA0D49
:10154000FB1D80E090E0E12CF12CAA0FBB1FA35FF4
:10155000BC4FB0CF0FB6F8945EBE0FBE4DBEDF914C
:10156000CF911F910F91FF90EF90DF90CF90BF90A0
:10157000AF909F908F907F905F904F9008954F9283
:101580005F926F927F928F929F92AF92BF92CF9213
:10159000DF92EF92FF920F931F93CF93DF93CDB71C
:1015A000DEB75C018B017A0149014DB65EB68091D0
:1015B00068072DB73EB7281B31090FB6F8943EBF18
:1015C0000FBE2DBF8DB79EB701960E941A0980915C
:1015D0006807811131C0612C52C041915191461769
:1015E0005707C0F024173507A8F44133554790F04A
:1015F000A601082E02C0440F551F0A94E2F78A0183
:101600004D915C91119740235123452B19F0E02A0D
:10161000F12A639401968C309105F9F6E72DF0E0FC
:10162000EE0FFF1FE80DF91DF182E08273948091A7
:101630006807781660F023C0712C612CB8016853DC
:101640007F4F970128533F4FCC24C394D12CA72D13
:10165000B0E0FD01EE0FFF1FEA0FFB1FEE0FFF1FB3
:10166000EE0FFF1FEE0FFF1FEA0DFB1D80E090E065
:10167000E12CF12CAA0FBB1FA35FBC4FAECF862D70
:101680000FB6F8945EBE0FBE4DBEDF91CF911F9195
:101690000F91FF90EF90DF90CF90BF90AF909F9011
:1016A0008F907F906F905F904F9008952F923F9210
:1016B0004F925F927F928F92AF92BF92CF92DF92C2
:1016C000EF92FF920F931F93CF93DF931092D80066
:1016D000883E23E0920749F41092E2008AE080936A
:1016E000E3008CE18093E40047C0843FE1E09E0783
:1016F00049F482E08093E2008AE28093E3008093E1
:10170000E4003AC08A3F910549F486E08093E20004
:101710008AE28093E3008093E4002EC08EE0809301
:10172000E2008AE28093E3008093E40025C0882EE3
:10173000880C880C880C880CF6018082F7011082D6
:10174000843018F4F501708202C0F5011082F801AE
:101750001082FB011082FA011082F9011082F2015D
:10176000108218821C92F10110828F5F8630F9F688
:1017700082E08093D8002AC080E00F2EFDEECF2EAD
:10178000D12CF02D0F2EFEEEEF2EF12CF02D0F2E82
:10179000FFEEAF2EB12CF02D6894772477F800EF90
:1017A00010E061EF70E042EF50E023EF30E00F2EE9
:1017B000F4EF4F2E512CF02DC5EFD0E0A6EFB0E0A6
:1017C0000F2EF7EF2F2E312CF02DB1CFDF91CF91CF
:1017D0001F910F91FF90EF90DF90CF90BF90AF904F
:1017E0008F907F905F904F903F902F9008950F9330
:1017F0001F93CF93DF938C011092ED009091DC004A
:1018000090FF14C0E1E0F0E0CDEED0E0ACEDB0E050
:101810009E2F9295907F98832C9130E00E2E02C0DF
:10182000359527950A94E2F720FD59C08091EF0085
:10183000982F9F70993018F4EB01988303C098E0BB
:10184000FB01908384FD18C08091F3002091F20089
:1018500090E0880F991F880F991F880F991F229574
:1018600026952770820F911DA0E0B0E0E8018883E3
:101870009983AA83BB831AC02091F300B22F2091D1
:10188000F200A22F2091F100922F2091F000822FE0
:10189000689412F8B695A795979587951694D1F701
:1018A000B068F80180839183A283B383EB018881C0
:1018B000882361F0E42FF52F80E0AAEFB0E09C913F
:1018C00091938F5FEB0198818917C8F380E880932B
:1018D000EF008091DC0080958E70816006C03196AB
:1018E000E430F10509F094CF80E0DF91CF911F91B2
:1018F0000F9108958F929F92AF92BF92CF92DF92F5
:10190000EF92FF920F931F93CF93DF93CDB7DEB784
:1019100028970FB6F894DEBF0FBECDBFC982DA821A
:10192000EB82FC820D831E832F8338872091DC009D
:1019300024FD04C020E42093ED0007C02091DC00CA
:1019400025FD49C020E52093ED00442381F0FE01F0
:1019500031962FEF240F30E02F5F3F4F2E0F3F1FA8
:10196000AAEFB0E051915C93E217F307D9F79923FE
:1019700094F01092F0004B01880C991C880C991C73
:10198000880C991C880C991C880C991C8092F20078
:101990009092F3001BC04B015C01880C991CAA1C9F
:1019A000BB1C880C991CAA1CBB1C880C991CAA1C6B
:1019B000BB1C8092F0009092F100A092F2008B2C60
:1019C0009924AA24BB248092F300405F4064409392
:1019D000EF0081E001C080E028960FB6F894DEBFEA
:1019E0000FBECDBFDF91CF911F910F91FF90EF9070
:1019F000DF90CF90BF90AF909F908F900895CF923F
:101A0000DF92EF92FF920F931F93CF93DF93CDB7A7
:101A1000DEB72D970FB6F894DEBF0FBECDBF409155
:101A20008D074423C9F18091DC0080738033A1F1DC
:101A30008091F60650E0873010F48F5F01C080E09F
:101A40009A01082E02C0359527950A94E2F720FFE7
:101A5000F2CF8093F6060E949B1681E090E0009002
:101A6000F60602C0880F991F0A94E2F780959091BC
:101A70008D07892380938D070FC0C980DA80EB80A2
:101A8000FC800D811E812F81388549855A856B85A3
:101A90007C858D850E945116AE014A5F5F4FBE0165
:101AA0006B5F7F4FCE0101960E94F70B8111E5CF4E
:101AB0002D960FB6F894DEBF0FBECDBFDF91CF914C
:101AC0001F910F91FF90EF90DF90CF90089590E0DD
:101AD000FC01E556F109EF36F10588F5E25CFF4FB0
:101AE0000C944718509A0895389A0895529A089578
:101AF000399A0895269A0895539A0895209A089538
:101B0000219A0895279A0895549A08956A9A0895F3
:101B1000559A0895569A0895229A08953C9A0895E0
:101B20003D9A08953E9A0895259A08953F9A0895FA
:101B3000249A0895239A0895519A0895579A0895DA
:101B400083E70E94670D5F9A08958091FB0690914C
:101B5000FC06892BB9F18091F9069091FA06892B40
:101B6000D9F08091B107882369F15F9AEEE8F7E038
:101B700012A28089918996958795969587959093DD
:101B8000F8068093F7061092FA061092F906109262
:101B9000FC061092FB0608958091B007811112C0D7
:101BA0008CB5837F8CBDEEE8F7E01182108282E075
:101BB00080A35F980E94260E81E090E09093FA0641
:101BC0008093F906089594B1926894B9539A80313C
:101BD00009F138F4843091F08830B1F0823089F521
:101BE00007C0803419F1803839F1803251F518C0BE
:101BF0008DB581608DBD80E58CBD23C08DB58E7F98
:101C00008DBD80E58CBD1DC08DB581608DBD81E52C
:101C10008CBD17C08DB58E7F8DBD81E58CBD11C08B
:101C20008DB581608DBD82E58CBD0BC08DB58E7F7D
:101C30008DBD82E58CBD05C08DB58E7F8DBD83E5E4
:101C40008CBD8CB580688CBD789408958091B00768
:101C5000811111C0EEE8F7E013A281E082A381A315
:101C600080A1813118F080E18093AE0780918E07CA
:101C70008EBD81E0089580E008950DB407FE22C076
:101C8000AEE8B7E09196EC919197F0E08EB5E3570E
:101C9000F84F808B91969C91919790968C9190970C
:101CA000981760F4FD0181A18F5F81A3E1A1F0E0AD
:101CB000E357F84F80818EBD80E0089581E08093E6
:101CC000B107089580E008951F920F920FB60F920A
:101CD00011248F939F93AF93BF93EF93FF93AEE83D
:101CE000B7E09196EC919197F0E08EB5E357F84FFD
:101CF000808B91969C91919790968C919097981744
:101D000058F4FD0181A18F5F81A3E1A1F0E0E357C9
:101D1000F84F80818EBD03C081E08093B107FF91B1
:101D2000EF91BF91AF919F918F910F900FBE0F9048
:101D30001F901895E0E8F0E0808182608083E1E800
:101D4000F0E080818A61808380ED97E09093870046
:101D500080938600EFE6F0E0808181608083789454
:101D600008951F920F920FB60F9211248F939F9395
:101D7000AF93BF938091FE069091FF06A09100075C
:101D8000B09101070196A11DB11D8093FE069093AD
:101D9000FF06A0930007B093010781E08093FD0642
:101DA000BF91AF919F918F910F900FBE0F901F9099
:101DB00018958091FD06813009F04DC01092FD0606
:101DC0000E9404118091030190910401883E23E058
:101DD000920730F40196909304018093030108C0A8
:101DE0000E944F1681E090E09093040180930301DC
:101DF00080910201853020F48F5F80930201089565
:101E000081E0809302010E9405118091030180FD11
:101E100022C00E94061180910101853020F48F5F5D
:101E200080930101089581E0809301010E940711D0
:101E30008091030181FD0FC00E9462128091000118
:101E4000853020F48F5F80930001089581E08093B6
:101E500000010E94631208950E949A0E0E94D30FFF
:101E60000E943D0E0E9406010E94FF0C06C00E94C7
:101E7000FF0C0E943D0E0E9406010E940E10882356
:101E8000B1F30E94A50D0E943D0E0E9406010E9422
:101E9000FF0C0E94D90E0E945016F3CFCF93DF9310
:101EA0009B01AC01C8ECD0E088818068888360E247
:101EB00071EA87E090E00E940618215031093093C2
:101EC000CE002093CD0088818F608883539A5498E8
:101ED000DF91CF9108959091C90094FD04C0809343
:101EE000D20081E0089580E00895CF93DF93EC0164
:101EF0008881882349F088810E946B0F8823D9F359
:101F0000219688818111F7CFDF91CF910895FC014F
:101F10009091C900892F817090FF04C08091D200F8
:101F2000808381E008951F920F920FB60F921124C3
:101F30002F933F938F93EF93FF938091C90081FF7D
:101F400028C0E091020780910307E817A9F0F0E0AC
:101F5000EC5FF84F80818093D20080910207282F98
:101F600030E02F5F3F4F2034310514F48F5F01C004
:101F700080E0809302070DC081E080930501EAECC8
:101F8000F0E080818D7F8083E9ECF0E080818260E9
:101F90008083FF91EF918F913F912F910F900FBE12
:101FA0000F901F9018950E94A00D8CE60E94670D5F
:101FB000419A83ED0E94670D729860E072EC81E0B7
:101FC00090E00E944E0F84EF91E00E94560B0E9419
:101FD000CC0088E290E00E94E10080E10E94E30DE5
:101FE0008CB58C608CBD60E174EA88EA91E60E9451
:101FF000130481E08093500780918D078160809366
:102000008D078DE293E00E94750F8FE293E00E94AE
:10201000750F82E593E00E94750F0895CF92DF92CD
:10202000EF92FF920F931F93CF93DF93809150070E
:10203000813009F0CAC080914F07813009F0C5C0D6
:1020400080914E078111C1C080914D078093680730
:10205000D1E00F2EF2E4EF2EF9E0FF2EF02D0F2E3F
:10206000FFE0CF2EFAE0DF2EF02D8BE693E00E940A
:10207000750FC0E3CD0F8C2F0E946B0F8823D9F30F
:1020800087EB97E00E94B8048130A9F484E793E0DD
:102090000E94750F8EE893E00E94750FE5EBF7E064
:1020A000808190918D07916090938D078F7E8083C2
:1020B00010924F0775C00DE319E02BE339E049E3B7
:1020C00059E067E379E087EB97E00E94520983E0EB
:1020D0000E948106F7011082118212821382809180
:1020E000390990913A09893A9146A8F488EA93E02F
:1020F0000E94750F8EE893E00E94750FE5EBF7E004
:10210000808190918D07916090938D078B7F808364
:1021100010924F0745C0809137099091380980315E
:10212000944AA8F081EC93E00E94750F8EE893E04A
:102130000E94750FE5EBF7E0808190918D0791602B
:1021400090938D078D7F808310924F0729C0F601F1
:1021500080819181A281B38180379741A105B1052A
:10216000ACF089ED93E00E94750F8EE893E00E9439
:10217000750FE5EBF7E0808190918D07916090936A
:102180008D07877F808310924F070AC0D53021F4D6
:1021900081E080934E0704C0DF5FD63009F065CF41
:1021A00080914E07813001F585EF93E00E94750F15
:1021B00085E194E00E94750F10924F0780918D0782
:1021C000816080938D0780E016C080915107813037
:1021D00069F480914E07813059F480914F07811145
:1021E00009C0729A81E007C080E005C080E003C0AA
:1021F00080E001C080E0DF91CF911F910F91FF90AF
:10220000EF90DF90CF90089508950895089589E1A3
:102210009AE00E94870F8823A1F08091190A8033E9
:1022200019F0813349F00DC0E5EBF7E080818F7B39
:1022300080830E94F30205C0E5EBF7E080818064B3
:1022400080838091B50786FD39C180E380930601C4
:1022500040918B0950918C096091390970913A092C
:1022600027E639E087EB97E00E94BF0A8093450795
:102270008091B50786FF14C040918B0950918C095D
:102280006091390970913A0927E439E087EB97E0CA
:102290000E942E0A0E94F3028091B50786FD18C0A5
:1022A0000E94F3021092170A20916807222381F0FE
:1022B000E7E4F9E08FEF820F90E0880F991F875BCA
:1022C000964F11921192E817F907D9F72093170A40
:1022D0001092460910924209109243091092440943
:1022E0001092450983E00E94810680910F0A909127
:1022F000100AA091110AB091120A80379741A105E6
:10230000B1052CF0E5EBF7E0808188608083809157
:102310005107882309F4C4C080914F078111C3C0BD
:1023200080914B078111ABC080914A07811108C091
:102330008091B50780FF1AC081E080934A0716C0DC
:102340009091B50790FD04C0815080934A070EC05C
:102350008F5F843018F480934A0708C010924A07B0
:1023600081E080934B0790629093B5078091490775
:10237000811108C08091B50781FF1AC081E0809368
:10238000490716C09091B50791FD04C08150809314
:1023900049070EC08F5F843018F48093490708C046
:1023A0001092490781E080934B0790629093B507A4
:1023B00080914807811108C08091B50782FF1AC03B
:1023C00081E08093480716C09091B50792FD04C044
:1023D0008150809348070EC08F5F843018F480933B
:1023E000480708C01092480781E080934B0790622D
:1023F0009093B50780914707811108C08091B50778
:1024000083FF1AC081E08093470716C09091B507FB
:1024100093FD04C08150809347070EC08F5F8430C6
:1024200018F48093470708C01092470781E0809313
:102430004B0790629093B50780914607811108C0C1
:102440008091B50784FF2FC081E0809346072BC0A1
:102450009091B50794FD04C081508093460723C036
:102460008F5F8A3018F4809346071DC0109246078C
:1024700081E080934B0790629093B50714C08F5F03
:1024800080934B07883278F0729810924B0781E066
:102490008093B207E5EBF7E080818F7D808303C0F6
:1024A000729810924B0780918D078C6180938D07F5
:1024B000E5EBF7E08081807E8083089581E380935F
:1024C0000601C6CE0895CF92DF92EF92FF920F934E
:1024D0001F93CF93DF93109244078091B50786FF37
:1024E00008C091E0909344078F7B8093B5070E94CA
:1024F000F30287EB97E00E94B804882351F08091A3
:102500004407811106C0E5EBF7E08081806180839C
:102510000DC08091B50786FD09C0909144079130A8
:1025200029F480648093B5070E94F3020DE319E05B
:102530002BE339E049E359E067E379E087EB97E083
:102540000E9452098091390990913A09893A91463D
:1025500028F4E5EBF7E0808184608083809137097F
:10256000909138098031944A28F0E5EBF7E08081BA
:10257000826080838DE293E00E94750F8091B507A1
:102580008F71A1F080914B074AE063E877E090E01B
:102590000E94B91988E394E00E94750F83E897E0E0
:1025A0000E94750F87E795E00E94750F8091B5072F
:1025B00084FF04C087E494E00E94750F809139097C
:1025C00090913A09893A914620F481E694E00E947C
:1025D000750F80913709909138098031944A20F025
:1025E0008AE794E00E94750F80910F0A9091100A7B
:1025F000A091110AB091120A80379741A105B10547
:1026000024F082E994E00E94750F80914209909134
:102610004309A0914409B09145098038914DA04FDC
:10262000B84020F08EEA94E00E94750F86EC94E0AA
:102630000E94750F1092170A80916807882311F184
:10264000C3E8D7E084ED94E00E94750F8091170AEB
:1026500090E04AE0BE0101960E94B91988810E946B
:102660006B0F8823D9F38BED94E00E94750F809156
:10267000170A8F5F8093170A90916807891710F3E4
:102680001092170AC3E8D7E0EC2EFD2E01E010E00F
:1026900084E796E00E94750F8EED94E00E94750F1E
:1026A0008091170A90E04AE0BE0101960E94B91994
:1026B00088810E946B0F8823D9F389810E946B0F58
:1026C0008823D9F386EE94E00E94750F1092180AC1
:1026D00080916807882309F47CC080E090E04091F5
:1026E000170A242F30E0FC01EE0FFF1FE053F94FD3
:1026F000B80102C0660F771F4A95E2F74081518109
:1027000046235723452B09F456C0AC01440F551FEF
:10271000840F951F880F991F880F991FFC01E20FE6
:10272000F31FEE0FFF1FE954F84F80819181803134
:1027300027E29207C0F04AE06E2D7F2D0E94B91962
:1027400088810E946B0F8823D9F38CE20E946B0F63
:102750008823D9F384E897E00E94750F8AEE94E00D
:102760000E94750F2CC08EEE94E00E94750F809130
:10277000180A90E02091170AFC01EE0FFF1FE80FE6
:10278000F91FEE0FFF1FEE0FFF1FE20FF11DEE0FFF
:10279000FF1FE954F84F4AE06E2D7F2D8081918113
:1027A0000E94B9198E2D9F2D0E94750F8AEE94E01C
:1027B0000E94750F04C081EF94E00E94750F809114
:1027C000180A8F5F8093180A90916807891708F498
:1027D00085CF8091170A8F5F8093170A8C3008F499
:1027E00057CF86E795E00E94750F4AE063E877E0EF
:1027F0008091390990913A090E94B9198EEF94E0BD
:102800000E94750FC3E8D7E088810E946B0F882370
:10281000D9F38CE20E946B0F8823D9F384E897E008
:102820000E94750F8FE095E00E94750F4AE063E803
:1028300077E080913B0990913C090E94B91982E1AF
:1028400095E00E94750FC3E8D7E088810E946B0F66
:102850008823D9F38CE20E946B0F8823D9F384E894
:1028600097E00E94750F8FE095E00E94750F4AE097
:1028700063E877E080913709909138090E94B9198F
:1028800085E295E00E94750FC3E8D7E088810E9439
:102890006B0F8823D9F38CE20E946B0F8823D9F346
:1028A00084E897E00E94750F88E395E00E94750F19
:1028B0001092170A80916807882309F471C0C3E851
:1028C000D7E00F2EF4E6CF2ED12CE12CF12CF02DF9
:1028D0008DE395E00E94750F8091170A90E04AE021
:1028E000BE0101960E94B91988810E946B0F88234E
:1028F000D9F38BED94E00E94750FE091170AF0E098
:10290000EE0FFF1FEE0FFF1FE153F64F6081718145
:1029100082819381A70196010E942818DA01C901DA
:102920003093B4072093B3074AE0BE010E948C198C
:10293000CE010E94750F8CE20E946B0F8823D9F3A1
:10294000E091170AF0E0EE0FFF1FEE0FFF1FE153BB
:10295000F64F6081718182819381A70196010E9467
:102960002818DC01CB019093B4078093B3074AE0A9
:10297000BE010E948C19CE010E94750F8CE495E077
:102980000E94750F1092B4071092B3078091170A36
:102990008F5F8093170A90916807891708F498CF82
:1029A00080914C07813029F48FE495E00E94750FE7
:1029B00006C0811104C083E695E00E94750F609106
:1029C000420970914309809144099091450961152C
:1029D00021EE720725EF820725E0920708F442C036
:1029E00020E432E44FE050E00E940618DA01C90109
:1029F0002093130A3093140A4093150A5093160A31
:102A00004AE063E877E00E94B91983E897E00E9402
:102A1000750F8CE20E946B0F8823D9F360914209F5
:102A200070914309809144099091450920E432E472
:102A30004FE050E00E9406186093130A7093140A46
:102A40008093150A9093160A2AE043E857E00E9403
:102A5000971983E897E00E94750F84E795E00E943C
:102A6000750FCAC0603826E9720728E98207910508
:102A700008F442C020E432E44FE050E00E9406181F
:102A8000DA01C9012093130A3093140A4093150AFE
:102A90005093160A4AE063E877E00E94B91983E888
:102AA00097E00E94750F8CE20E946B0F8823D9F388
:102AB00060914209709143098091440990914509C0
:102AC00020E432E44FE050E00E9406186093130ABD
:102AD0007093140A8093150A9093160A2AE043E82B
:102AE00057E00E94971983E897E00E94750F8BE7E3
:102AF00095E00E94750F80C0603422E472072FE0D9
:102B00008207910508F442C020E432E44FE050E02F
:102B10000E940618DA01C9012093130A3093140A9F
:102B20004093150A5093160A4AE063E877E00E9442
:102B3000B91983E897E00E94750F8CE20E946B0F31
:102B40008823D9F360914209709143098091440927
:102B50009091450920E432E44FE050E00E940618CD
:102B60006093130A7093140A8093150A9093160ABF
:102B70002AE043E857E00E94971983E897E00E9413
:102B8000750F8BE795E00E94750F36C0603A764866
:102B90008140910540F180E30E946B0F8823D9F3B7
:102BA0008CE20E946B0F8823D9F3609142097091E7
:102BB000430980914409909145096093130A7093E9
:102BC000140A8093150A9093160A2AE043E857E006
:102BD0000E94971983E897E00E94750F8BE795E0B4
:102BE0000E94750F09C080E30E946B0F8823D9F300
:102BF0008BE795E00E94750F8091460980FF05C024
:102C000081E895E00E94750F1BC081FF05C08BEB2A
:102C100095E00E94750F14C082FF05C086EE95E016
:102C20000E94750F0DC083FF05C080E296E00E94F0
:102C3000750F06C084FF04C08CE496E00E94750FF7
:102C400088E796E00E94750F809145074AE063E8A7
:102C500077E090E00E94B91983E897E00E94750F31
:102C600083E996E00E94750F8CE996E00E94750F4B
:102C7000809106010E946B0F8823D1F383EB96E0CD
:102C80000E94750F82EC96E00E94750FDF91CF9144
:102C90001F910F91FF90EF90DF90CF9008950895CE
:102CA0000895CF92DF92EF92FF920F931F93CF93ED
:102CB000DF93CDB7DEB72D970FB6F894DEBF0FBE0A
:102CC000CDBFC982DA82EB82FC8289819A81AB8195
:102CD000BC8181309105A105B10531F0811591408C
:102CE000A105B10599F018C010935107213031F4B6
:102CF000E5EBF7E080818064808305C0E5EBF7E0D9
:102D000080818F7B808330934C0706C010934F07E0
:102D100020934D0730934C072D960FB6F894DEBFE5
:102D20000FBECDBFDF91CF911F910F91FF90EF901C
:102D3000DF90CF9008955F926F927F928F929F92D3
:102D4000AF92BF92CF92DF92EF92FF920F931F93B9
:102D5000CF93DF93CDB7DEB763970FB6F894DEBF9E
:102D60000FBECDBF823059F018F4882369F038C106
:102D7000833009F4F7C0843009F427C131C1809150
:102D800068078111A6C02CC18091B5078E83809100
:102D90004E078130E1F480914F07811135C0809159
:102DA00050078F83188681E08987CE80DF80E88492
:102DB000F9840A851B852C853D8544E062E070E03E
:102DC00080E090E00E947A0C882379F309C1811198
:102DD0001BC080914F078130B9F4809150078F83D9
:102DE00081E08887CE80DF80E884F9840A851B85AE
:102DF0002C853D8543E062E070E080E090E00E9439
:102E00007A0C882379F3ECC0809150078F83CE80B1
:102E1000DF80E884F9840A851B852C853D8542E0A6
:102E200062E070E080E090E00E947A0C882379F301
:102E3000D7C0D30112969C91129713968C91139739
:102E40009E838F8314969C91149715968C91159759
:102E50009887898716969C91169717968C919A87D2
:102E60008B875C86E5EBF7E080818D87CE80DF8005
:102E7000E884F9840A851B852C853D8548E0C501D9
:102E8000B4010E947A0C882389F3FFEF8F1A9F0AFE
:102E9000AF0ABF0A26E0620E711C33E0530E8E8526
:102EA0005812C7CF9F859F5F9F8788899989AA8974
:102EB000BB890496A11DB11D888B998BAA8BBB8BF6
:102EC0009E85945F9E8780916807AF85A81760F004
:102ED00087C0BFE0BE8780E093E0A0E0B0E0888BD1
:102EE000998BAA8BBB8B1F86AF858A2F90E03C0104
:102EF000660C771C860D971D880F991F880F991FE8
:102F0000880F991FFC01EB54F84F3F015E84F4EFEA
:102F10005F0E88889988AA88BB888BCFE92DF0E05E
:102F2000EE0FFF1FE95BF64F908181819E838F83B7
:102F300080914507888793949986D5018C918A87DB
:102F4000CE80DF80E884F9840A851B852C853D8549
:102F500045E065E070E080E090E00E947A0C882314
:102F600079F307C0912C0F2EF5EBAF2EF7E0BF2EB3
:102F7000F02D80916807981688F232C0E92DF0E0B4
:102F8000EE0FFF1FEE0FFF1FE153F64F308121813F
:102F9000928183813E832F839887898793949A8631
:102FA000F50180818B87CE80DF80E884F9840A85F3
:102FB0001B852C853D8546E066E070E080E090E072
:102FC0000E947A0C882379F307C0912C0F2EF5EB21
:102FD000AF2EF7E0BF2EF02D80916807981670F2A3
:102FE00063960FB6F894DEBF0FBECDBFDF91CF91D1
:102FF0001F910F91FF90EF90DF90CF90BF90AF9017
:103000009F908F907F906F905F900895A1E21A2E0D
:10301000AA1BBB1BFD010DC0AA1FBB1FEE1FFF1F7C
:10302000A217B307E407F50720F0A21BB30BE40BCC
:10303000F50B661F771F881F991F1A9469F7609513
:103040007095809590959B01AC01BD01CF010895CD
:10305000052E97FB1EF400940E943F1857FD07D0E1
:103060000E94061807FC03D04EF40C943F185095AC
:103070004095309521953F4F4F4F5F4F0895909564
:103080008095709561957F4F8F4F9F4F0895EE0FFC
:10309000FF1F0590F491E02D0994DF93CF931F93C8
:1030A0000F939A9DF02D219FF00D8B9DF00D8A9D21
:1030B000E02DF10D039FF00D029FE00DF11D4E9DDF
:1030C000E00DF11D5E9DF00D4F9DF00D7F936F9310
:1030D000BF92AF925F934F93D5010E947D198B01F0
:1030E000AC01D7010E947D19EB01E80FF91FD60151
:1030F0000E949D182F913F91D6010E947D19C60F05
:10310000D71FE81FF91FAF91BF910E949D182F9103
:103110003F910E947D19C60FD71FE81FF91FD601E6
:103120000E947D19E60FF71F9801BE01CF011124FF
:103130000F911F91CF91DF9108950E947D19460F45
:10314000571FC81FD91F08F431960895689401C00D
:10315000E894F92FF12B12F00C94DA18A0E0B0E00B
:10316000E4EBF8E10C944C19092E059422F40E942A
:103170003619112392F4F0E80F26FFEFE094F09453
:1031800000951095B094C094D094A194BF0ACF0A32
:10319000DF0AEF0AFF0A0F0B1F0B0E94E51807FC5E
:1031A0000E943619CDB7DEB7ECE00C94681968942C
:1031B00001C0E8948F929F92CF93DF930E94E5180D
:1031C000DF91CF919F908F90089588249924F401E6
:1031D000E401B0E49F93AA279A158B049C04ED05A3
:1031E000FE05CF05D007A10798F4AD2FDC2FCF2F18
:1031F000FE2FE92D982C892E982F872F762F652F5B
:10320000542F432F322F2227B85031F7BF9127C0B8
:103210001B2EBF91BB27220F331F441F551F661F54
:10322000771F881F991F881C991CEE1FFF1FCC1F3A
:10323000DD1FAA1FBB1F8A149B04EC05FD05CE05EC
:10324000DF05A007B10748F08A189B08EC09FD09C3
:10325000CE09DF09A00BB10B21601A94E1F62EF420
:103260009401AF01BE01CD01000C089560957095E9
:103270008095909530954095509521953F4F4F4FB3
:103280005F4F6F4F7F4F8F4F9F4F08952F923F9209
:103290004F925F926F927F928F929F92AF92BF9266
:1032A000CF92DF92EF92FF920F931F93CF93DF9312
:1032B000CDB7DEB7CA1BDB0B0FB6F894DEBF0FBE6F
:1032C000CDBF09942A88398848885F846E847D84BC
:1032D0008C849B84AA84B984C884DF80EE80FD80BE
:1032E0000C811B81AA81B981CE0FD11D0FB6F89434
:1032F000DEBF0FBECDBFED010895A29FB001B39F09
:10330000C001A39F700D811D1124911DB29F700DEE
:10331000811D1124911D0895BB274A3031F4992352
:1033200022F4BDE2909581959F4F0C94BA19BB276A
:10333000FA01A62F6217710581059105330B30FB49
:1033400066F0AA27660F771F881F991FAA1FA2176A
:1033500010F0A21B63953850A9F7A05DAA3308F0BE
:10336000A95DA19336F7B111B1931082CA010C94F3
:10337000D319BB27FB015527AA27880F991FAA1F1E
:10338000A41710F0A41B83955051B9F7A05DAA3380
:1033900008F0A95DA193009779F7B111B19311924B
:1033A000CB010C94D319DC01FC01672F71917723B9
:1033B000E1F7329704C07C916D9370836291AE17F0
:0A33C000BF07C8F30895F894FFCF8B
:1033CA000101010100013046330046320000009934
:1033DA00C5ABCE320BCFD8561D6416FDD307F49E6B
:1033EA0031AC3A35FFC82C51E963E2FA2797AD0EA2
:1033FA00683C63A5A65875C1B0F3BB6A7E905909AB
:10340A009C3B97A2525F81C644F44F6D8A2E5BB7EC
:10341A009E85951C50E18378464A4DD38829AFB0E2
:10342A006A82611BA4E6777FB24DB9D47CB9F620D3
:10343A003312388BFD762EEFEBDDE04425BE0227F2
:10344A00C715CC8C0971DAE81FDA1443D1C5F35CCD
:10345A00366E3DF7F80A2B93EEA1E53820C2075BDA
:10346A00C269C9F00C0DDF941AA6113FD4525ECB83
:10347A009BF99060559D8604433648AF8D55AACC7A
:10348A006FFE6467A19A7203B731BCA879EBA87280
:10349A006D4066D9A32470BDB58FBE167BEC5C75F2
:1034AA00994792DE572384BA41884A118F7C05E5F1
:1034BA00C0D7CB4E0EB3DD2A18181381D67BF1E2A2
:1034CA0034D03F49FAB4292DEC1FE7862213A28A89
:1034DA0067B86C21A9DC7A45BF77B4EE7114568DB2
:1034EA0093BF98265DDB8E424B7040E985840F1DA1
:1034FA00CA2FC1B6044BD7D212E01979DC83FB1A62
:10350A003E2835B1F04C23D5E6E7ED7E283DF9A4F7
:10351A003C96370FF2F2216BE459EFC02A3A0DA319
:10352A00C891C30806F5D56C105E1BC7DEAA5433D2
:10353A0091019A985F658CFC49CE425787ADA034B9
:10354A0065066E9FAB6278FBBDC9B65073D6514F04
:10355A00947D9FE45A1989804CB2472B82D1A548A1
:10356A00607A6BE3AE1E7D87B8B5B32C7641FCD882
:10357A0039EA3273F78E2417E125EABC2F4608DFB1
:10358A00CDEDC6740389D01015221EBBDBF80A6183
:10359A00CF53C4CA0137D2AE179C1C05D9FFFE66A9
:1035AA003B5430CDF53026A9E39BE8022D6FA7F6F0
:1035BA0062C4695DACA07F39BA0BB192746853F1E9
:1035CA0096C39D5A58A78B3E4E0C459580FF01FF26
:1035DA0000FF01FF00FF01FF00FF01FF00FF01FFE5
:1035EA0000FF01FF00FF01FF00FF01FF000C004187
:1035FA0056522D496E697469616C69736965727591
:10360A006E67206572666F6C677265696368210D03
:10361A000A00576172746520617566205465737477
:10362A002D467265696761626521000D0A2054653D
:10363A00737420000D0A204665686C65723A204B47
:10364A006F6D6D756E696B6174696F6E21000D0A1D
:10365A0020546573742065726E6575742073746185
:10366A007274656E210D0A000D0A204665686C6544
:10367A00723A20556E646572766F6C746167652163
:10368A00000D0A204665686C65723A204F766572AD
:10369A00766F6C7461676521000D0A204665686C57
:1036AA0065723A204F76657274656D7065726174E1
:1036BA0075726521000D0A0A20546573742D4475CC
:1036CA007263686C617566206572666F6C67726595
:1036DA0069636821000D0A2057617274652061755B
:1036EA006620656E646775656C74696765204672E5
:1036FA00656967616265210020532D426F78205405
:10370A00696D65723A2000204665686C65723A20D8
:10371A004B6F6D6D756E696B6174696F6E210D0A01
:10372A0000204665686C65723A20556E646572764B
:10373A006F6C74616765210D0A00204665686C65C7
:10374A00723A204F766572766F6C74616765210DE7
:10375A000A00204665686C65723A204F7665727475
:10376A00656D7065726174757265210D0A00204677
:10377A0065686C65723A204F766572437572726538
:10378A006E74210D0A0020202020202020202020D5
:10379A0020200900536C61766520003A0900205AFE
:1037AA00656C6C6520003A20090020560900302C0F
:1037BA00004B65696E65205A656C6C650900206D61
:1037CA00696E2E20566F6C746167653A0920002075
:1037DA0056000D0A206176672E20566F6C74616759
:1037EA00653A0920000D0A206D61782E20566F6C0B
:1037FA00746167653A09200020560D0A000D0A20F7
:10380A0054656D7065726174757220002043000DF5
:10381A000A0A20456E746C6164652D5374726F6D6B
:10382A003A20000D0A0A204C6164652D5374726FA8
:10383A006D3A20002041200D0A0A002041200D0A7D
:10384A0000205374726F6D20626566696E646574D8
:10385A00207369636820696E206B72697469736387
:10386A0068656D20426572656963683A202D324148
:10387A00202E2E2E203041200D0A00204665686C2D
:10388A0065723A205374726F6D20666C6965737342
:10389A007420696E2064656E20537065696368657B
:1038AA007221200D0A00205374726F6D20626566C2
:1038BA00696E646574207369636820696E206B722F
:1038CA00697469736368656D2042657265696368C6
:1038DA003A203041202E2E2E202B3241200D0A0074
:1038EA00204665686C65723A205374726F6D206663
:1038FA006C6965737374206175732064656D2053F8
:10390A007065696368657221200D0A002046656842
:10391A006C65723A20426574726965627362657297
:10392A006569636820756562657273636872697434
:10393A0074656E21200D0A000D0A2042616C616EC9
:10394A0063696E6720656D70666F686C656E20616D
:10395A006E2000205A656C6C656E2E000D0A20429E
:10396A00616C616E63696E672D4D6F64653A2020E4
:10397A002020000D0A203C313E20436861726765B1
:10398A0020000D0A203C303E2044726976652000F2
:10399A00FF01FF00FF01FF00FF01FF00FF01FF0021
:1039AA00FF01FF00FF01FF00FF01FF00FF01FF0011
:00000001FF
