:100000000C94AD000C94CA000C94CA000C94CA0065
:100010000C94CA000C94CA000C94CA000C94CA0038
:100020000C94CA000C94CA000C94CA000C94CA0028
:100030000C94CA000C94CA000C94DF070C94CA00FC
:100040000C94CA000C94CA000C94CA000C94CA0008
:100050000C94C3080C94CA000C94CA000C94CA00F7
:100060000C94CA000C94CA000C9486070C94CA0025
:100070000C94CA000C94CA000C94CA005E06680670
:1000800060068306560658065A065C066206640633
:1000900066067C067E068006820683068306830645
:1000A0008306830683068306830683068306830608
:1000B00083068306830683068306830683068306F8
:1000C00083068306830683068306830683068306E8
:1000D00083068306830683068306830683068306D8
:1000E00083068306830683068306830683068306C8
:1000F00083068306830683068306830683068306B8
:1001000083068306830683068306830683068306A7
:100110008306830683068306830683068306830697
:100120008306830683068306830683068306830687
:100130008306830683068306830683068306830677
:100140008306830683067A06830678067606740697
:10015000720670066E066C066A0611241FBECFEF8B
:10016000D0E1DEBFCDBF13E0A0E0B1E0EAE5F2E10F
:1001700002C005900D92A836B107D9F726E0A8E68F
:10018000B3E001C01D92A234B207E1F70E948208D9
:100190000C942B090C940000CF93DF93EC01FB012E
:1001A00088819981009749F0929582958F7089276F
:1001B0009F70892701979983888380819181929587
:1001C00082958F7089279F70892791838083AEEBFA
:1001D000B3E084E28C93888111968C931197888187
:1001E000998188279F7080818295807F892B1296C4
:1001F0008C93129780819181807F9F7092958295D8
:100200008F7089279F70892713968C931397149664
:100210001C92149715961C9288819981019682955B
:100220009295907F9827807F9827998388838081F3
:10023000918182959295907F9827807F98279183CE
:100240008083DF91CF910895EEEBF3E084838827DC
:100250009F706295607F692B65830895DF92EF92AE
:10026000FF920F931F93CF93DF9300D000D0CDB7B1
:10027000DEB719826894DD24D2F804E810E00F2E6E
:10028000F6E8EF2EF12CF02D61E0CE0101960E94F0
:100290007407419AF801408151815093BD03409306
:1002A000BC039A01275E3F4FF80180819181281796
:1002B000390728F08081918148175907A8F3F80180
:1002C000808191818417950750F460817181F701D5
:1002D00080819181860F971F8217930728F3DA9404
:1002E000D110D2CF83E0898380E68A8384EF8B8329
:1002F0008CE68C8364E0CE0101960E947407419ADB
:100300000F900F900F900F90DF91CF911F910F9151
:10031000FF90EF90DF900895662309F1DC016150B2
:10032000462F50E04F5F5F4F480F591F80E190E02C
:100330006D91382F2227FC01EE0FEF2FEE1FFF0BE0
:10034000F195E627FF27EE0FFF1FE75FFE4F808145
:10035000918182279327A417B50751F702C080E146
:1003600090E0880F991F08950F931F93CF93DF9309
:10037000EC01442319F0653080F41BC0188282E040
:10038000898362E0CE010E948C019A838B8364E0B2
:10039000CE010E94740780E029C0FC0134966550AC
:1003A000862F90E005968C0F9D1F1192E817F90794
:1003B000E1F768E08E010C5F1F4FC8010E944C07F7
:1003C00066E0C8010E948C01492F55272A8530E03C
:1003D0004217530751F49C0133274B8550E081E0CD
:1003E0002417350719F480E001C081E0DF91CF9137
:1003F0001F910F9108958F929F92AF92BF92CF92CB
:10040000DF92EF92FF920F931F93CF93DF93CDB7BD
:10041000DEB768970FB6F894DEBF0FBECDBF1D865E
:1004200081E08E8762E0CE010D960E948C019F874D
:10043000888B6894DD24D2F804E810E00F2EF6E8EB
:10044000EF2EF12CF02D61E0CE010D960E94740785
:10045000419AF801408151815093BD034093BC0300
:100460009A01275E3F4FF801808191812817390753
:1004700028F08081918148175907A8F3F8018081FD
:1004800091818417950750F460817181F701808113
:100490009181860F971F8217930728F3DA94D11062
:1004A000D2CF64E0CE010D960E9474070F2EF5E7BF
:1004B000EF2EF5E0FF2EF02D0F2EFDE68F2EF5E04E
:1004C0009F2EF02D0F2EF2EEAF2EF3E0BF2EF02D6B
:1004D0000EEB13E0F501808186FF07C061E0F701B4
:1004E000808191810E94240103C0F8011482158249
:1004F000F8018081898B81818A8B82818B8B8381BA
:100500008C8B84818D8B85818E8B66E0CE014196AC
:100510000E948C019F8B888F68E0CE0141960E94DB
:100520007407F2E0EF1AF108E814F90499F6419A19
:10053000CC24C39402EE13E00F2EFEEBEF2EF3E07B
:10054000FF2EF02D02C0D394C3944D2D6CE0CE014C
:1005500001960E94B401882319F0419A81E022C0DB
:10056000F801908196FD1AC0DD2069F3F7019181B1
:100570002E8129130BC0FE01379622E030E0419115
:10058000D901A254BC4F9C91491719F0419A81E0BE
:1005900009C02F5F3F4F2630310589F7F4E0FC1585
:1005A00090F6419A68960FB6F894DEBF0FBECDBFA5
:1005B000DF91CF911F910F91FF90EF90DF90CF903F
:1005C000BF90AF909F908F900895DF92EF92FF922F
:1005D0000F931F93CF93DF931F92CDB7DEB719828E
:1005E000EEEBF3E0168284E0878397E0908792EC4D
:1005F0009187128696E093879AE9948794E9958784
:10060000168698E097879EE5908B92E5918B128AEB
:100610009AE0938B93EC948B858B109270051092DB
:100620006F05109272051092710510927405109268
:10063000730510927605109275051092E20388EA10
:1006400091E69093B4058093B30580E194EA90938A
:10065000B6058093B50565EB75E083EB95E00E94E8
:10066000CC006894DD24D2F804E810E00F2EF6E800
:10067000EF2EF12CF02D61E0CE0101960E9474075F
:10068000419AF801408151815093BD034093BC03CE
:100690009A01205E3C4FF80180819181281739072B
:1006A00028F08081918148175907A8F3F8018081CB
:1006B00091818417950750F460817181F7018081E1
:1006C0009181860F971F8217930728F3DA94D11030
:1006D000D2CF0E94FB010F90DF91CF911F910F911C
:1006E000FF90EF90DF9008954F925F926F927F920C
:1006F0008F929F92AF92BF92CF92DF92EF92FF9232
:100700000F931F93CF93DF93CDB7DEB764970FB6E8
:10071000F894DEBF0FBECDBF082F192F0E942E0107
:1007200020918400309185004091740350917503AD
:1007300060917603709177034E5F5F4F6F4F7F4FED
:100740008091740390917503A0917603B091770323
:1007500084179507A607B70798F3E4E8F0E08081CF
:10076000918128173907D8F740918400509185006E
:100770009A0128513C4FE4E8F0E0A6E8B0E080811F
:1007800091812817390728F08081918148175907EE
:10079000B0F3808191818417950750F46081718155
:1007A0008D919C911197860F971F8217930738F3AD
:1007B000802E912EC12CD12C512C7E018DE0E80E83
:1007C000F11C6E2C7F2C442443944EC01192EE15E4
:1007D000FF05E1F764E0CE0101960E947407540121
:1007E000E0E6AE0EB11C840148E0662D772DCE0107
:1007F00005960E94600766E0862D972D0E948C0169
:100800002B8930E0322F22274C89242B8217930723
:10081000D1F48E8590E0982F88272D85822BF801C2
:1008200091838083888990E0982F88272F85822B59
:10083000938382838A8990E0982F88272989822B45
:100840009583848301C0542C085E1F4F0A151B0535
:1008500059F6419AFFEFCF1ADF0A86E0880E911C05
:10086000E4E0CE16D104C9F0F601EE0FFF1FEE0F43
:10087000FF1FE254FC4F8681898387818A83D601DA
:10088000AA0FBB1FAA0FBB1FAA53BC4F8C918B830F
:1008900081858C83FE01359699CF852D64960FB6A0
:1008A000F894DEBF0FBECDBFDF91CF911F910F91A6
:1008B000FF90EF90DF90CF90BF90AF909F908F9080
:1008C0007F906F905F904F900895CF92DF92EF925C
:1008D000FF920F931F93CF93DF936C0109E013E016
:1008E0000F2EF1E1EF2EF3E0FF2EF02DA1E0B0E0AE
:1008F000F6011082E801699179918E0120E030E0E3
:10090000AD01022E02C0440F551F0A94E2F74623A0
:100910005723452B19F090819F5F90832F5F3F4FA6
:100920002C30310569F7DFEFCD1ADD0A0E151F05F2
:10093000F9F6DF91CF911F910F91FF90EF90DF902B
:10094000CF9008952F923F924F925F926F927F9235
:100950008F929F92AF92BF92CF92DF92FF920F93AE
:100960001F93CF93DF93CDB7DEB72E970FB6F894D2
:10097000DEBF0FBECDBFD82EF92E78876F835A8782
:1009800049873C872B871E870D87CE0101960E94E1
:1009900065040F2EF9E08F2EF3E09F2EF02DCE018F
:1009A00001969E838D832D2C3F2CF12C412C512CB4
:1009B000320160E070E00F2EF0E5AF2EF3ECBF2EB9
:1009C000F02DCC24C394D12C34C09601082E02C043
:1009D000220F331F0A94E2F720233123211531051A
:1009E000A1F040815181440E551E611C711C4D9136
:1009F0005C9111974A155B0538F06417750728F468
:100A0000232B19F0BA0101C05A01019632961296B1
:100A10008C309105D1F6ED81FE818191FE83ED83CD
:100A2000F80EF8E12F0E311C81E1881683E098065C
:100A300049F0F401019111914F01D101F10180E0E0
:100A400090E0C3CFEF81F88571836083E985FA85F3
:100A5000B182A0822F2D30E040E050E0C301B2010E
:100A60000E940309EB85FC8531832083ED85FE859B
:100A7000F0822E960FB6F894DEBF0FBECDBFDF9189
:100A8000CF911F910F91FF90DF90CF90BF90AF90CB
:100A90009F908F907F906F905F904F903F902F909E
:100AA00008952F923F924F925F926F927F928F9212
:100AB0009F92AF92BF92CF92DF92EF92FF920F93ED
:100AC0001F93CF93DF931092D800883E23E09207C4
:100AD00049F41092E2008AE08093E3008CE1809375
:100AE000E40095C0843FC1E09C0749F482E0809314
:100AF000E2008AE28093E3008093E40088C08A3FAA
:100B0000910549F486E08093E2008AE28093E30055
:100B10008093E4007CC08EE08093E2008AE28093C0
:100B2000E3008093E40073C08F5F9F5F682E660CC4
:100B3000660C660C660C6C921082843008F04EC015
:100B4000E10158828130B9F028F0823029F18330F8
:100B5000A1F156C0E6011882E7011882E801188267
:100B6000EB011882EA017882E9017882E401488287
:100B7000E5017882D9CFE6011882E7011882E80101
:100B80001882EB011882EA017882E9017882E40197
:100B90007882E5017882C8CFE6011882E7011882E1
:100BA000E8011882EB011882EA017882E901788273
:100BB000E4017882E5017882B7CFE6011882E70187
:100BC0001882E8011882EB011882EA017882E901B3
:100BD0007882E4017882E5017882A6CFE10118826B
:100BE000E6011882E7011882E8011882EB011882F9
:100BF000EA011882E9011882E4011882E5011882ED
:100C0000963008F491CF82E08093D80031C091E013
:100C100080E0ADEEB0E0EEEEF0E00F2EFFEE2F2E16
:100C2000312CF02D0F2EF0EFCF2ED12CF02D0F2EDA
:100C3000F1EFEF2EF12CF02D02EF10E063EF70E0FA
:100C400044EF50E025EF30E00F2EF6EF8F2E912C81
:100C5000F02D0F2EF7EFAF2EB12CF02D6894552408
:100C600057F877247A940F2EFFE14F2EF02D5ECFA8
:100C7000DF91CF911F910F91FF90EF90DF90CF9078
:100C8000BF90AF909F908F907F906F905F904F90AC
:100C90003F902F90089590E0FC01E556F109EF3662
:100CA000F10588F5E25CFF4F0C942509509A0895F0
:100CB000389A0895529A0895399A0895269A08956F
:100CC000539A0895209A0895219A0895279A08958D
:100CD000549A08956A9A0895559A0895569A0895CF
:100CE000229A08953C9A08953D9A08953E9A08954F
:100CF000259A08953F9A0895249A0895239A08956D
:100D0000519A0895579A089580910001882381F09F
:100D10001C9B04C081E08093690302C010926903A8
:100D20001B9B04C081E080936803089510926803C0
:100D30000895809101018823F9F080916B059091CD
:100D40006C05A0916D05B0916E05181619061A066E
:100D50001B063CF0B095A095909581959F4FAF4FA5
:100D6000BF4F813F9944A240B10520F081E08093BC
:100D70006A03089510926A0308950F931F93809158
:100D80000201882309F443C084EE93E00E947403B7
:100D900081112EC010926B030AE615E028E635E0BB
:100DA00046E655E064E675E084EE93E00E94A20416
:100DB0008091660590916705893A914638F0809157
:100DC0006405909165058031944A68F080916C03C8
:100DD0008F5F80936C038530A8F081E080936D0372
:100DE00010926C030FC010926D0310926C030AC036
:100DF00080916B038F5F853018F480936B0302C082
:100E000010926B038091DE0384608093DE031F9158
:100E10000F91089594B1926894B9539A803109F171
:100E200038F4843091F08830B1F0823089F507C011
:100E3000803419F1803839F1803251F518C08DB500
:100E400081608DBD80E58CBD23C08DB58E7F8DBD4D
:100E500080E58CBD1DC08DB581608DBD81E58CBDEB
:100E600017C08DB58E7F8DBD81E58CBD11C08DB550
:100E700081608DBD82E58CBD0BC08DB58E7F8DBD33
:100E800082E58CBD05C08DB58E7F8DBD83E58CBDA3
:100E90008CB58C608CBD08954198662381F0FC016F
:100EA0009C01260F311DDF0190819EBD0DB407FE10
:100EB000FDCF9EB59C933196E217F307A1F70895F5
:100EC0004198442381F0FC01A62FB72F9C01240FE9
:100ED000311D91919EBD0DB407FEFDCF9EB59D9332
:100EE000E217F307B1F708954198662361F0FC011A
:100EF0009C01260F311D91919EBD0DB407FEFDCFC3
:100F0000E217F307C1F70895419A08951F920F92CF
:100F10000FB60F9211242F933F934F935F936F93CC
:100F20007F938F939F93AF93BF93EF93FF938091A2
:100F30006E0390916F033091720321E0230F209391
:100F400072034EB5FC01E30FF11D40833091700335
:100F5000231740F0109271038CB58F778CBD0E94DF
:100F6000840705C0FC01E20FF11D80818EBDFF9159
:100F7000EF91BF91AF919F918F917F916F915F9111
:100F80004F913F912F910F900FBE0F901F9018958A
:100F9000E0E8F0E0808182608083E1E8F0E0808139
:100FA0008A61808380ED97E090938700809386002C
:100FB000EFE6F0E0808181608083789408951F924D
:100FC0000F920FB60F9211248F939F93AF93BF93FD
:100FD0008091740390917503A0917603B09177038B
:100FE0000196A11DB11D8093740390937503A09386
:100FF0007603B093770381E080937303BF91AF9141
:101000009F918F910F900FBE0F901F9018950E9487
:1010100084060E949906089580917303813009F037
:1010200043C0109273038091060190910701883E9E
:1010300023E0920730F40196909307018093060114
:1010400006C081E090E090930701809306018091B3
:101050000501853020F48F5F80930501089581E0BC
:10106000809305018091060180FD1EC080910401DE
:10107000853020F48F5F80930401089581E0809390
:1010800004010E9407088091060181FD0DC0809136
:101090000301853020F48F5F80930301089581E080
:1010A000809303010E94BD0608958CE60E944B06C2
:1010B000419A83ED0E944B06729860E072EC81E0E9
:1010C00090E00E948A0884EF91E00E94510580E13F
:1010D0000E940A0760E174EA88EA91E60E94E5024C
:1010E0008091DE0381608093DE0389E293E00E94B9
:1010F000B1088BE293E00E94B1088EE493E00E9475
:10110000B10808950E94C8070E945508729A0E946B
:101110000C08FDCFCF93DF939B01AC01C8ECD0E06E
:1011200088818068888360E271EA87E090E00E94AD
:101130000309215031093093CE002093CD008881DE
:101140008F608883539A5498DF91CF91089590913E
:10115000C90094FD04C08093D20081E0089580E02E
:101160000895CF93DF93EC018881882349F088812B
:101170000E94A7088823D9F3219688818111F7CF8F
:10118000DF91CF9108951F920F920FB60F92112405
:101190002F933F938F93EF93FF938091C90081FF2B
:1011A00028C0E091780380917903E817A9F0F0E076
:1011B000E658FC4F80818093D20080917803282FDD
:1011C00030E02F5F3F4F2034310514F48F5F01C0B2
:1011D00080E0809378030DC081E080930801EAEC01
:1011E000F0E080818D7F8083E9ECF0E08081826097
:1011F0008083FF91EF918F913F912F910F900FBEC0
:101200000F901F901895A1E21A2EAA1BBB1BFD017F
:101210000DC0AA1FBB1FEE1FFF1FA217B307E407D5
:10122000F50720F0A21BB30BE40BF50B661F771F2D
:10123000881F991F1A9469F760957095809590950D
:101240009B01AC01BD01CF010895EE0FFF1F05907A
:0A125000F491E02D0994F894FFCF0B
:10125A00010101010101010001000099C5ABCE3273
:10126A000BCFD8561D6416FDD307F49E31AC3A3520
:10127A00FFC82C51E963E2FA2797AD0E683C63A5D3
:10128A00A65875C1B0F3BB6A7E9059099C3B97A2D8
:10129A00525F81C644F44F6D8A2E5BB79E85951CBA
:1012AA0050E18378464A4DD38829AFB06A82611BE0
:1012BA00A4E6777FB24DB9D47CB9F6203312388BC5
:1012CA00FD762EEFEBDDE04425BE0227C715CC8C58
:1012DA000971DAE81FDA1443D1C5F35C366E3DF7BB
:1012EA00F80A2B93EEA1E53820C2075BC269C9F060
:1012FA000C0DDF941AA6113FD4525ECB9BF9906075
:10130A00559D8604433648AF8D55AACC6FFE646757
:10131A00A19A7203B731BCA879EBA8726D4066D95D
:10132A00A32470BDB58FBE167BEC5C75994792DE1F
:10133A00572384BA41884A118F7C05E5C0D7CB4E22
:10134A000EB3DD2A18181381D67BF1E234D03F4957
:10135A00FAB4292DEC1FE7862213A28A67B86C21FA
:10136A00A9DC7A45BF77B4EE7114568D93BF9826DF
:10137A005DDB8E424B7040E985840F1DCA2FC1B6D2
:10138A00044BD7D212E01979DC83FB1A3E2835B117
:10139A00F04C23D5E6E7ED7E283DF9A43C96370FBD
:1013AA00F2F2216BE459EFC02A3A0DA3C891C3089F
:1013BA0006F5D56C105E1BC7DEAA543391019A98C4
:1013CA005F658CFC49CE425787ADA03465066E9F97
:1013DA00AB6278FBBDC9B65073D6514F947D9FE47A
:1013EA005A1989804CB2472B82D1A548607A6BE39F
:1013FA00AE1E7D87B8B5B32C7641FCD839EA327374
:10140A00F78E2417E125EABC2F4608DFCDEDC67416
:10141A000389D01015221EBBDBF80A61CF53C4CA58
:10142A000137D2AE179C1C05D9FFFE663B5430CD5E
:10143A00F53026A9E39BE8022D6FA7F662C4695D21
:10144A00ACA07F39BA0BB192746853F196C39D5A16
:10145A0058A78B3E4E0C459580FF01FF00FF01FF08
:10146A0000FF01FF00FF01FF00FF01FF00FF01FF76
:10147A0000FF01FF00FF01FF000C004156522D49F9
:10148A006E697469616C6973696572756E672065E6
:10149A0072666F6C677265696368210D0A0057612D
:1014AA007274652061756620546573742D46726581
:0814BA00696761626521000011
:00000001FF
