:100000000C94AD000C94CA000C94CA000C94CA0065
:100010000C94CA000C94CA000C94CA000C94CA0038
:100020000C94CA000C94CA000C94CA000C94CA0028
:100030000C94CA000C94CA000C94000F0C94CA00D3
:100040000C94CA000C94CA000C94CA000C94CA0008
:100050000C94E20F0C94CA000C94CA000C94CA00D1
:100060000C94CA000C94CA000C94B80E0C94CA00EC
:100070000C94CA000C94CA000C94CA00CF0DD90D80
:10008000D10DF40DC70DC90DCB0DCD0DD30DD50D73
:10009000D70DED0DEF0DF10DF30DF40DF40DF40D85
:1000A000F40DF40DF40DF40DF40DF40DF40DF40D48
:1000B000F40DF40DF40DF40DF40DF40DF40DF40D38
:1000C000F40DF40DF40DF40DF40DF40DF40DF40D28
:1000D000F40DF40DF40DF40DF40DF40DF40DF40D18
:1000E000F40DF40DF40DF40DF40DF40DF40DF40D08
:1000F000F40DF40DF40DF40DF40DF40DF40DF40DF8
:10010000F40DF40DF40DF40DF40DF40DF40DF40DE7
:10011000F40DF40DF40DF40DF40DF40DF40DF40DD7
:10012000F40DF40DF40DF40DF40DF40DF40DF40DC7
:10013000F40DF40DF40DF40DF40DF40DF40DF40DB7
:10014000F40DF40DF40DEB0DF40DE90DE70DE50DD7
:10015000E30DE10DDF0DDD0DDB0D11241FBECFEF33
:10016000D0E1DEBFCDBF16E0A0E0B1E0E2EDF3E309
:1001700002C005900D92AE3EB107D9F72AE0AEEE6F
:10018000B6E001C01D92AE32B207E1F70E947B0FCC
:100190000C94E7190C94000080E480937C00EAE75B
:1001A000F0E084E080838081806880838081806447
:1001B0008083808186FDFDCF8091780090917900C9
:1001C00008959093F1068093F0061092F20680FD58
:1001D0000BC021E09695879531E0320F80FD02C07B
:1001E000232FF8CF2093F206ECE7F0E08081909186
:1001F000F2069F71807E892B8083EAE7F0E08081A0
:100200008064808381E08093F30608958091F306F3
:10021000882309F447C080917A0086FD43C040914D
:10022000F206E42FF0E08091780090917900EE0FD3
:10023000FF1FE25FF84F9183808381E090E0042EFE
:1002400002C0880F991F0A94E2F72091EE063091C0
:10025000EF06822B932B9093EF068093EE0620916E
:10026000F0063091F1064F5F50E005C04A3010F4BF
:100270004F5F01C0452FC901042E02C09695879596
:100280000A94E2F780FFF2CF4093F206ECE7F0E049
:1002900080814F71807E482B4083EAE7F0E08081C7
:1002A000806480830895CF93DF93EC01FB01888104
:1002B0009981009749F0929582958F7089279F7058
:1002C000892701979983888380819181929582956E
:1002D0008F7089279F70892791838083A9E2B7E077
:1002E00084E28C93888111968C93119788819981EF
:1002F00088279F7080818295807F892B12968C93AE
:10030000129780819181807F9F70929582958F70E6
:1003100089279F70892713968C93139714961C92A4
:10032000149715961C9288819981019682959295D1
:10033000907F9827807F98279983888380819181F7
:1003400082959295907F9827807F982791838083CC
:10035000DF91CF910895CF93C0916C07C11117C061
:1003600060936A07662369F0E82FF92F20E030E0F8
:100370009191D901A65BB84F9C932F5F3F4F2617F1
:10038000B8F341980E947D0E8823E1F30DC0C0911F
:100390006D07C11103C00E94960E06C080916D07C3
:1003A000C1E0813009F0C0E08C2FCF910895E9E2DF
:1003B000F7E0848388279F706295607F692B65834F
:1003C0000895BF92CF92DF92EF92FF920F931F9307
:1003D000CF93DF9300D000D0CDB7DEB719828091E4
:1003E0002407882309F442C0B12C0F2EFAE4CF2E43
:1003F000F7E0DF2EF02D04E810E00F2EF6E8EF2EE8
:10040000F12CF02D61E0CE0101960E94AB01882312
:10041000C9F3419AF60112A2F8014081518150932B
:100420002807409327079A01275E3F4FF8018081F4
:1004300091812817390728F0808191814817590741
:10044000A8F3F801808191818417950750F4808189
:100450009181F70160817181860F971F8217930741
:1004600028F3B39480912407B81660F283E089835F
:1004700080E68A8384EF8B838CE68C8364E0CE01F4
:1004800001960E94AB018823C9F3419A10926C0730
:100490000F900F900F900F90DF91CF911F910F91C0
:1004A000FF90EF90DF90CF90BF900895662309F101
:1004B000DC016150462F50E04F5F5F4F480F591FDE
:1004C00080E190E06D91382F2227FC01EE0FEF2F95
:1004D000EE1FFF0BF195E627FF27EE0FFF1FE65FEC
:1004E000FE4F8081918182279327A417B50751F78A
:1004F00002C080E190E0880F991F0895DF92EF928B
:10050000FF920F931F93CF93DF938C01D62E44233A
:1005100021F084E08617A0F01FC0FC01108282E069
:10052000818362E0C8010E945602F80192838383AE
:1005300064E0C8010E94AB018823D1F380E042C08F
:10054000F80134968BEF860F90E00596800F911F8F
:100550001192E817F907E1F7E8012496EC2EFD2E39
:1005600068E0CE010E94AB018823C1F3F4E0FD15E1
:10057000C0F4EC2FFD2F4BEF4D0D50E04B5F5F4F64
:10058000400F511F8CEF9FEF801B910BDC01AE0FD2
:10059000BF1FA65BB84F50962C912193E417F50727
:1005A000A9F766E08E2D9F2D0E945602382FF80184
:1005B0002285291306C081E09385931303C080E050
:1005C00001C081E0DF91CF911F910F91FF90EF90DB
:1005D000DF9008959F92AF92BF92CF92DF92EF92F9
:1005E000FF920F931F93CF93DF93CDB7DEB768973A
:1005F0000FB6F894DEBF0FBECDBF198281E08A83AB
:1006000062E0CE0101960E9456029B838C8380910A
:100610002407882309F444C0B12C0F2EFAE4CF2E0E
:10062000F7E0DF2EF02D04E810E00F2EF6E8EF2EB5
:10063000F12CF02D61E0CE0101960E94AB018823E0
:10064000C9F3419AD60192961C92F80140815181DA
:1006500050932807409327079A01275E3F4FD80100
:100660008D919C9111972817390728F08D919C91B5
:1006700048175907A0F3F8018081918184179507E5
:1006800050F480819181D7016D917C91860F971FE5
:100690008217930720F3B39480912407B81650F281
:1006A00064E0CE0101960E94AB018823C9F3109249
:1006B0006C07E0912407EE2309F44EC0B12C0F2EF5
:1006C000F9ECCF2EF7E0DF2EF02D09E217E00F2E28
:1006D000FAE4EF2EF7E0FF2EF02DD6018C9186FF85
:1006E0000DC0F0E0EB19F109EE0FFF1FE75AF64FCE
:1006F00061E0808191810E94D70103C0F8011482DA
:100700001582D8018C918D8311968C9111978E83CF
:1007100012968C9112978F8313968C9113978887DA
:1007200014968C911497898715968C918A8766E028
:10073000CE0105960E9456029B878C8768E0CE0109
:1007400005960E94AB018823C9F3F70112A2B39466
:10075000E0912407BE1608F2419A10926C0710E04F
:100760000F2EF9ECEF2EF7E0FF2EF02D0F2EF9E211
:10077000AF2EF7E0BF2EF02D6894992491F800E099
:100780000F2EFAE4CF2EF7E0DF2EF02D412F6CE094
:10079000CE010D960E947E02882329F0419A109284
:1007A0006C0781E02BC0D7019C9196FD1CC01123E2
:1007B000D1F0F50191812A8929130BC0FE017396AE
:1007C000292D302F4191D901A75DB84F9C91491730
:1007D00029F0419A10926C0781E010C02F5F3F4FC3
:1007E0002630310579F7D60192961C921F5F9091C1
:1007F0002407911758F6419A10926C0768960FB625
:10080000F894DEBF0FBECDBFDF91CF911F910F9146
:10081000FF90EF90DF90CF90BF90AF909F900895A2
:10082000BF92CF92DF92EF92FF920F931F93CF93DD
:10083000DF931F92CDB7DEB71982E9E2F7E01682A7
:1008400084E0878397E0908792EC9187128696E008
:1008500093879AE9948794E99587168698E0978715
:100860009EE5908B92E5918B128A9AE0938B93ECA4
:10087000948B858B90912407992341F0EBE5F9E067
:1008800080E0119211928F5F8917D8F31092C907F7
:1008900088EA91E69093A00980939F0980E194EA09
:1008A0009093A2098093A10961EA79E08FE999E028
:1008B0000E94530180912407882309F442C0B12C7F
:1008C0000F2EFAE4CF2EF7E0DF2EF02D04E810E033
:1008D0000F2EF6E8EF2EF12CF02D61E0CE010196FF
:1008E0000E94AB018823C9F3419AF60112A2F801D4
:1008F0004081518150932807409327079A01205E39
:100900003C4FF801808191812817390728F08081B8
:10091000918148175907A8F3F801808191818417C4
:10092000950750F480819181F70160817181860F74
:10093000971F8217930728F3B39480912407B81662
:1009400060F20E94EA020F90DF91CF911F910F9108
:10095000FF90EF90DF90CF90BF9008952F923F923D
:100960004F925F926F927F928F929F92AF92BF92BF
:10097000CF92DF92EF92FF920F931F93CF93DF936B
:10098000CDB7DEB768970FB6F894DEBF0FBECDBF08
:100990006C010E94E101209184003091850040911A
:1009A000FC065091FD066091FE067091FF064E5FB9
:1009B0005F4F6F4F7F4F8091FC069091FD06A09195
:1009C000FE06B091FF0684179507A607B70798F3B0
:1009D000E4E8F0E08081918128173907D8F7409149
:1009E0008400509185009A0128513C4FE4E8F0E0E2
:1009F000A6E8B0E0808191812817390728F080812E
:100A0000918148175907B0F3808191818417950728
:100A100008F08EC0808191816D917C911197860F35
:100A2000971F8217930730F3188E1F8A812C912C01
:100A300083C01192EA15FB05E1F764E0CE0101964F
:100A40000E94AB018823C9F3F80112A28091240708
:100A5000882309F45DC0EF88F88C512C68E0862D5E
:100A6000972D0E94AB018823C9F3E32DF42D822D2D
:100A700090E0DC01A65BB84F50962C912193019633
:100A800088309105B1F766E0832D942D0E945602BF
:100A90002B8930E0322F22274C89242B2817390745
:100AA00091F5852D90E0FC01EE0FFF1FE80FF91F77
:100AB000EE0FFF1FEE0FFF1FEE0FFF1FEE0DFF1DCE
:100AC000EC0DFD1D8E8590E0982F88272D85822BBB
:100AD00091838083888990E0982F88272F85822BA7
:100AE000938382838A8990E0982F88272989822B93
:100AF00095838483F80112A2539480912407581699
:100B000008F4ACCF05C0419A10926C0781E03DC05B
:100B1000419AF80112A2FFEF8F1A9F0A8F89988DD0
:100B20000696988F8F8B94E089169104A1F42CC0BF
:100B3000188E1F8A812C912CFE013596FE8BED8B31
:100B40005E01FDE0AF0EB11C0AE417E06D887E88FF
:100B50003A2C4B2C212CF401EE0FFF1FEE0FFF1F40
:100B6000E75DF84F8681898387818A83D401AA0F44
:100B7000BB1FAA0FBB1FAF5CB84F8C918B838185C5
:100B80008C83FE01359655CF80E068960FB6F894B9
:100B9000DEBF0FBECDBFDF91CF911F910F91FF90B0
:100BA000EF90DF90CF90BF90AF909F908F907F900D
:100BB0006F905F904F903F902F900895AF92BF92AB
:100BC000CF92DF92EF92FF920F931F93CF93DF9319
:100BD00000D000D0CDB7DEB7A82E198280912407AF
:100BE000882309F442C0B12C0F2EFAE4CF2EF7E08F
:100BF000DF2EF02D04E810E00F2EF6E8EF2EF12C9A
:100C0000F02D61E0CE0101960E94AB018823C9F36B
:100C1000419AF60112A2F8018081918190932807F0
:100C200080932707AC01475E5F4FF8012081318137
:100C30004217530728F02081318182179307A8F3C8
:100C4000F801208131812817390750F42081318142
:100C5000F70160817181260F371F2417350728F3AC
:100C6000B39480912407B81660F285E08983F3E09D
:100C7000AF16D1F0FA1538F081E0A81679F0E2E06D
:100C8000AE1679F008C0F5E0AF16A1F0AF1678F017
:100C900086E0A81691F080E68A8311C081E68A83F7
:100CA0000EC082E68A830BC083E68A8308C084E68E
:100CB0008A8305C085E68A8302C086E68A8362E06D
:100CC000CE0101960E9456029B838C8364E0CE0184
:100CD00001960E94AB018823C9F3419A10926C07D8
:100CE0000F900F900F900F90DF91CF911F910F9168
:100CF000FF90EF90DF90CF90BF90AF9008952F922C
:100D00003F924F925F926F927F928F929F92AF929B
:100D1000BF92CF92DF92EF92FF920F931F93CF93E8
:100D2000DF93CDB7DEB76F970FB6F894DEBF0FBE77
:100D3000CDBF0E94DE052091840030918500E4E85B
:100D4000F0E0A901465D5C4FA6E8B0E0B9016C5740
:100D50007C4F808191814817590728F080819181CB
:100D600028173907B0F3808191818217930750F4D7
:100D7000808191810D911C911197800F911F861791
:100D8000970738F386E00E94DE05209184003091B9
:100D90008500E4E8F0E0A901465D5C4FA6E8B0E01C
:100DA000B9016C577C4F808191814817590728F011
:100DB0008081918128173907B0F380819181821752
:100DC000930750F4808191810D911C911197800FB0
:100DD000911F8617970738F319828CE08A8362E0A7
:100DE000CE0101960E9456029B838C837E0105E012
:100DF000E00EF11C6E011DE0C10ED11CF701119235
:100E0000EC15FD05E1F764E0CE0101960E94AB010F
:100E10008823C9F310926C0780912407882309F472
:100E200044C0B12C912CA12C0AE417E068E0CE015B
:100E300005960E94AB018823C9F3FE013D96892DDA
:100E40009A2DDC01A65BB84F50962C912193019608
:100E500088309105B1F766E0CE010D960E945602EA
:100E60002B8930E0322F22274C89242B2817390771
:100E7000B9F4EB2DF0E0EE0FFF1FED55F64F8A8928
:100E800090E0982F88272989822B91838083D8012D
:100E900092961C92B39480912407B81638F205C03C
:100EA000419A10926C0781E0DFC1419A10926C0761
:100EB00019828EE08A8362E0CE0101960E9456027A
:100EC0009B838C83F7011192CE16DF06E1F764E075
:100ED000CE0101960E94AB018823C9F310926C07E2
:100EE00080912407882309F447C0F12CD12CE12CF0
:100EF0000AE417E068E0CE0105960E94AB01882362
:100F0000C9F3FE013D968D2D9E2DDC01A65BB84FE9
:100F100050962C912193019688309105B1F766E0A7
:100F2000CE010D960E9456022B8930E0322F2227E7
:100F30004C89242B28173907B1F4EF2DF0E0EE0F80
:100F4000FF1FED53F64F8A8990E0982F8827298953
:100F5000822B91838083F80112A2F394809124075D
:100F6000F81640F209C087E091E00E94C40F419A50
:100F700010926C0781E078C1419A10926C07F09151
:100F80002407FD8FFF2309F464C10F2EF3EA4F2ECF
:100F9000F9E05F2EF02D03EE19E0712C48016F2E61
:100FA000D2018D919D912D015C018D8BBE8A282FE0
:100FB0003B2D40E050E060E070E080E090E005E034
:100FC0000E946519C12CD12CE12CF12C00E010E01D
:100FD0000E948719A22EB32EC42ED52EE62EF72EF0
:100FE000E82F192F06E00E9465190E2F0E9487191D
:100FF00003E00E946519AD88BE88C12CD12CE12C7C
:10100000F12C00E010E00E947E1906E00E946519B4
:101010005E96ED91FC915F975F01C12CD12CE12C84
:10102000F12C8701ED8BBE8ACF8AD88EE98EFA8E9D
:101030000B8F1C8FC12CD12CE12CF12C00E010E087
:101040000E949018E22EF32E042F152FB62FA72FF3
:10105000F82FD92E2F3DE6EE3E07EBE04E07510567
:10106000610571058105910531F12CF1205E364E47
:101070004B40510961097109810991090F2EFAEB61
:10108000AF2EF02DBB24BA94CC24CA94DD24DA947C
:10109000EE24EA94FF24FA940FEF1FEF0E949018B9
:1010A000D4012C9311963C93119712964C9312975E
:1010B00013965C9399C02E2D3F2D402F512F6B2FEF
:1010C0007A2F8F2F9D2D2F31E0E33E07E5E04E076D
:1010D0005105610571058105910531F12CF1205E05
:1010E000364E4B40510961097109810991090F2E52
:1010F000F2E9AF2EF02DBB24BA94CC24CA94DD249F
:10110000DA94EE24EA94FF24FA940FEF1FEF0E9482
:101110009018D4012C9311963C93119712964C93EE
:10112000129713965C9360C02E2D3F2D402F512FA8
:101130006B2F7A2F8F2F9D2D273DEAEC3E07E2E0A3
:101140004E075105610571058105910509F02CF5E2
:1011500020513A47474051096109710981099109B4
:101160000F2EFDECAF2EF02DBB24BA94CC24CA94E4
:10117000DD24DA94EE24EA94FF24FA940FEF1FEFB3
:101180000E949018D4012C9311963C9311971296BB
:101190004C93129713965C9327C02E2D3F2D402F12
:1011A000512F6B2F7A2F8F2F9D2D2858374D494067
:1011B000510961097109810991090F2EF3EBAF2ED5
:1011C000F02DBB24BA94CC24CA94DD24DA94EE2406
:1011D000EA94FF24FA940FEF1FEF0E949018F40195
:1011E00020833183428353837394F4E08F0E911CE8
:1011F000761408F4D5CE4091E3095091E40960914A
:10120000E5097091E6090D8D023018F1E7EEF9E07D
:10121000202F225030E0220F331F220F331F255181
:10122000364F1E8D0F8DF22CE32C81919191A1915F
:10123000B191481759076A077B0724F4182F092F23
:10124000FA2EEB2EE217F30781F71E8F0F8F2F2C4C
:101250003E2C1E8D1093230A2F8D2093240A20925A
:10126000250A3092260A80E06F960FB6F894DEBF0A
:101270000FBECDBFDF91CF911F910F91FF90EF90E7
:10128000DF90CF90BF90AF909F908F907F906F90A6
:101290005F904F903F902F900895EF92FF920F93A1
:1012A0001F93CF93DF938C0180912407882361F1F2
:1012B00080E0E12CF12CA1E0B0E0282F30E0F80133
:1012C000E20FF31F1082220F331FE901C65FDC4FCC
:1012D000688179812E2D3F2DAD01022E02C0440F71
:1012E000551F0A94E2F746235723452B19F09081A6
:1012F0009F5F90832F5F3F4F2C30310569F78F5FE1
:10130000909124078917C8F2DF91CF911F910F9117
:10131000FF90EF9008952F923F924F925F926F92BD
:101320007F928F929F92AF92BF92CF92DF92EF9275
:10133000FF920F931F93CF93DF93CDB7DEB76197E3
:101340000FB6F894DEBF0FBECDBF1C01798768874A
:101350005B874A873D872C871F870E872DB73EB74F
:10136000398B288B809124074DB75EB7481B5109F4
:101370000FB6F8945EBF0FBE4DBF0DB71EB70F5F1F
:101380001F4FC8010E944D0980912407882309F44A
:101390006BC0EAE0F3E0FB83EA839801815090E0C0
:1013A0000196A801480F591F5F834E8360E070E0EB
:1013B000A12CB12C1982412C512C3201C12CD12CE1
:1013C0000F2EF0E58F2EF3EC9F2EF02DEE24E394FC
:1013D000F12C8B013D822C82190139C0C701022EEC
:1013E00002C0880F991F0A94E2F78623972300977B
:1013F000C1F040815181440E551E611C711CD50104
:10140000AE0FBF1FA00FB11F4D915C91481559053C
:1014100038F0C416D50628F4892B19F06A0101C0EA
:101420004A012F5F3F4F32962C303105B9F6F1015A
:1014300081911F01F981F80FF98328E1A21AB108FF
:10144000085E1F4F4E815F8124163506C9F0EA8180
:10145000FB8161917191FB83EA83EC81FD81EA1943
:10146000FB0920E030E0BACF1982412C512C320127
:10147000C12CD12C0F2EF0E58F2EF3EC9F2EF02DEA
:10148000E885F985D182C082EA85FB8591828082D8
:10149000F9812F2F30E040E050E0C301B2010E94FB
:1014A0004718EC85FD85318320832981EE85FF85F2
:1014B0002083488959890FB6F8945EBF0FBE4DBF8F
:1014C00061960FB6F894DEBF0FBECDBFDF91CF910E
:1014D0001F910F91FF90EF90DF90CF90BF90AF9052
:1014E0009F908F907F906F905F904F903F902F9044
:1014F00008952F923F925F926F927F928F929F9268
:10150000AF92BF92CF92DF92EF92FF920F931F9311
:10151000CF93DF9300D0CDB7DEB75C018B017A01AA
:1015200049012DB63EB6809124072DB73EB7281B42
:1015300031090FB6F8943EBF0FBE2DBF8DB79EB7D1
:1015400001960E944D0980912407811130C056C038
:101550006191719162177307C0F046175707A8F49D
:101560006133754790F0B601082E02C0660F771FF1
:101570000A94E2F77B01A981BA816D917C916E2179
:101580007F21672B11F00E291F2901968C309105C0
:10159000F9F6E72DF0E0EE0FFF1FE80DF91D1183BE
:1015A0000083739480912407781668F027C0712C0B
:1015B000612C512C98012C593F4FA7014C595F4F7A
:1015C000CC24C394D12CA72DB0E0FD01EE0FFF1F5A
:1015D000EA0FFB1FEE0FFF1FEE0FFF1FEE0FFF1FA7
:1015E000EA0DFB1D862D952D062D152DAA0FBB1F6F
:1015F000BD01665F7C4F7A836983AACF0FB6F894EA
:101600003EBE0FBE2DBE0F900F90DF91CF911F9168
:101610000F91FF90EF90DF90CF90BF90AF909F9091
:101620008F907F906F905F903F902F9008952F92B2
:101630003F924F925F926F927F928F929F92AF9262
:10164000BF92CF92DF92EF92FF920F931F93CF93AF
:10165000DF9300D0CDB7DEB75C018B017A01490181
:101660002DB63EB6809124072DB73EB7281B310911
:101670000FB6F8943EBF0FBE2DBF8DB79EB7019633
:101680000E944D0980912407811132C0612C58C0FD
:101690006191719162177307C8F046175707B0F44C
:1016A0006133754798F0B601082E02C0660F771FA8
:1016B0000A94E2F77B01A981BA816D917C916E2138
:1016C0007F21672B19F00E291F29639401968C3016
:1016D0009105F1F6E72DF0E0EE0FFF1FE80DF91D83
:1016E00011830083739480912407781670F028C0CA
:1016F000712C612C512C412C980128533F4FA7018C
:1017000048535F4FCC24C394D12CA72DB0E0FD01EA
:10171000EE0FFF1FEA0FFB1FEE0FFF1FEE0FFF1F65
:10172000EE0FFF1FEA0DFB1D852D942D052D142DA9
:10173000AA0FBB1FBD01665F7C4F7A836983A8CF68
:10174000862D0FB6F8943EBE0FBE2DBE0F900F90A3
:10175000DF91CF911F910F91FF90EF90DF90CF908D
:10176000BF90AF909F908F907F906F905F904F90C1
:101770003F902F9008952F923F924F925F927F92C9
:101780008F92AF92BF92CF92DF92EF92FF920F9320
:101790001F93CF93DF931092D800883E23E09207E7
:1017A00049F41092E2008AE08093E3008CE1809398
:1017B000E40047C0843FE1E09E0749F482E0809363
:1017C000E2008AE28093E3008093E4003AC08A3F1B
:1017D000910549F486E08093E2008AE28093E30079
:1017E0008093E4002EC08EE08093E2008AE2809332
:1017F000E3008093E40025C0882E880C880C880CB8
:10180000880CF6018082F7011082843018F4F5010B
:10181000708202C0F5011082F8011082FB01108273
:10182000FA011082F9011082F201108218821C92D2
:10183000F10110828F5F8630F9F682E08093D80044
:101840002AC080E00F2EFDEECF2ED12CF02D0F2ED2
:10185000FEEEEF2EF12CF02D0F2EFFEEAF2EB12C61
:10186000F02D6894772477F800EF10E061EF70E0D6
:1018700042EF50E023EF30E00F2EF4EF4F2E512CCB
:10188000F02DC5EFD0E0A6EFB0E00F2EF7EF2F2E32
:10189000312CF02DB1CFDF91CF911F910F91FF909F
:1018A000EF90DF90CF90BF90AF908F907F905F9040
:1018B0004F903F902F9008950F931F93CF93DF93F6
:1018C0001092ED002091DC0020FF14C021E030E0F8
:1018D000CDEED0E0ACEDB0E0E22FE295E07FE88322
:1018E000EC91F0E0022E02C0F595E7950A94E2F73C
:1018F000E0FD57C02091EF00322F3F70393018F4CF
:10190000EB01388303C038E0FB01308324FD15C0B0
:101910002091F3000091F20002950695077010E007
:10192000F8E02F9F000D111D112420E030E0EC01A4
:10193000088319832A833B831AC0E091F3003E2F6A
:10194000E091F2002E2FE091F1001E2FE091F000C7
:101950000E2F689412F836952795179507951694CB
:10196000D1F73068FC010083118322833383EB01BC
:101970008881882369F0242FE42FF52FAAEFB0E0A7
:101980008C9181939E2F921BEB0188819817C0F355
:1019900080E88093EF008091DC0080958E708160FC
:1019A00007C02F5F3F4F2430310509F095CF80E00D
:1019B000DF91CF911F910F910895CF92DF92EF9217
:1019C000FF920F931F93CF93DF93CDB7DEB7289786
:1019D0000FB6F894DEBF0FBECDBFC982DA82EB82AC
:1019E000FC820D831E832F8338872091DC0024FD29
:1019F00004C020E42093ED0007C02091DC0025FD09
:101A000042C020E52093ED00442361F09E012F5F4A
:101A10003F4FF901AAEFB0E051915C935E2F521B4A
:101A20005417D0F399237CF01092F000660F771FC3
:101A300062957295707F7627607F76276093F200BB
:101A40007093F3001BC0DC01CB01880F991FAA1F04
:101A5000BB1F880F991FAA1FBB1F880F991FAA1FA2
:101A6000BB1F8093F0009093F100A093F2008B2FA6
:101A70009927AA27BB278093F300405F40644093D7
:101A8000EF0081E001C080E028960FB6F894DEBF39
:101A90000FBECDBFDF91CF911F910F91FF90EF90BF
:101AA000DF90CF900895CF92DF92EF92FF920F9345
:101AB0001F93CF93DF93CDB7DEB72D970FB6F89472
:101AC000DEBF0FBECDBF409149074423D1F18091C5
:101AD000DC0080738033A9F18091F40690E050E03F
:101AE000873010F48F5F01C0892F9A01082E02C041
:101AF000359527950A94E2F720FFF2CF8093F406FC
:101B00000E94FE1681E090E00090F40602C0880F6B
:101B1000991F0A94E2F78095909149078923809351
:101B200049070FC0C980DA80EB80FC800D811E81DF
:101B30002F81388549855A856B857C858D850E94E6
:101B4000B416AE014A5F5F4FBE016B5F7F4FCE019F
:101B500001960E945C0C8111E5CF2D960FB6F8948A
:101B6000DEBF0FBECDBFDF91CF911F910F91FF90D0
:101B7000EF90DF90CF90089590E0FC01E556F109D9
:101B8000EF36F10588F5E25CFF4F0C948818509A07
:101B90000895389A0895529A0895399A0895269A80
:101BA0000895539A0895209A0895219A0895279A9E
:101BB0000895549A08956A9A0895559A0895569AE0
:101BC0000895229A08953C9A08953D9A08953E9A60
:101BD0000895259A08953F9A0895249A0895239A7E
:101BE0000895519A0895579A089583E70E94BC0D6D
:101BF0005F9A08958091F9069091FA06892BC9F1B0
:101C00008091F7069091F806892BE1F080916D079D
:101C1000882379F15F9A10926C0780915A0790910E
:101C20005B0796958795969587959093F606809392
:101C3000F5061092F8061092F7061092FA06109226
:101C4000F906089580916C07811113C08CB5837FCC
:101C50008CBD10924B0710924A0782E080936A076E
:101C60005F980E947D0E81E090E09093F80680934B
:101C7000F706089594B1926894B9539A803109F1A6
:101C800038F4843091F08830B1F0823089F507C0A3
:101C9000803419F1803839F1803251F518C08DB592
:101CA00081608DBD80E58CBD23C08DB58E7F8DBDDF
:101CB00080E58CBD1DC08DB581608DBD81E58CBD7D
:101CC00017C08DB58E7F8DBD81E58CBD11C08DB5E2
:101CD00081608DBD82E58CBD0BC08DB58E7F8DBDC5
:101CE00082E58CBD05C08DB58E7F8DBD83E58CBD35
:101CF0008CB580688CBD7894089580916C078111B3
:101D000013C010926D0781E080936C0780936B077E
:101D100080916A07813118F080E180936A07809191
:101D20004A078EBD81E0089580E008950DB407FE56
:101D30001DC0EBE6F7E0A081B0E08EB5A75BB84F21
:101D400050968C93908180916A07981758F48081FF
:101D50008F5F8083E081F0E0E75BF84F80818EBD8C
:101D600080E0089581E080936D07089580E00895F4
:101D70001F920F920FB60F9211248F939F93AF93E0
:101D8000BF93EF93FF93EBE6F7E0A081B0E08EB551
:101D9000A75BB84F50968C93908180916A079817F3
:101DA00050F480818F5F8083E081F0E0E75BF84F43
:101DB00080818EBD03C081E080936D07FF91EF911C
:101DC000BF91AF919F918F910F900FBE0F901F9079
:101DD0001895E0E8F0E0808182608083E1E8F0E03F
:101DE00080818A61808380ED97E090938700809363
:101DF0008600EFE6F0E0808181608083789408952A
:101E00001F920F920FB60F9211248F939F93AF934F
:101E1000BF938091FC069091FD06A091FE06B091C3
:101E2000FF060196A11DB11D8093FC069093FD064F
:101E3000A093FE06B093FF0681E08093FB06BF915E
:101E4000AF919F918F910F900FBE0F901F9018959B
:101E50008091FB06813009F04DC01092FB060E9474
:101E600069118091030190910401883E23E092075B
:101E700030F40196909304018093030108C00E94FE
:101E8000B21681E090E09093040180930301809169
:101E90000201853020F48F5F80930201089581E074
:101EA000809302010E946A118091030180FD22C08B
:101EB0000E946B1180910101853020F48F5F809327
:101EC0000101089581E0809301010E946C118091CD
:101ED000030181FD0FC00E94141380910001853021
:101EE00020F48F5F80930001089581E080930001CA
:101EF0000E94151308950E94E90E0E9438100E9456
:101F0000960E0E9406010E94530D06C00E94530DBA
:101F10000E94960E0E9406010E9473108823B1F35E
:101F20000E94FA0D0E94960E0E9406010E94530D17
:101F30000E94280F0E94B316F3CFCF93DF939B012B
:101F4000AC01C8ECD0E088818068888360E271EAE7
:101F500087E090E00E944718215031093093CE006D
:101F60002093CD0088818F608883539A5498DF91A5
:101F7000CF9108959091C90094FD04C08093D20040
:101F800081E0089580E00895CF93DF93EC0188818C
:101F9000882349F088810E94BA0F8823D9F32196BB
:101FA00088818111F7CFDF91CF910895FC01909145
:101FB000C900892F817090FF04C08091D200808376
:101FC00081E008951F920F920FB60F9211242F9364
:101FD0008F939F93EF93FF938091C90080FF19C067
:101FE000E0917007F09171078091D2008083809119
:101FF0007007909171070196909371078093700715
:102000008458974031F484E797E090937107809368
:1020100070078091C90081FF21C0E0917207F091A3
:1020200073078081882369F080818093D20080913A
:1020300072079091730701969093730780937207CC
:102040000DC081E080930501EAECF0E080818D7F96
:102050008083E9ECF0E0808182608083FF91EF91E2
:102060009F918F912F910F900FBE0F901F901895F9
:102070000E94F50D8CE60E94BC0D419A83ED0E94F2
:10208000BC0D729860E072EC81E090E00E949D0FC0
:1020900084EF91E00E94BB0B0E94CC0088E290E0AC
:1020A0000E94E10080E10E943A0E8CB58C608CBDEC
:1020B00060E174EA88EA91E60E94100481E080936E
:1020C0000C07809149078160809349078AE293E079
:1020D0000E94C40F8CE293E00E94C40F8FE493E04F
:1020E0000E94C40F0895CF92DF92EF92FF920F9358
:1020F0001F93CF93DF9380910C07813009F0CAC002
:1021000080910B07813009F0C5C080910A078111C9
:10211000C1C08091090780932407D1E00F2EF6E516
:10212000EF2EF9E0FF2EF02D0F2EF3E2CF2EFAE086
:10213000DF2EF02D88E693E00E94C40FC0E3CD0FA0
:102140008C2F0E94BA0F8823D9F38BEC97E00E9462
:10215000AE048130A9F481E793E00E94C40F8BE8BC
:1021600093E00E94C40FE9ECF7E080819091490769
:102170009160909349078F7E808310920B0775C002
:1021800001E519E02FE439E04DE459E06BE479E032
:102190008BEC97E00E948B0983E00E947F06F70199
:1021A000108211821282138280914D0990914E0902
:1021B000893A9146A8F485EA93E00E94C40F8BE81F
:1021C00093E00E94C40FE9ECF7E080819091490709
:1021D0009160909349078B7F808310920B0745C0D5
:1021E00080914B0990914C098031944AA8F08EEB74
:1021F00093E00E94C40F8BE893E00E94C40FE9ECC7
:10220000F7E08081909149079160909349078D7F15
:10221000808310920B0729C0F60180819181A281F1
:10222000B38180379741A105B105ACF086ED93E00D
:102230000E94C40F8BE893E00E94C40FE9ECF7E022
:10224000808190914907916090934907877F8083AF
:1022500010920B070AC0D53021F481E080930A0761
:1022600004C0DF5FD63009F065CF80910A07813066
:1022700001F582EF93E00E94C40F82E194E00E9496
:10228000C40F10920B078091490781608093490722
:1022900080E016C080910D07813069F480910A07B3
:1022A000813059F480910B07811109C0729A81E045
:1022B00007C080E005C080E003C080E001C080E08E
:1022C000DF91CF911F910F91FF90EF90DF90CF9012
:1022D00008950895089508950F931F93109200078D
:1022E0008091C90786FF08C091E0909300078F7B1B
:1022F0008093C9070E94EA028BEC97E00E94AE042B
:10230000882349F080910007811105C0E9ECF7E0CE
:102310008081806180838091C90786FD09C090918A
:102320000007913029F480648093C9070E94EA0273
:1023300001E519E02FE439E04DE459E06BE479E080
:102340008BEC97E00E948B0980914D0990914E098A
:10235000893A914628F4E9ECF7E080818460808333
:1023600080914B0990914C098031944A28F0E9EC16
:10237000F7E08081826080838DE29AE00E94D60F30
:102380008823A1F080912D0A803319F0813349F020
:102390000DC0E9ECF7E080818F7B80830E94EA0228
:1023A00005C0E9ECF7E08081806480838091C907F3
:1023B00086FD33C180E38093060140919F095091CF
:1023C000A00960914D0970914E092BE739E08BEC23
:1023D00097E00E94170B809301078091C90786FF41
:1023E00014C040919F095091A00960914D097091CE
:1023F0004E092BE539E08BEC97E00E94790A0E94A8
:10240000EA028091C90786FD12C00E94EA0210927A
:102410002B0A90912407992351F0EBE5F9E080E035
:10242000119211928F5F8917D8F380932B0A109223
:102430005A09109256091092570910925809109291
:10244000590983E00E947F068091230A9091240A13
:10245000A091250AB091260A80379741A105B105C0
:102460002CF0E9ECF7E080818860808380910D0793
:10247000882309F4C4C080910B078111C3C08091E7
:1024800007078111ABC080910607811108C08091B8
:10249000C90780FF1AC081E08093060716C090919B
:1024A000C90790FD04C08150809306070EC08F5F5E
:1024B000843018F48093060708C01092060781E064
:1024C0008093070790629093C90780910507811157
:1024D00008C08091C90781FF1AC081E08093050779
:1024E00016C09091C90791FD04C0815080930507E3
:1024F0000EC08F5F843018F48093050708C01092D7
:10250000050781E08093070790629093C907809147
:102510000407811108C08091C90782FF1AC081E0B9
:102520008093040716C09091C90792FD04C08150A2
:10253000809304070EC08F5F843018F480930407E3
:1025400008C01092040781E080930707906290937F
:10255000C90780910307811108C08091C90783FFD3
:102560001AC081E08093030716C09091C90793FDBC
:1025700004C08150809303070EC08F5F843018F42D
:102580008093030708C01092030781E08093070738
:1025900090629093C90780910207811108C08091D1
:1025A000C90784FF2FC081E0809302072BC0909160
:1025B000C90794FD04C081508093020723C08F5F38
:1025C0008A3018F4809302071DC01092020781E040
:1025D0008093070790629093C90714C08F5F809320
:1025E0000707883278F072981092070781E080938D
:1025F000C607E9ECF7E080818F7D808303C0729885
:1026000010920707809149078C6180934907E9EC94
:10261000F7E08081807E808304C081E3809306019F
:10262000CCCE1F910F9108950895CF92DF92EF9233
:10263000FF920F931F93CF93DF938AE293E00E9460
:10264000C40F8091C9078F71A1F0809107074AE0FC
:102650006FE377E090E00E94BD1985E394E00E946B
:10266000C40F8FE397E00E94C40F84E795E00E94B7
:10267000C40F8091C90784FF04C084E494E00E94E1
:10268000C40F80914D0990914E09893A914620F4EA
:102690008EE594E00E94C40F80914B0990914C0903
:1026A0008031944A20F087E794E00E94C40F809123
:1026B000230A9091240AA091250AB091260A803716
:1026C0009741A105B10524F08FE894E00E94C40F62
:1026D0008091560990915709A0915809B0915909D4
:1026E0008038914DA04FB84020F08BEA94E00E94D2
:1026F000C40F83EC94E00E94C40F10922B0A8091C7
:102700002407882311F1CFE3D7E081ED94E00E9404
:10271000C40F80912B0A90E04AE0BE0101960E940E
:10272000BD1988810E94BA0F8823D9F388ED94E0FF
:102730000E94C40F80912B0A8F5F80932B0A909187
:102740002407891710F310922B0ACFE3D7E0EC2E61
:10275000FD2E01E010E081E796E00E94C40F8BEDB2
:1027600094E00E94C40F80912B0A90E04AE0BE01E1
:1027700001960E94BD1988810E94BA0F8823D9F35F
:1027800089810E94BA0F8823D9F383EE94E00E94D6
:10279000C40F10922C0A80912407882309F47CC06E
:1027A00020E030E080912B0A482F50E0F901EE0F35
:1027B000FF1FE353F94FB80102C0660F771F8A95D8
:1027C000E2F78081918186239723892B09F456C0F3
:1027D000C901880F991F280F391F220F331F220F9D
:1027E000331FF901E40FF51FEE0FFF1FE553F84FFC
:1027F00080819181803127E29207C0F04AE06E2DFE
:102800007F2D0E94BD1988810E94BA0F8823D9F3B9
:102810008CE20E94BA0F8823D9F380E497E00E94EB
:10282000C40F87EE94E00E94C40F2CC08BEE94E09E
:102830000E94C40F80912C0A90E020912B0AFC0189
:10284000EE0FFF1FE80FF91FEE0FFF1FEE0FFF1F28
:10285000E20FF11DEE0FFF1FE553F84F4AE06E2D1A
:102860007F2D808191810E94BD198E2D9F2D0E9408
:10287000C40F87EE94E00E94C40F04C08EEE94E073
:102880000E94C40F20912C0A2F5F20932C0A809164
:102890002407281708F485CF80912B0A8F5F809337
:1028A0002B0A8C3008F457CF83E795E00E94C40FC1
:1028B0004AE06FE377E080914D0990914E090E94C4
:1028C000BD198BEF94E00E94C40FCFE3D7E088815D
:1028D0000E94BA0F8823D9F38CE20E94BA0F882392
:1028E000D9F380E497E00E94C40F8CE095E00E9449
:1028F000C40F4AE06FE377E080914F09909150094F
:102900000E94BD198FE095E00E94C40FCFE3D7E08D
:1029100088810E94BA0F8823D9F38CE20E94BA0FF3
:102920008823D9F380E497E00E94C40F8CE095E0FF
:102930000E94C40F4AE06FE377E080914B099091C9
:102940004C090E94BD1982E295E00E94C40FCFE3BA
:10295000D7E088810E94BA0F8823D9F38CE20E94C5
:10296000BA0F8823D9F380E497E00E94C40F85E36F
:1029700095E00E94C40F10922B0A809124078823AF
:1029800009F471C0CFE3D7E00F2EF4E6CF2ED12C9F
:10299000E12CF12CF02D8AE395E00E94C40F809188
:1029A0002B0A90E04AE0BE0101960E94BD19888181
:1029B0000E94BA0F8823D9F388ED94E00E94C40FD7
:1029C000E0912B0AF0E0EE0FFF1FEE0FFF1FED511D
:1029D000F64F6081718182819381A70196010E94E7
:1029E0006918DA01C9013093C8072093C7074AE084
:1029F000BE010E949019CE010E94C40F8CE20E9479
:102A0000BA0F8823D9F3E0912B0AF0E0EE0FFF1FF5
:102A1000EE0FFF1FED51F64F60817181828193812E
:102A2000A70196010E946918DC01CB019093C807A9
:102A30008093C7074AE0BE010E949019CE010E9410
:102A4000C40F89E495E00E94C40F1092C807109249
:102A5000C70780912B0A8F5F80932B0A90912407E0
:102A6000891708F498CF80910807813029F48CE405
:102A700095E00E94C40F06C0811104C080E695E075
:102A80000E94C40F609156097091570980915809AE
:102A900090915909611521EE720725EF820725E013
:102AA000920708F442C020E432E44FE050E00E9474
:102AB0004718DA01C9012093270A3093280A409366
:102AC000290A50932A0A4AE06FE377E00E94BD1971
:102AD0008FE397E00E94C40F8CE20E94BA0F882314
:102AE000D9F36091560970915709809158099091D6
:102AF000590920E432E44FE050E00E944718609307
:102B0000270A7093280A8093290A90932A0A2AE0B8
:102B10004FE357E00E949B198FE397E00E94C40F98
:102B200081E795E00E94C40FCAC0603826E97207A9
:102B300028E98207910508F442C020E432E44FE01E
:102B400050E00E944718DA01C9012093270A309308
:102B5000280A4093290A50932A0A4AE06FE377E053
:102B60000E94BD198FE397E00E94C40F8CE20E947F
:102B7000BA0F8823D9F36091560970915709809153
:102B800058099091590920E432E44FE050E00E9446
:102B900047186093270A7093280A8093290A909314
:102BA0002A0A2AE04FE357E00E949B198FE397E03F
:102BB0000E94C40F88E795E00E94C40F80C0603473
:102BC00022E472072FE08207910508F442C020E456
:102BD00032E44FE050E00E944718DA01C901209327
:102BE000270A3093280A4093290A50932A0A4AE078
:102BF0006FE377E00E94BD198FE397E00E94C40F56
:102C00008CE20E94BA0F8823D9F360915609709123
:102C10005709809158099091590920E432E44FE016
:102C200050E00E9447186093270A7093280A809307
:102C3000290A90932A0A2AE04FE357E00E949B1941
:102C40008FE397E00E94C40F88E795E00E94C40FCD
:102C500036C0603A76488140910540F180E30E9499
:102C6000BA0F8823D9F38CE20E94BA0F8823D9F3D4
:102C700060915609709157098091580990915909AE
:102C80006093270A7093280A8093290A90932A0A4E
:102C90002AE04FE357E00E949B198FE397E00E94E0
:102CA000C40F88E795E00E94C40F09C080E30E942A
:102CB000BA0F8823D9F388E795E00E94C40F80916A
:102CC0005A0980FF05C08EE795E00E94C40F1BC023
:102CD00081FF05C088EB95E00E94C40F14C082FFFD
:102CE00005C083EE95E00E94C40F0DC083FF05C0B0
:102CF0008DE196E00E94C40F06C084FF04C089E401
:102D000096E00E94C40F85E796E00E94C40F809170
:102D100001074AE06FE377E090E00E94BD198FE37E
:102D200097E00E94C40F80E996E00E94C40F89E9F1
:102D300096E00E94C40F809106010E94BA0F88237A
:102D4000D1F380EB96E00E94C40F8FEB96E00E94D7
:102D5000C40FDF91CF911F910F91FF90EF90DF9003
:102D6000CF90089508950895CF92DF92EF92FF9249
:102D70000F931F93CF93DF93CDB7DEB72D970FB689
:102D8000F894DEBF0FBECDBFC982DA82EB82FC822F
:102D900089819A81AB81BC8181309105A105B10502
:102DA00031F081159140A105B10599F018C010933B
:102DB0000D07213031F4E9ECF7E0808180648083F5
:102DC00005C0E9ECF7E080818F7B808330930807B2
:102DD00006C010930B0720930907309308072D9620
:102DE0000FB6F894DEBF0FBECDBFDF91CF911F911C
:102DF0000F91FF90EF90DF90CF9008955F926F92C8
:102E00007F928F929F92AF92BF92CF92DF92EF927A
:102E1000FF920F931F93CF93DF93CDB7DEB72D971C
:102E20000FB6F894DEBF0FBECDBF823059F018F454
:102E3000882369F016C1833009F4D5C0843009F4C1
:102E400005C10FC180912407811187C00AC18091FB
:102E5000C9078E8380910A078130E1F480910B07C6
:102E6000811135C080910C078F83188681E0898796
:102E7000CE80DF80E884F9840A851B852C853D851A
:102E800044E062E070E080E090E00E94DD0C882386
:102E900079F3E7C081111BC080910B078130B9F431
:102EA00080910C078F8381E08887CE80DF80E88463
:102EB000F9840A851B852C853D8543E062E070E03E
:102EC00080E090E00E94DD0C882379F3CAC08091F5
:102ED0000C078F83CE80DF80E884F9840A851B8508
:102EE0002C853D8542E062E070E080E090E00E9449
:102EF000DD0C882379F3B5C0F501928183819E832F
:102F00008F839481858198878987968187819A8725
:102F10008B877C86F40180818D87CE80DF80E8847A
:102F2000F9840A851B852C853D8548E064E070E0C6
:102F300080E090E00E94DD0C882379F3F6E0AF0E8C
:102F4000B11C23E0720E7610D7CF53943CE0630E91
:102F500080912407581660F084C00F2EFFE06F2E7A
:102F6000F02D512C0F2EF9EC8F2EF7E09F2EF02D27
:102F7000852D90E05C01AA0CBB1C8A0D9B1D880F5F
:102F8000991F880F991F880F991FFC01E753F84F6D
:102F90005F010F2EF4EF7F2EF02D760CADCFE92DD3
:102FA000F0E0EE0FFF1FE55AF64F908181819E837E
:102FB0008F8380910107888793949986F50180819A
:102FC0008A87CE80DF80E884F9840A851B852C857A
:102FD0003D8545E065E070E080E090E00E94DD0C1A
:102FE000882379F307C0912C0F2EF9ECAF2EF7E070
:102FF000BF2EF02D80912407981688F232C0E92D5B
:10300000F0E0EE0FFF1FEE0FFF1FED51F64F308186
:103010002181928183813E832F839887898793942E
:103020009A86F50180818B87CE80DF80E884F984E1
:103030000A851B852C853D8546E066E070E080E0D2
:1030400090E00E94DD0C882379F307C0912C0F2EAD
:10305000F9ECAF2EF7E0BF2EF02D809124079816E3
:1030600070F22D960FB6F894DEBF0FBECDBFDF9184
:10307000CF911F910F91FF90EF90DF90CF90BF9075
:10308000AF909F908F907F906F905F900895A1E296
:103090001A2EAA1BBB1BFD010DC0AA1FBB1FEE1FD2
:1030A000FF1FA217B307E407F50720F0A21BB30B1D
:1030B000E40BF50B661F771F881F991F1A9469F799
:1030C00060957095809590959B01AC01BD01CF01F5
:1030D0000895052E97FB1EF400940E94801857FD5A
:1030E00007D00E94471807FC03D04EF40C948018B8
:1030F00050954095309521953F4F4F4F5F4F089524
:1031000090958095709561957F4F8F4F9F4F089553
:10311000EE0FFF1F0590F491E02D0994689401C013
:10312000E894F92FF12B12F00C94C218A0E0B0E053
:10313000ECE9F8E10C943419092E059422F40E946C
:103140001E19112392F4F0E80F26FFEFE094F0949B
:1031500000951095B094C094D094A194BF0ACF0A62
:10316000DF0AEF0AFF0A0F0B1F0B0E94CD1807FCA6
:103170000E941E19CDB7DEB7ECE00C94501968948C
:1031800001C0E8948F929F92CF93DF930E94CD1855
:10319000DF91CF919F908F90089588249924F40116
:1031A000E401B0E49F93AA279A158B049C04ED05D3
:1031B000FE05CF05D007A10798F4AD2FDC2FCF2F48
:1031C000FE2FE92D982C892E982F872F762F652F8B
:1031D000542F432F322F2227B85031F7BF9127C0E9
:1031E0001B2EBF91BB27220F331F441F551F661F85
:1031F000771F881F991F881C991CEE1FFF1FCC1F6B
:10320000DD1FAA1FBB1F8A149B04EC05FD05CE051C
:10321000DF05A007B10748F08A189B08EC09FD09F3
:10322000CE09DF09A00BB10B21601A94E1F62EF450
:103230009401AF01BE01CD01000C08956095709519
:103240008095909530954095509521953F4F4F4FE3
:103250005F4F6F4F7F4F8F4F9F4F08952F923F9239
:103260004F925F926F927F928F929F92AF92BF9296
:10327000CF92DF92EF92FF920F931F93CF93DF9342
:10328000CDB7DEB7CA1BDB0B0FB6F894DEBF0FBE9F
:10329000CDBF09942A88398848885F846E847D84EC
:1032A0008C849B84AA84B984C884DF80EE80FD80EE
:1032B0000C811B81AA81B981CE0FD11D0FB6F89464
:1032C000DEBF0FBECDBFED0108950F93083090F023
:1032D000982F872F762F652F542F432F322F222799
:1032E0000850F4CF220F331F441F551F661F771F4E
:1032F000881F991F0A95B2F70F9108952A0D3B1D5B
:103300004C1D5D1D6E1D7F1D801F911F08952A1984
:103310003B094C095D096E097F09800B910B0895EB
:10332000BB274A3031F4992322F4BDE29095819570
:103330009F4F0C94BE19BB27FA01A62F6217710587
:1033400081059105330B30FB66F0AA27660F771FC6
:10335000881F991FAA1FA21710F0A21B639538504F
:10336000A9F7A05DAA3308F0A95DA19336F7B111C2
:10337000B1931082CA010C94D719BB27FB015527C2
:10338000AA27880F991FAA1FA41710F0A41B8395C2
:103390005051B9F7A05DAA3308F0A95DA193009739
:1033A00079F7B111B1931192CB010C94D719DC01CB
:1033B000FC01672F71917723E1F7329704C07C916C
:1033C0006D9370836291AE17BF07C8F30895F894A8
:0233D000FFCF2D
:1033D20001010101000130463200000099C5ABCE67
:1033E200320BCFD8561D6416FDD307F49E31AC3A8A
:1033F20035FFC82C51E963E2FA2797AD0E683C63AA
:10340200A5A65875C1B0F3BB6A7E9059099C3B973B
:10341200A2525F81C644F44F6D8A2E5BB79E85959A
:103422001C50E18378464A4DD38829AFB06A826145
:103432001BA4E6777FB24DB9D47CB9F6203312389B
:103442008BFD762EEFEBDDE04425BE0227C715CCBF
:103452008C0971DAE81FDA1443D1C5F35C366E3D8C
:10346200F7F80A2B93EEA1E53820C2075BC269C9BF
:10347200F00C0DDF941AA6113FD4525ECB9BF9904B
:1034820060559D8604433648AF8D55AACC6FFE64C5
:1034920067A19A7203B731BCA879EBA8726D406636
:1034A200D9A32470BDB58FBE167BEC5C759947928B
:1034B200DE572384BA41884A118F7C05E5C0D7CBF9
:1034C2004E0EB3DD2A18181381D67BF1E234D03FB9
:1034D20049FAB4292DEC1FE7862213A28A67B86C39
:1034E20021A9DC7A45BF77B4EE7114568D93BF984B
:1034F200265DDB8E424B7040E985840F1DCA2FC1C9
:10350200B6044BD7D212E01979DC83FB1A3E283578
:10351200B1F04C23D5E6E7ED7E283DF9A43C963781
:103522000FF2F2216BE459EFC02A3A0DA3C891C3FE
:103532000806F5D56C105E1BC7DEAA543391019ABA
:10354200985F658CFC49CE425787ADA03465066E04
:103552009FAB6278FBBDC9B65073D6514F947D9F25
:10356200E45A1989804CB2472B82D1A548607A6B04
:10357200E3AE1E7D87B8B5B32C7641FCD839EA326A
:1035820073F78E2417E125EABC2F4608DFCDEDC67E
:10359200740389D01015221EBBDBF80A61CF53C415
:1035A200CA0137D2AE179C1C05D9FFFE663B5430C8
:1035B200CDF53026A9E39BE8022D6FA7F662C46918
:1035C2005DACA07F39BA0BB192746853F196C39D7A
:1035D2005A58A78B3E4E0C459580FF01FF0FFF0105
:1035E200FF00FF01FF00FF01FF00FF01FF00FF01DD
:1035F200FF00FF01FF00FF01FF000C004156522DAA
:10360200496E697469616C6973696572756E672068
:103612006572666F6C677265696368210D0A00578F
:10362200617274652061756620546573742D4672EB
:1036320065696761626521000D0A20546573742013
:10364200000D0A204665686C65723A204B6F6D6DFD
:10365200756E696B6174696F6E21000D0A20546585
:1036620073742065726E657574207374617274650B
:103672006E210D0A000D0A204665686C65723A20BB
:10368200556E646572766F6C7461676521000D0A10
:10369200204665686C65723A204F766572766F6C6B
:1036A2007461676521000D0A204665686C65723A8F
:1036B200204F76657274656D70657261747572659E
:1036C20021000D0A0A20546573742D4475726368D3
:1036D2006C617566206572666F6C67726569636896
:1036E20021000D0A2057617274652061756620659C
:1036F2006E646775656C7469676520467265696793
:10370200616265210020532D426F782054696D65F6
:10371200723A2000204665686C65723A204B6F6DE4
:103722006D756E696B6174696F6E210D0A002046BA
:1037320065686C65723A20556E646572766F6C745A
:10374200616765210D0A00204665686C65723A2042
:103752004F766572766F6C74616765210D0A002081
:103762004665686C65723A204F76657274656D7055
:1037720065726174757265210D0A00204665686C78
:1037820065723A204F76657243757272656E742166
:103792000D0A002020202020202020202020200987
:1037A20000536C61766520003A0900205A656C6C02
:1037B2006520003A20090020560900302C004B6594
:1037C200696E65205A656C6C650900206D696E2E04
:1037D20020566F6C746167653A0920002056000D0F
:1037E2000A206176672E20566F6C746167653A090C
:1037F20020000D0A206D61782E20566F6C7461676F
:10380200653A09200020560D0A000D0A2054656D04
:103812007065726174757220002043000D0A0A20DF
:10382200456E746C6164652D5374726F6D3A20003D
:103832000D0A0A204C6164652D5374726F6D3A2033
:10384200002041200D0A0A002041200D0A002053C9
:1038520074726F6D20626566696E64657420736947
:10386200636820696E206B72697469736368656D41
:1038720020426572656963683A202D3241202E2EFE
:103882002E203041200D0A00204665686C65723A90
:10389200205374726F6D20666C696573737420694E
:1038A2006E2064656E2053706569636865722120BD
:1038B2000D0A00205374726F6D20626566696E6432
:1038C2006574207369636820696E206B726974691C
:1038D200736368656D20426572656963683A20307A
:1038E20041202E2E2E202B3241200D0A002046652B
:1038F200686C65723A205374726F6D20666C6965EC
:10390200737374206175732064656D2053706569EB
:103912006368657221200D0A00204665686C657235
:103922003A204265747269656273626572656963A1
:103932006820756562657273636872697474656E16
:1039420021200D0A000D0A2042616C616E63696ECE
:103952006720656D70666F686C656E20616E200011
:10396200205A656C6C656E2E000D0A2042616C61F6
:103972006E63696E672D4D6F64653A2020202000CA
:103982000D0A203C313E2043686172676520000DBC
:103992000A203C303E2044726976652000FF01FF18
:1039A2000FFF01FF00FF01FF00FF01FF00FF01FF0A
:0E39B20000FF01FF00FF01FF00FF01FF00000A
:00000001FF
