:100000000C94B4000C94D1000C94D1000C94D10049
:100010000C94D1000C94D1000C94D1000C94D1001C
:100020000C94D1000C94D1000C94D1000C94D1000C
:100030000C94D1000C94D1000C94611B0C94D10051
:100040000C94D1000C94D1000C94D1000C94D100EC
:100050000C94031D0C94D1000C94D1000C94D1008D
:100060000C94D1000C94D1000C94AB190C94D100D9
:100070000C94D1000C94D1000C94D100790A610A3F
:10008000650A690A6D0A710A750ABE15F015C81568
:100090007C169615A015AA15B415D215DC15E61513
:1000A00054165E16681672167C167C167C167C1624
:1000B0007C167C167C167C167C167C167C167C16B0
:1000C0007C167C167C167C167C167C167C167C16A0
:1000D0007C167C167C167C167C167C167C167C1690
:1000E0007C167C167C167C167C167C167C167C1680
:1000F0007C167C167C167C167C167C167C167C1670
:100100007C167C167C167C167C167C167C167C165F
:100110007C167C167C167C167C167C167C167C164F
:100120007C167C167C167C167C167C167C167C163F
:100130007C167C167C167C167C167C167C167C162F
:100140007C167C167C167C167C167C167C167C161F
:100150007C167C164A167C16401636162C1622166D
:1001600018160E160416FA1511241FBECFEFD0E193
:10017000DEBFCDBF13E0A0E0B1E0E8E9FDE302C0DF
:1001800005900D92AA35B107D9F726E0AAE5B3E0AC
:1001900001C01D92A934B207E1F70E94681C0C94BB
:1001A000CA1E0C940000CF93DF93CDB7DEB728971B
:1001B0000FB6F894DEBF0FBECDBF9E838D837887C8
:1001C0006F831C82CE0104969B838A831092CB039B
:1001D00084E08093CC0387E08093CD0382EC80930E
:1001E000CE031092CF0386E08093D0038AE98093F8
:1001F000D10384E98093D2031092D30388E08093E3
:10020000D4038EE58093D50382E58093D6031092C4
:10021000D7038AE08093D80383EC8093D90384E0EA
:100220008093DA0319820DC08981882F90E0880FAE
:10023000991F8A589A4FFC011182108289818F5F21
:1002400089838981843080F31092E90388EA91E6FA
:100250009093BB058093BA0580E194EA9093BD0525
:100260008093BC056CEB75E08AEB95E00E94A101E0
:10027000198257C08A819B8161E00E945B1988E2E4
:1002800090E028E230E0F90120812260FC01208327
:1002900084E890E0FC01808191819093C403809375
:1002A000C30300008091C3039091C4039C01205EAE
:1002B0003C4F84E890E0FC01808191812817390748
:1002C00060F084E890E0FC01208131818091C303DB
:1002D0009091C4038217930728F384E890E0FC010F
:1002E000208131818091C3039091C403281739077D
:1002F000A8F484E890E0FC012081318186E890E058
:10030000FC0180819181280F391F8091C303909156
:10031000C403805E9C4F2817390720F289818F5FC4
:1003200089838981843008F4A5CF0E94520200009D
:1003300028960FB6F894DEBF0FBECDBFDF91CF91E8
:100340000895CF93DF9300D000D0CDB7DEB79A8366
:1003500089837C836B8389819A81FC01808191816F
:10036000892B99F089819A81FC01808191819295F4
:1003700082958F7089279F7089279C0121503109B0
:1003800089819A81FC01318320838B819C81FC01CE
:10039000808191819C01329522952F7023273F7097
:1003A00023278B819C81FC013183208384E280930D
:1003B000C50389819A81FC01808191818093C60364
:1003C0008B819C81FC0180819181282F2295207F47
:1003D00089819A81FC018081918188279F70892F72
:1003E0009927822B8093C7038B819C81FC0180819C
:1003F0009181807F9F70929582958F7089279F70E1
:1004000089278093C8031092C9031092CA03898177
:100410009A81FC018081918101969C0122953295FF
:10042000307F3227207F322789819A81FC013183F6
:1004300020838B819C81FC01808191819C0122958C
:100440003295307F3227207F32278B819C81FC01BF
:100450003183208300000F900F900F900F90DF9159
:10046000CF910895CF93DF9300D01F92CDB7DEB721
:100470009A8389836B8389818093C9038B81282F19
:100480002295207F89819A8188279F70892F9927BB
:10049000822B8093CA0300000F900F900F90DF9182
:1004A000CF910895EF92FF920F931F93CF93DF9315
:1004B000CDB7DEB72D970FB6F894DEBF0FBECDBF18
:1004C0000DB71EB78DB79EB77C018CE08B832B8157
:1004D000822F90E001979D838C83822F90E02DB72F
:1004E0003EB7281B390B0FB6F8943EBF0FBE2DBF89
:1004F0008DB79EB701969F838E832B81822F90E0CC
:10050000019799878887822F90E04DB75EB7481B87
:10051000590B0FB6F8945EBF0FBE4DBF8DB79EB797
:1005200001969B878A878E819F81FC0110828E8134
:100530009F8121E0FC0121838E819F8162E00E94E6
:1005400084069D878C878C859D85892F9927282FE8
:100550008E819F81FC0122832C858E819F81FC01ED
:100560002383198256C08E819F8161E00E945B19AE
:1005700088E290E028E230E0F90120812260FC016D
:10058000208384E890E0FC01808191819093C403F2
:100590008093C30300008091C3039091C4039C0126
:1005A000275E3F4F84E890E0FC018081918128170D
:1005B000390760F084E890E0FC012081318180916E
:1005C000C3039091C4038217930728F384E890E053
:1005D000FC01208131818091C3039091C4032817CD
:1005E0003907A0F484E890E0FC012081318186E89D
:1005F00090E0FC0180819181280F391F8091C30315
:100600009091C40349962817390728F289818F5F92
:1006100089838981843008F4A6CF8E819F8164E02C
:100620000E945B19198263C08091E903882F90E0D2
:1006300080749927892BA1F08981882F90E023E08D
:1006400030E0A901481B590BCA01880F991F8A582D
:100650009A4FFC018081918161E00E94320204C0C6
:100660001092C9031092CA032091C5038E819F8105
:10067000FC0124832091C6038E819F81FC01258388
:100680002091C7038E819F81FC0126832091C8039E
:100690008E819F81FC0127832091C9038E819F81D8
:1006A000FC0120872091CA038E819F81FC01218754
:1006B0008E819F81049666E00E9484069D878C87C8
:1006C0008C859D85892F9927282F8E819F81FC01FC
:1006D00022872C858E819F81FC0123878E819F81BB
:1006E000049668E00E945B1989818F5F8983898104
:1006F000843008F499CF88E290E028E230E0F901F4
:1007000020812260FC012083198248C08A859B8554
:1007100049816B810E94F303882359F088E290E0BD
:1007200028E230E0F90120812260FC01208381E091
:1007300043C08091E903882F90E080749927892B2A
:1007400051F58981882339F185E08A8321C08A8126
:10075000882F90E02A853B85820F931FFC01208122
:100760008A81882F90E004978B539C4FFC018081F5
:10077000281759F088E290E028E230E0F901208162
:100780002260FC01208381E017C08A818F5F8A8309
:100790008A818A30E0F289818F5F898389818530FF
:1007A00008F4B4CF88E290E028E230E0F90120813B
:1007B0002260FC01208380E00FB6F894FEBE0FBEDD
:1007C000EDBE0FB6F8941EBF0FBE0DBF2D960FB62F
:1007D000F894DEBF0FBECDBFDF91CF911F910F9177
:1007E000FF90EF900895CF93DF93CDB7DEB72797B3
:1007F0000FB6F894DEBF0FBECDBF9D838C836E8392
:100800004F838F81882331F58C819D81FC0110827B
:100810008C819D81019622E0FC0120838C819D8149
:1008200062E00E9484069B838A838C819D8102966C
:100830002A813B81232F3327FC0120838C819D81DA
:1008400003962A81FC0120838C819D8164E00E94B3
:100850005B1940C084E089830CC08981882F90E0B7
:100860002C813D81820F931FFC01108289818F5F53
:10087000898399818E81981780F38C819D8104965C
:1008800068E00E94BF188C819D81049666E00E94FA
:1008900084069B838A838A819B81892F99279C0167
:1008A0008C819D810A96FC018081882F90E0281719
:1008B000390771F48A819B819C0133278C819D814A
:1008C0000B96FC018081882F90E02817390711F0E2
:1008D00081E001C080E027960FB6F894DEBF0FBE1E
:1008E000CDBFDF91CF910895CF93DF9300D000D09B
:1008F0001F92CDB7DEB71A82198256C0CE0102967A
:1009000061E00E945B1988E290E028E230E0F901A2
:1009100020812260FC01208384E890E0FC0180813A
:1009200091819093C4038093C30300008091C3031B
:100930009091C4039C01275E3F4F84E890E0FC0146
:10094000808191812817390760F084E890E0FC01EC
:10095000208131818091C3039091C4038217930752
:1009600028F384E890E0FC01208131818091C30369
:100970009091C40328173907A0F484E890E0FC01A3
:100980002081318186E890E0FC0180819181280FEF
:10099000391F8091C3039091C403499628173907E2
:1009A00028F289818F5F89838981843008F4A6CFFA
:1009B00083E08A8380E68B8384EF8C838CE68D834F
:1009C000CE01029664E00E945B1988E290E028E282
:1009D00030E0F90120812260FC01208300000F90AB
:1009E0000F900F900F900F90DF91CF910895CF92BD
:1009F000DF92EF92FF92CF93DF93CDB7DEB7A1974F
:100A00000FB6F894DEBF0FBECDBF99A388A31B829B
:100A10000E94740484E890E0FC01808191819D83B0
:100A20008C830E94F41BDC01CB018E839F83A887FB
:100A3000B98700008E819F81A885B9856C017D01F1
:100A4000F2E0CF0ED11CE11CF11C0E94F41BDC0172
:100A5000CB018C159D05AE05BF0560F3000084E851
:100A600090E0FC01208131818C819D818217930768
:100A7000B0F784E890E0FC01808191819D838C83B4
:100A800000008C819D819C0128513C4F84E890E0BE
:100A9000FC01808191812817390750F084E890E0AB
:100AA000FC01208131818C819D818217930748F35D
:100AB00084E890E0FC01208131818C819D812817A0
:100AC000390798F484E890E0FC012081318186E8C0
:100AD00090E0FC0180819181280F391F8C819D81DC
:100AE00088519C4F2817390760F21A82FBC019827F
:100AF0001DC08981882F90E02A81422F50E02981F2
:100B0000222F30E0440F551F440F551F240F351F6F
:100B100025533C4FF90140819E01245F3F4F820FD6
:100B2000931FFC01408389818F5F89838981843091
:100B300000F384E089830DC08981882F90E09E01B5
:100B4000245F3F4F820F931FFC01108289818F5FCA
:100B5000898389818C3080F3CE010C9664E00E94F9
:100B60005B191982AFC09E01285E3F4FCE010C96E3
:100B7000049648E0B9010E940A19CE01489666E041
:100B80000E9484069B878A878E8D882F90E0382F5D
:100B900022278F8D882F90E0282B392B8A859B85E3
:100BA0002817390709F088C08A81282F30E0C90149
:100BB000880F991F820F931F880F991FAC0189819D
:100BC000282F30E0C901880F991F820F931F880FCB
:100BD000991F880F991F880F991F840F951F9C01DB
:100BE00088A199A1820F931F298D222F30E0522FC7
:100BF0004427288D222F30E0242B352BFC01318314
:100C000020838A81282F30E0C901880F991F820F25
:100C1000931F880F991FAC018981282F30E0C901EB
:100C2000880F991F820F931F880F991F880F991F94
:100C3000880F991F840F951F029628A139A1820F52
:100C4000931F2B8D222F30E0522F44272A8D222FE5
:100C500030E0242B352BFC01318320838A81282F1F
:100C600030E0C901880F991F820F931F880F991FC9
:100C7000AC018981282F30E0C901880F991F820FAC
:100C8000931F880F991F880F991F880F991F840F32
:100C9000951F049628A139A1820F931F2D8D222F15
:100CA00030E0522F44272C8D222F30E0242B352B7F
:100CB000FC013183208303C081E08B8307C08981DD
:100CC0008F5F89838981843008F44DCF88E290E07A
:100CD00028E230E0F90120812260FC0120838A8132
:100CE0008F5F8A838A81843008F401CF8B81A1963B
:100CF0000FB6F894DEBF0FBECDBFDF91CF91FF904E
:100D0000EF90DF90CF900895CF93DF93CDB7DEB70C
:100D100028970FB6F894DEBF0FBECDBF9F838E839A
:100D2000688780E190E09A8389831B822CC0898147
:100D30009A819C01220F232F221F330B31958B8127
:100D4000882F90E04E815F81840F951FFC01808188
:100D5000882F90E08227932799279D838C83898110
:100D60009A81382F22278C819D81880F991F875A5D
:100D70009E4FFC0180819181822793279A838983EA
:100D80008B818F5F8B839B818885981780F2898107
:100D90009A81880F991F28960FB6F894DEBF0FBE70
:100DA000CDBFDF91CF9108950F931F93CF93DF9322
:100DB000CDB7DEB769970FB6F894DEBF0FBECDBFD3
:100DC000998B888B7B8B6A8B5D8B4C8B3F8B2E8BAF
:100DD000198F088F80E593EC9A8389831C821B828C
:100DE0001D821E821F8218861B86CE010C960E94D1
:100DF000DB0E198606C11A86F0C08985882F90E01F
:100E0000880F991F875C9E4FFC01808191812A8504
:100E1000422F50E021E030E002C0220F331F4A95FC
:100E2000E2F782239323892B51F18985282F30E023
:100E3000C901880F991F820F931F880F991F880F70
:100E4000991F9C018A85882F90E0820F931F880F3D
:100E5000991F28893989820F931FFC018081918114
:100E6000CC01A0E0B0E02D813E814F815885820FFA
:100E7000931FA41FB51F8D839E83AF83B887898579
:100E8000282F30E0C901880F991F820F931F880F08
:100E9000991F880F991F9C018A85882F90E0820FE7
:100EA000931F880F991F28893989820F931FFC018E
:100EB0002081318189819A8128173907B0F5898588
:100EC000882F90E0880F991F875C9E4FFC018081DE
:100ED00091812A85422F50E021E030E002C0220FAC
:100EE000331F4A95E2F782239323892BF1F08985FA
:100EF000282F30E0C901880F991F820F931F880F98
:100F0000991F880F991F9C018A85882F90E0820F76
:100F1000931F880F991F28893989820F931FFC011D
:100F2000808191819A83898355C08985282F30E0FB
:100F3000C901880F991F820F931F880F991F880F6F
:100F4000991F9C018A85882F90E0820F931F880F3C
:100F5000991F28893989820F931FFC0120813181D3
:100F60008B819C8182179307A8F58985882F90E053
:100F7000880F991F875C9E4FFC01808191812A8593
:100F8000422F50E021E030E002C0220F331F4A958B
:100F9000E2F782239323892BE9F08985282F30E01B
:100FA000C901880F991F820F931F880F991F880FFF
:100FB000991F9C018A85882F90E0820F931F880FCC
:100FC000991F28893989820F931FFC0180819181A3
:100FD0009C838B838A858F5F8A878A858C3008F40F
:100FE0000CCF8985882F90E09E01245F3F4F820FB0
:100FF000931FFC0180819B85890F8B8789858F5F7B
:1010000089878985843008F4F6CE8B85282F30E0D7
:1010100040E050E08D819E81AF81B885BC01CD015B
:101020000E94631DDA01C9018D839E83AF83B88757
:101030008A899B892B813C81FC01318320838C89A7
:101040009D8929813A81FC01318320832D813E8154
:101050008E899F89FC0131832083888D998D2B8512
:10106000FC012083000069960FB6F894DEBF0FBE26
:10107000CDBFDF91CF911F910F910895CF93DF9353
:10108000CDB7DEB760970FB6F894DEBF0FBECDBF09
:101090009A8789877C876B875E874D87388B2F87F8
:1010A000CE0105960E94DB0E1C82A9C01A8219820D
:1010B0001B8290C08C81282F30E0C901880F991FB6
:1010C000820F931F880F991F880F991F9C018B8196
:1010D000882F90E0820F931F880F991F29853A85EA
:1010E000820F931FFC01208131818B859C858C5957
:1010F0009F4F2817390708F46AC08C81282F30E0E9
:10110000C901880F991F820F931F880F991F880F9D
:10111000991F9C018B81882F90E0820F931F880F6D
:10112000991F29853A85820F931FFC012081318107
:101130008D859E858C599F4F8217930708F047C075
:101140008C81282F30E0C901880F991F820F931FCF
:10115000880F991F880F991F9C018B81882F90E021
:10116000820F931F880F991F29853A85820F931F3D
:10117000FC01808191818133954748F18C81882FD2
:1011800090E0880F991F875C9E4FFC0180819181C0
:101190002B81422F50E021E030E002C0220F331FAC
:1011A0004A95E2F782239323892B89F08B81282F9C
:1011B00030E081E090E002C0880F991F2A95E2F7A5
:1011C0009C0189819A81822B932B9A8389838B81BD
:1011D0008F5F8B838B818C3008F46CCF8C81882F50
:1011E00090E0880F991F2F853889820F931F2981DE
:1011F0003A81FC01318320838C818F5F8C838C81C9
:10120000843008F453CF000060960FB6F894DEBF28
:101210000FBECDBFDF91CF910895CF93DF93CDB7B0
:10122000DEB761970FB6F894DEBF0FBECDBF9B87C8
:101230008A877D876C875F874E87398B288B1D82D5
:10124000CE0106960E94DB0E1C82ACC01A82198267
:101250001B8293C08C81282F30E0C901880F991F11
:10126000820F931F880F991F880F991F9C018B81F4
:10127000882F90E0820F931F880F991F2A853B8546
:10128000820F931FFC01208131818C859D858853BD
:101290009F4F2817390708F46DC08C81282F30E044
:1012A000C901880F991F820F931F880F991F880FFC
:1012B000991F9C018B81882F90E0820F931F880FCC
:1012C000991F2A853B85820F931FFC012081318164
:1012D0008E859F8588539F4F8217930708F04AC0D9
:1012E0008C81282F30E0C901880F991F820F931F2E
:1012F000880F991F880F991F9C018B81882F90E080
:10130000820F931F880F991F2A853B85820F931F99
:10131000FC01808191818133954760F18C81882F18
:1013200090E0880F991F875C9E4FFC01808191811E
:101330002B81422F50E021E030E002C0220F331F0A
:101340004A95E2F782239323892BA1F08B81282FE2
:1013500030E081E090E002C0880F991F2A95E2F703
:101360009C0189819A81822B932B9A8389838D8119
:101370008F5F8D838B818F5F8B838B818C3008F4A3
:1013800069CF8C81882F90E0880F991F288939892F
:10139000820F931F29813A81FC01318320838C8144
:1013A0008F5F8C838C81843008F450CF8D8161965F
:1013B0000FB6F894DEBF0FBECDBFDF91CF91089579
:1013C000CF93DF93CDB7DEB728970FB6F894DEBF83
:1013D0000FBECDBF88871C82198256C0CE010496ED
:1013E00061E00E945B1988E290E028E230E0F901B8
:1013F00020812260FC01208384E890E0FC01808150
:1014000091819093C4038093C30300008091C30330
:101410009091C4039C01275E3F4F84E890E0FC015B
:10142000808191812817390760F084E890E0FC0101
:10143000208131818091C3039091C4038217930767
:1014400028F384E890E0FC01208131818091C3037E
:101450009091C40328173907A0F484E890E0FC01B8
:101460002081318186E890E0FC0180819181280F04
:10147000391F8091C3039091C403499628173907F7
:1014800028F289818F5F89838981843008F4A6CF0F
:1014900085E08C8380E68D838885882F90E0092EF7
:1014A000000CAA0BBB0B40E050E026E030E0841BB0
:1014B000950B28173907F0F0825C9F4FFC010C94C4
:1014C000851D8D8181608D8315C08D8182608D83A6
:1014D00011C08D8183608D830DC08D8184608D836B
:1014E00009C08D8185608D8305C08D8186608D8367
:1014F00001C00000CE01049662E00E9484069B8336
:101500008A838A819B81892F99278E838A818F8301
:10151000CE01049664E00E945B1988E290E028E224
:1015200030E0F90120812260FC0120830000289630
:101530000FB6F894DEBF0FBECDBFDF91CF910895F7
:101540002F923F924F925F926F927F928F929F92D3
:10155000AF92BF92CF92DF92EF92FF920F931F93C1
:10156000CF93DF93CDB7DEB7AF970FB6F894DEBF5A
:101570000FBECDBF8FA38FA18E831A821B821C82C8
:101580001D828E810E94E00919823FC084E890E0AC
:10159000FC018081918198878F8300008F819885DD
:1015A0009C01265D3C4F84E890E0FC0180819181A4
:1015B0002817390750F084E890E0FC012081318140
:1015C0008F8198858217930748F384E890E0FC01A7
:1015D000208131818F8198852817390798F484E814
:1015E00090E0FC012081318186E890E0FC0180815F
:1015F0009181280F391F8F8198858C579C4F281710
:10160000390760F289818F5F89838981873008F487
:10161000BDCF1B8A8CE08C8BCE01439662E00E948A
:1016200084069A87898789859A85892F99278D8B42
:1016300089858E8B84E089830DC08981882F90E015
:101640009E012D5E3F4F820F931FFC011082898106
:101650008F5F898389818C3080F3CE01439664E06B
:101660000E945B1919826EC09E01215E3F4FCE0120
:101670004396049648E0B9010E940A19CE014F969C
:1016800066E00E9484069A8789878DA1882F90E062
:10169000382F22278EA1882F90E0282B392B89857F
:1016A0009A852817390709F03FC08981882F90E073
:1016B00028A1222F30E0522F44272F8D222F30E0F7
:1016C000242B352B880F991F82549A4FFC013183AC
:1016D00020838981882F90E02AA1222F30E0522F89
:1016E000442729A1222F30E0242B352B0496880F84
:1016F000991F82549A4FFC01318320838981882F5E
:1017000090E02CA1222F30E0522F44272BA1222F32
:1017100030E0242B352B0896880F991F82549A4F5E
:10172000FC01318320830BC088E290E028E230E0A6
:10173000F90120812260FC01208381E023C389819B
:101740008F5F89838981843008F48ECF88E290E0AE
:1017500028E230E0F90120812260FC0120831B8A0D
:101760008EE08C8BCE01439662E00E9484069A87BD
:10177000898789859A85892F99278D8B89858E8B75
:1017800084E089830DC08981882F90E09E012D5EC1
:101790003F4F820F931FFC01108289818F5F8983E5
:1017A00089818C3080F3CE01439664E00E945B19FE
:1017B000198273C09E01215E3F4FCE01439604966D
:1017C00048E0B9010E940A19CE014F9666E00E94D6
:1017D00084069A8789878DA1882F90E0382F222749
:1017E0008EA1882F90E0282B392B89859A85281780
:1017F000390709F040C08981882F90E028A1222F65
:1018000030E0522F44272F8D222F30E0242B352B10
:101810000C96880F991F82549A4FFC0131832083C4
:101820008981882F90E02AA1222F30E0522F44276F
:1018300029A1222F30E0242B352B4096880F991FA9
:1018400082549A4FFC01318320838981882F90E054
:101850002CA1222F30E0522F44272BA1222F30E041
:10186000242B352B4496880F991F82549A4FFC01E4
:10187000318320830FC081E191E00E94E11C88E266
:1018800090E028E230E0F90120812260FC01208311
:1018900081E078C289818F5F89838981843008F4EF
:1018A00089CF88E290E028E230E0F90120812260CF
:1018B000FC01208319821EC28981882F90E008963E
:1018C000880F991F82549A4FFC01808191811C01DD
:1018D000412C512C612C712C43016894AA24A6F848
:1018E0000F2EF2E4BF2EF02D0F2EFFE0CF2EF02DA5
:1018F000D12CE12CF12C00E010E0222D332D442DD1
:10190000552D662D772D882D992D0E948B1DA22E89
:10191000B32EC42ED52EE62EF72E082F192F2A2CE3
:101920003B2C4C2C5D2C6E2C7F2C802E912E80918C
:10193000EA059091EB059C0140E050E060E070E02A
:10194000CB01A22EB32EC42ED52EE62EF72E082FB5
:10195000192F222D332D442D552D662D772D882DB1
:10196000992D0E94E61DA22EB32EC42ED52EE62E52
:10197000F72E082F192FAB86BC86CD86DE86EF8624
:10198000F88A098B1A8BAB84BC84CD84DE84EF8407
:10199000F88809891A892A2D3B2D4C2D5D2D6E2D35
:1019A0007F2D802F912F2F3D364E4B4051056105E5
:1019B00071058105910509F00CF459C08981282F22
:1019C00030E039A728A72B853C854D855E856F853E
:1019D000788989899A89205E364E4B405109610980
:1019E000710981099109222E332E442E552E662E1F
:1019F000772E882E992E0F2EFAEBAF2EF02DBB24CA
:101A0000BA94CC24CA94DD24DA94EE24EA94FF2418
:101A1000FA940FEF1FEF222D332D442D552D662DF7
:101A2000772D882D992D0E94E61DA22EB32EC42E4F
:101A3000D52EE62EF72E082F192F2A2D3B2D4C2DB3
:101A40005D2D6E2D7F2D802F912FDA01C90128A5E4
:101A500039A52C5E3F4F220F331F220F331F225414
:101A60003A4FF90180839183A283B38340C1AB8451
:101A7000BC84CD84DE84EF84F88809891A892A2DF4
:101A80003B2D4C2D5D2D6E2D7F2D802F912F2F31D5
:101A9000304345405105610571058105910509F007
:101AA0000CF459C08981282F30E03BA72AA72B8549
:101AB0003C854D855E856F85788989899A89205E08
:101AC000364E4B4051096109710981099109222E55
:101AD000332E442E552E662E772E882E992E0F2EBD
:101AE000F2E9AF2EF02DBB24BA94CC24CA94DD24A5
:101AF000DA94EE24EA94FF24FA940FEF1FEF222DDC
:101B0000332D442D552D662D772D882D992D0E942E
:101B1000E61DA22EB32EC42ED52EE62EF72E082FAC
:101B2000192F2A2D3B2D4C2D5D2D6E2D7F2D802FB5
:101B3000912FDA01C9012AA53BA52C5E3F4F220F48
:101B4000331F220F331F22543A4FF90180839183B0
:101B5000A283B383CCC0AB84BC84CD84DE84EF8409
:101B6000F88809891A892A2D3B2D4C2D5D2D6E2D63
:101B70007F2D802F912F273D3A4C42405105610522
:101B800071058105910511F00CF059C08981282F4C
:101B900030E03DA72CA72B853C854D855E856F8564
:101BA000788989899A8920513A47474051096109C2
:101BB000710981099109222E332E442E552E662E4D
:101BC000772E882E992E0F2EFDECAF2EF02DBB24F4
:101BD000BA94CC24CA94DD24DA94EE24EA94FF2447
:101BE000FA940FEF1FEF222D332D442D552D662D26
:101BF000772D882D992D0E94E61DA22EB32EC42E7E
:101C0000D52EE62EF72E082F192F2A2D3B2D4C2DE1
:101C10005D2D6E2D7F2D802F912FDA01C9012CA50E
:101C20003DA52C5E3F4F220F331F220F331F22543E
:101C30003A4FF90180839183A283B38358C089818D
:101C4000282F30E03FA72EA72B853C854D855E854C
:101C50006F85788989899A892858374D4940510973
:101C60006109710981099109222E332E442E552EC6
:101C7000662E772E882E992E0F2EF3EBAF2EF02D99
:101C8000BB24BA94CC24CA94DD24DA94EE24EA94DA
:101C9000FF24FA940FEF1FEF222D332D442D552DE5
:101CA000662D772D882D992D0E94E61DA22EB32E2C
:101CB000C42ED52EE62EF72E082F192F2A2D3B2DB8
:101CC0004C2D5D2D6E2D7F2D802F912FDA01C901B6
:101CD0002EA53FA52C5E3F4F220F331F220F331F2F
:101CE00022543A4FF90180839183A283B38389817F
:101CF0008F5F89838981843008F4DECD1A821B824C
:101D00001C821D8219822EC08981882F90E0449602
:101D1000880F991F880F991F82549A4FFC012081C8
:101D20003181428153818A819B81AC81BD8182173F
:101D30009307A407B5079CF48981882F90E0449607
:101D4000880F991F880F991F82549A4FFC01808138
:101D50009181A281B3818A839B83AC83BD83898176
:101D60008F5F89838981843078F28A819B81AC81FD
:101D7000BD8180933E0690933F06A0934006B093AA
:101D8000410680E0AF960FB6F894DEBF0FBECDBF20
:101D9000DF91CF911F910F91FF90EF90DF90CF9047
:101DA000BF90AF909F908F907F906F905F904F907B
:101DB0003F902F900895CF93DF9300D000D0CDB700
:101DC000DEB79C838B83198238C08981882F90E08D
:101DD0002B813C81820F931FFC0110821A8227C045
:101DE0008981882F90E0880F991F875C9E4FFC01A6
:101DF000808191812A81422F50E021E030E002C0B1
:101E0000220F331F4A95E2F782239323892B61F037
:101E10008981882F90E02B813C81820F931FFC01E8
:101E200020812F5FFC0120838A818F5F8A838A81D2
:101E30008C30B0F289818F5F89838981843028F268
:101E400000000F900F900F900F90DF91CF910895A9
:101E5000CF93DF93CDB7DEB780915A03DF91CF9157
:101E60000895CF93DF93CDB7DEB710925A030000E9
:101E7000DF91CF910895CF93DF93CDB7DEB78091F7
:101E80005B03DF91CF910895CF93DF93CDB7DEB79A
:101E900010925B030000DF91CF910895CF93DF9301
:101EA00000D01F92CDB7DEB79B838A8388ED90E088
:101EB000FC0110828A819B81883E934079F482EEF6
:101EC00090E0FC01108283EE90E02AE0FC01208388
:101ED00084EE90E02CE1FC01208339C08A819B8153
:101EE000843F914081F482EE90E022E0FC01208367
:101EF00083EE90E02AE2FC01208384EE90E02AE267
:101F0000FC01208324C08A819B818A3F910581F452
:101F100082EE90E026E0FC01208383EE90E02AE24E
:101F2000FC01208384EE90E02AE2FC0120830FC0B4
:101F300082EE90E02EE0FC01208383EE90E02AE226
:101F4000FC01208384EE90E02AE2FC0120831982C8
:101F5000E4C08DEE90E029812295207FFC01208352
:101F60008EEE90E0FC0110828981843008F0AEC0D2
:101F70008FEE90E020E8FC0120838981882F90E09B
:101F80008130910599F1823091051CF4892B49F03B
:101F9000C1C08230910509F44EC0039709F470C0A6
:101FA000B9C080EF90E0FC01108281EF90E0FC016D
:101FB000108282EF90E0FC01108283EF90E0FC0140
:101FC000108284EF90E02FEFFC01208385EF90E0FA
:101FD0002FEFFC01208386EF90E02FE1FC012083AE
:101FE00087EF90E02FEFFC01208394C080EF90E01A
:101FF000FC01108281EF90E0FC01108282EF90E002
:10200000FC01108283EF90E0FC01108284EF90E0ED
:102010002FEFFC01208385EF90E02FEFFC01208360
:1020200086EF90E02FEFFC01208387EF90E02FEF09
:10203000FC0120836FC080EF90E0FC01108281EFF3
:1020400090E0FC01108282EF90E0FC01108283EFAF
:1020500090E0FC01108284EF90E02FEFFC012083E0
:1020600085EF90E02FEFFC01208386EF90E02FEFCB
:10207000FC01208387EF90E02FEFFC0120834AC012
:1020800080EF90E0FC01108281EF90E0FC01108273
:1020900082EF90E0FC01108283EF90E0FC0110825F
:1020A00084EF90E02FEFFC01208385EF90E02FEF8D
:1020B000FC01208386EF90E02FEFFC01208387EF67
:1020C00090E02FEFFC012083000024C08FEE90E011
:1020D000FC01108280EF90E0FC01108281EF90E023
:1020E000FC01108282EF90E0FC01108283EF90E00F
:1020F000FC01108284EF90E0FC01108285EF90E0FB
:10210000FC01108286EF90E0FC01108287EF90E0E6
:10211000FC01108289818F5F89838981863008F470
:1021200018CF88ED90E022E0FC01208300000F90A2
:102130000F900F90DF91CF910895CF93DF93CDB79C
:10214000DEB761970FB6F894DEBF0FBECDBF9D8797
:102150008C877F876E87598B488B198288899989EC
:102160009B838A831C82BBC08DEE90E02C812295DC
:10217000207FFC0120838CED90E0FC018081882F82
:1021800090E02C81222F30E002C0959587952A950A
:10219000E2F78E838E81882F90E081709927892BBA
:1021A00009F09AC08FEE90E0FC0180818F838F81CF
:1021B000282F2F708E859F85FC0120838E859F851B
:1021C000FC018081893028F08E859F8528E0FC0104
:1021D00020838F81882F90E080719927892B19F5B2
:1021E00083EF90E0FC018081882F90E09C01220F1A
:1021F000331F220F331F220F331F82EF90E0FC01A9
:102200008081829586958770882F90E0820F931F3A
:10221000CC01A0E0B0E02C853D85F901808391835D
:10222000A283B38332C083EF90E0FC0180818B876F
:1022300082EF90E0FC0180818A8781EF90E0FC01D1
:102240008081898780EF90E0FC0180818887888584
:102250009985AA85BB85689412F8B695A795979538
:1022600087951694D1F788879987AA87BB878B852E
:1022700080688B8788859985AA85BB852C853D8557
:10228000F90180839183A283B3831D8210C08A8168
:102290009B819C012F5F3F4F3B832A832AEF30E0D5
:1022A000F9012081FC0120838D818F5F8D838E85D4
:1022B0009F85FC0190818D81891748F38FEE90E016
:1022C00020E8FC0120838CED90E0FC01808180956A
:1022D0008E708160898307C08C818F5F8C838C8135
:1022E000843008F441CF898161960FB6F894DEBF3F
:1022F0000FBECDBFDF91CF910895CF92DF92EF92C5
:10230000FF920F931F93CF93DF93CDB7DEB7609704
:102310000FB6F894DEBF0FBECDBF6C837D838E8376
:102320009F834887C986DA86EB86FC860D871E87E1
:102330002F87388BCE0109969A8389838CED90E0A4
:10234000FC018081882F90E080719927892B31F4DE
:102350008DEE90E020E4FC01208312C08CED90E033
:10236000FC018081882F90E080729927892B31F4BD
:102370008DEE90E020E5FC01208302C080E08BC060
:102380001B8210C02AEF30E089819A81AC014F5F37
:102390005F4F5A834983FC018081F90180838B81DF
:1023A0008F5F8B839B818885981760F38C819D81DB
:1023B000AE81BF81BB231CF180EF90E0FC01108255
:1023C0008C819D81880F991F82959295907F982787
:1023D000807F9827CC01A0E0B0E08C839D83AE8302
:1023E000BF8382EF90E02C81FC01208383EF90E09B
:1023F0002C813D81232F3327FC01208345C08C8114
:102400009D81AE81BF81880F991FAA1FBB1F880FB6
:10241000991FAA1FBB1F880F991FAA1FBB1F8C8360
:102420009D83AE83BF8380EF90E02C81FC012083ED
:1024300021EF30E08C819D81AE81BF818827AA2762
:10244000BB27892F9A2FAB2FBB27F901808322EF5F
:1024500030E08C819D81AE81BF8188279927BB2781
:10246000CD01AA27BB27F901808323EF30E08C81BF
:102470009D81AE81BF818B2F9927AA27BB27F901A8
:1024800080838885805F88878FEE90E02885206430
:10249000FC01208381E060960FB6F894DEBF0FBE8A
:1024A000CDBFDF91CF911F910F91FF90EF90DF9003
:1024B000CF900895CF92DF92EF92FF920F931F93E8
:1024C000CF93DF93CDB7DEB72D970FB6F894DEBF6D
:1024D0000FBECDBFC982DA82EB82FC820D831E83E0
:1024E0002F83388749875A876B877C878D878981B7
:1024F0009A81AB81BC8181309105A105B10529F09C
:102500000397A105B10521F130C08E8181708093C0
:102510005A030E940E1A823049F48E81882F90E06F
:10252000827099279595879580935B038F81813081
:1025300031F48091E90380648093E90305C08091C0
:10254000E9038F7B8093E90388858093BF030DC0E7
:102550008885809375058985809374058A85809325
:1025600073058B8580937205000000002D960FB6D1
:10257000F894DEBF0FBECDBFDF91CF911F910F91B9
:10258000FF90EF90DF90CF9008958F929F92AF923F
:10259000BF92CF92DF92EF92FF920F931F93CF9350
:1025A000DF93CDB7DEB764970FB6F894DEBF0FBEEA
:1025B000CDBF8C8B8C89882F90E082309105E1F122
:1025C000833091051CF4892B49F001C283309105B9
:1025D00009F452C1049709F4A1C1F9C18091E9033A
:1025E0008C870E940E1A8D8782E090E0A0E0B0E018
:1025F0008F839887A987BA8782E08B8700004C85F4
:102600005D856E857F8588899989AA89BB89EB85D7
:102610008F809884A984BA84C42ED52EE62EF72EF6
:10262000082F192F2A2F3B2F4E2FC501B4010E94CE
:102630007D11882321F3CBC180E093E0A0E0B0E0DE
:102640008F839887A987BA87198211C11A8208C116
:102650008981282F30E0C901880F991F820F931FAD
:10266000880F991F880F991FAC018A81282F30E0AD
:10267000C901880F991F820F931F840F951F019620
:10268000880F991F87519C4FFC01808191818C8715
:102690008981282F30E0C901880F991F820F931F6D
:1026A000880F991F880F991FAC018A81282F30E06D
:1026B000C901880F991F820F931F840F951F0196E0
:1026C000880F991F87519C4FFC0180819181892F30
:1026D00099278D878981282F30E0C901880F991F9C
:1026E000820F931F880F991F880F991FAC018A8151
:1026F000282F30E0C901880F991F820F931F840F84
:10270000951F01960196880F991F87519C4FFC01D8
:10271000808191818E878981282F30E0C901880FBF
:10272000991F820F931F880F991F880F991FAC0163
:102730008A81282F30E0C901880F991F820F931FCB
:10274000840F951F01960196880F991F87519C4F02
:10275000FC0180819181892F99278F878981282F7A
:1027600030E0C901880F991F820F931F880F991FAE
:10277000880F991FAC018A81282F30E0C901880F8A
:10278000991F820F931F840F951F02960196880F41
:10279000991F87519C4FFC0180819181888B898191
:1027A000282F30E0C901880F991F820F931F880FCF
:1027B000991F880F991FAC018A81282F30E0C90129
:1027C000880F991F820F931F840F951F0296019601
:1027D000880F991F87519C4FFC0180819181892F1F
:1027E0009927898B9981892F880F890F880F880FE6
:1027F000282F9A81892F880F890F820F8D5F8A8BEE
:102800008091E9038B8B88E08B8700004C855D8588
:102810006E857F8588899989AA89BB89EB858F8098
:102820009884A984BA84C42ED52EE62EF72E082FBC
:10283000192F2A2F3B2F4E2FC501B4010E947D1165
:10284000882321F38F819885A985BA850196A11DDA
:10285000B11D8F839887A987BA878A818F5F8A8302
:102860008A81843008F4F4CE89818F5F89838981DD
:10287000843008F4EBCEABC019824BC08981882F1D
:1028800090E0880F991F8A589A4FFC0180819181AE
:102890008C878981882F90E0880F991F8A589A4FDA
:1028A000FC0180819181892F99278D878091C003B8
:1028B0008E8789818F5F8F878091E903888B85E080
:1028C00090E0A0E0B0E08F839887A987BA8785E081
:1028D0008B8700004C855D856E857F858889998909
:1028E000AA89BB89EB858F809884A984BA84C42E79
:1028F000D52EE62EF72E082F192F2A2F3B2F4E2FDD
:10290000C501B4010E947D11882321F389818F5F65
:1029100089838981843008F4B1CF59C019824EC0AF
:102920008981882F90E0039682959295907F9827D1
:10293000807F98278B529E4F87519C4F092E000C09
:10294000AA0BBB0B8B839C83AD83BE838B818C874F
:102950008C818D878D818E878E818F8789818F5F16
:10296000888B8091E903898B86E090E0A0E0B0E05D
:102970008F839887A987BA8786E08B8700004C856C
:102980005D856E857F8588899989AA89BB89EB8554
:102990008F809884A984BA84C42ED52EE62EF72E73
:1029A000082F192F2A2F3B2F4E2FC501B4010E944B
:1029B0007D11882321F389818F5F89838981843008
:1029C00008F4AECF1B821C821D821E820000000014
:1029D00064960FB6F894DEBF0FBECDBFDF91CF91E6
:1029E0001F910F91FF90EF90DF90CF90BF90AF902D
:1029F0009F908F900895CF92DF92EF92FF920F9366
:102A00001F93CF93DF93CDB7DEB72D970FB6F89412
:102A1000DEBF0FBECDBF8091E503882309F44DC012
:102A20008CED90E0FC018081882F90E080739927E5
:102A3000C09709F442C080915C03873030F48091E4
:102A40005C038F5F80935C0302C010925C038091F3
:102A5000E503882F90E020915C03222F30E002C034
:102A6000959587952A95E2F781709927892B19F317
:102A700080915C030E94C51280915C03282F30E096
:102A800081E090E002C0880F991F2A95E2F78095B7
:102A90009091E50389238093E5030FC0C980DA8014
:102AA000EB80FC800D811E812F81388549855A85F8
:102AB0006B857C858D850E945A129E012A5F3F4F4F
:102AC000CE010596A901BC01CE0101960E949D1080
:102AD000882321F700002D960FB6F894DEBF0FBEB5
:102AE000CDBFDF91CF911F910F91FF90EF90DF90BD
:102AF000CF900895CF93DF931F92CDB7DEB7898330
:102B00008981882F90E0092E000CAA0BBB0B45E6AB
:102B100050E02EE630E0841B950B2817390708F4A7
:102B2000EBC08B5B9F4FFC010C94851D8AE290E00B
:102B30002AE230E0F90120812160FC012083DCC021
:102B400087E290E027E230E0F90120812160FC017A
:102B50002083D2C08AE290E02AE230E0F9012081AD
:102B60002460FC012083C8C087E290E027E230E0C7
:102B7000F90120812260FC012083BEC084E290E044
:102B800024E230E0F90120812064FC012083B4C0FC
:102B90008AE290E02AE230E0F90120812860FC011D
:102BA0002083AAC084E290E024E230E0F901208191
:102BB0002160FC012083A0C084E290E024E230E0A8
:102BC000F90120812260FC01208396C084E290E01C
:102BD00024E230E0F90120812068FC0120838CC0D0
:102BE0008AE290E02AE230E0F90120812061FC01D4
:102BF000208382C08DE290E02DE230E0F901208157
:102C00002460FC01208378C08AE290E02AE230E070
:102C1000F90120812062FC0120836EC08AE290E0ED
:102C20002AE230E0F90120812064FC01208364C0A5
:102C300084E290E024E230E0F90120812460FC018C
:102C400020835AC087E290E027E230E0F90120813A
:102C50002061FC01208350C087E290E027E230E051
:102C6000F90120812062FC01208346C087E290E0C8
:102C700027E230E0F90120812064FC0120833CC080
:102C800084E290E024E230E0F90120812062FC013E
:102C9000208332C087E290E027E230E0F901208112
:102CA0002068FC01208328C084E290E024E230E028
:102CB000F90120812061FC0120831EC084E290E0A4
:102CC00024E230E0F90120812860FC01208314C057
:102CD0008AE290E02AE230E0F90120812260FC01E2
:102CE00020830AC08AE290E02AE230E0F9012081E4
:102CF0002068FC012083000000000F90DF91CF913D
:102D00000895CF93DF93CDB7DEB780915D03DF9158
:102D1000CF910895CF93DF93CDB7DEB780915E0357
:102D2000DF91CF910895CF93DF93CDB7DEB7809138
:102D30000001882301F183E290E0FC018081882F6B
:102D400090E080719927892B19F010925D0303C0E0
:102D500081E080935D0383E290E0FC018081882F15
:102D600090E088709927892B19F010925E0303C0B8
:102D700081E080935E030000DF91CF910895CF93AF
:102D8000DF93CDB7DEB780915F03DF91CF910895D8
:102D9000CF93DF9300D000D0CDB7DEB769837A83BD
:102DA0008B839C8389819A81AB81BC81181619061B
:102DB0001A061B062CF489819A81AB81BC810BC059
:102DC00089819A81AB81BC81B095A09590958195C0
:102DD0009F4FAF4FBF4FBC01CD010F900F900F9091
:102DE0000F90DF91CF910895CF93DF93CDB7DEB7EA
:102DF000809101018823C9F080917205909173053B
:102E0000A0917405B0917505BC01CD010E94C81652
:102E1000DC01CB01813F9944A240B10520F081E063
:102E200080935F0302C010925F030000DF91CF9197
:102E30000895CF93DF93CDB7DEB780916003DF9124
:102E4000CF910895CF93DF93CDB7DEB78091610323
:102E5000DF91CF910895CF93DF93CDB7DEB7809107
:102E60006203DF91CF9108950F931F93CF93DF9368
:102E700000D0CDB7DEB780910201882309F4CAC023
:102E80008BEE93E00E94F704882309F0B5C01092FE
:102E900065031092620301E715E02FE635E04DE689
:102EA00055E06BE675E08BEE93E00E94D4068091CE
:102EB0006D0590916E05893A914638F080916B05C9
:102EC00090916C058031944A78F0809164038F5F13
:102ED0008093640380916403853050F081E0809397
:102EE00061031092640304C01092610310926403A2
:102EF00080E00E94A00A882309F06FC080913E06FE
:102F000090913F06A0914006B091410680379741CD
:102F1000A105B1057CF0809163038F5F809363030B
:102F200080916303853050F01092630381E08093B9
:102F3000600304C010926303109260038091E50364
:102F400080618093E5034091BA055091BB05809163
:102F50006D0590916E0526E935E0BC018BEE93E09E
:102F60000E940D098093C0038091E903882F90E0AF
:102F700080749927892B89F04091BA055091BB053F
:102F800080916D0590916E0526E735E0BC018BEED2
:102F900093E00E943E080E9452028091E903882F2C
:102FA00090E080749927892BA9F50E9452021A8219
:102FB00019820EC089819A81880F991F8A589A4F69
:102FC000FC011182108289819A8101969A838983FA
:102FD00089819A81049774F31DC0809165038F5F86
:102FE00080936503809165038530A0F0109265039E
:102FF00081E0809362030EC0809165038F5F8093B0
:10300000650380916503853028F01092650381E0A7
:103010008093620300000F900F90DF91CF911F917A
:103020000F910895CF93DF931F92CDB7DEB78983B9
:1030300084E290E024E230E0F90120812268FC0182
:1030400020838AE290E02AE230E0F90120812860C2
:10305000FC0120838981882F90E08031910509F45B
:1030600044C0813191054CF48430910501F18830E0
:10307000910561F1029761F074C08034910509F403
:1030800052C08038910509F45DC08097E9F169C0AC
:103090008DE490E02DE430E0F90120812160FC0115
:1030A00020838CE490E020E5FC0120835AC08DE46D
:1030B00090E02DE430E0F90120812E7FFC01208397
:1030C0008CE490E020E5FC0120834BC08DE490E08F
:1030D0002DE430E0F90120812160FC0120838CE4A3
:1030E00090E021E5FC0120833CC08DE490E02DE4DC
:1030F00030E0F90120812E7FFC0120838CE490E0F8
:1031000021E5FC0120832DC08DE490E02DE430E02A
:10311000F90120812160FC0120838CE490E022E50C
:10312000FC0120831EC08DE490E02DE430E0F90125
:1031300020812E7FFC0120838CE490E022E5FC01BD
:1031400020830FC08DE490E02DE430E0F901208170
:103150002E7FFC0120838CE490E023E5FC0120839A
:1031600000008CE490E02CE430E0F90120812C6038
:10317000FC01208300000F90DF91CF910895CF9341
:10318000DF9300D000D01F92CDB7DEB79C838B8336
:103190006D8388E290E028E230E0F90120812D7F04
:1031A000FC0120831A82198224C08EE490E02981D8
:1031B0003A814B815C81240F351FF9012081FC018C
:1031C000208300008DE490E0FC0180818823D4F707
:1031D00089819A812B813C81820F931F2EE430E0FC
:1031E000F9012081FC01208389819A8101969A83CB
:1031F00089838D81282F30E089819A8182179307F6
:10320000A4F200000F900F900F900F900F90DF919D
:10321000CF910895CF93DF93CDB7DEB727970FB641
:10322000F894DEBF0FBECDBF9C838B837E836D83FE
:103230004F8388E290E028E230E0F90120812D7F81
:10324000FC0120831A82198224C08EE490E0298137
:103250003A814B815C81240F351FF9012081FC01EB
:10326000208300008DE490E0FC0180818823D4F766
:1032700089819A812D813E81820F931F2EE430E057
:10328000F9012081FC01208389819A8101969A832A
:1032900089838F81282F30E089819A818217930753
:1032A000A4F2000027960FB6F894DEBF0FBECDBF84
:1032B000DF91CF910895CF93DF9300D000D01F927C
:1032C000CDB7DEB79C838B836D8388E290E028E2E4
:1032D00030E0F90120812D7FFC0120831A821982C0
:1032E00018C08EE490E029813A814B815C81240FE3
:1032F000351FF9012081FC01208300008DE490E05E
:10330000FC0180818823D4F789819A8101969A8370
:1033100089838D81282F30E089819A8182179307D4
:1033200004F300000F900F900F900F900F90DF911B
:10333000CF910895CF93DF93CDB7DEB788E290E0C9
:1033400028E230E0F90120812260FC0120830000A6
:10335000DF91CF9108951F920F9200905F000F921E
:1033600011242F933F934F935F936F937F938F938A
:103370009F93AF93BF93EF93FF93CF93DF93CDB71B
:10338000DEB72091690330916A038091660391E072
:10339000980F90936603882F90E0820F931F2EE47E
:1033A00030E0F9012081FC01208390916603809137
:1033B0006803981770F0109267038CE490E02CE497
:1033C00030E0F90120812F77FC0120830E949A19B7
:1033D00010C08EE490E04091690350916A032091FF
:1033E0006603222F30E0240F351FF9012081FC01F4
:1033F00020830000DF91CF91FF91EF91BF91AF91BA
:103400009F918F917F916F915F914F913F912F91FC
:103410000F9000925F000F901F901895CF93DF934D
:10342000CDB7DEB780916B03DF91CF910895EF9216
:10343000FF920F931F93CF93DF93CDB7DEB78091A9
:103440006D03882F90E0009719F0019751F067C045
:103450000E94280F813009F067C081E080936D03DE
:1034600063C08091090190910A01892B81F00E942B
:10347000F41BDC01CB0180936E0390936F03A09348
:103480007003B093710310920A01109209010E9417
:1034900022178130A1F00E94BF16813081F00E9476
:1034A0008116813061F00E941917813041F00E942D
:1034B0008A16813021F00E942B17813059F40E9426
:1034C000310F10926D0381E090E090930A01809398
:1034D00009012CC00E94F41B9B01AC0180916E037A
:1034E00090916F03A0917003B091710379018A01EB
:1034F000E81AF90A0A0B1B0BD801C701843F914057
:10350000A105B10598F081E080936C0381E090E023
:1035100090930A018093090110926D0307C01092E5
:103520006C0310926D0303C0000001C00000809185
:103530006C03882361F081E080936B038EE290E05E
:103540002EE230E0F90120812460FC01208300009C
:10355000DF91CF911F910F91FF90EF900895CF933E
:10356000DF93CDB7DEB70E9422178130A1F00E9411
:10357000BF16813081F00E948116813061F00E9477
:103580001917813041F00E948A16813021F00E9483
:103590002B17813079F48EE290E02EE230E0F901D1
:1035A00020812B7FFC01208310926C0382E08093AA
:1035B0006B0311C00E94280F882369F48EE290E00B
:1035C0002EE230E0F90120812B7FFC012083109254
:1035D0006B0310926C030000DF91CF910895CF939D
:1035E000DF93CDB7DEB70E943B0F813031F41092EC
:1035F0006B030E94310F0E94440F0000DF91CF91B6
:103600000895CF93DF93CDB7DEB780916B03882FFA
:1036100090E0880F991F8D5F9E4FFC018081918102
:10362000FC0109950000DF91CF910895CF93DF93BE
:10363000CDB7DEB780E890E020E830E0F9012081E6
:103640002260FC01208381E890E021E830E0F9016C
:1036500020812A61FC01208386E890E020ED37E09C
:10366000FC01318320838FE690E02FE630E0F90102
:1036700020812160FC01208378940000DF91CF91AC
:103680000895CF93DF93CDB7DEB780917903882378
:1036900021F00E94051C1092790380917A038823FF
:1036A00021F00E94111C10927A0380917B038823E1
:1036B00021F00E941B1C10927B030000DF91CF9130
:1036C00008951F920F9200905F000F9211242F9384
:1036D0008F939F93AF93BF93CF93DF93CDB7DEB715
:1036E0008091720390917303A0917403B09175035C
:1036F0000196A11DB11D8093720390937303A09353
:103700007403B093750381E08093760380910B017D
:1037100090910C01883E934050F480910B01909160
:103720000C01019690930C0180930B0109C081E07C
:1037300080937C0381E090E090930C0180930B01D7
:1037400080910D01853030F480910D018F5F809361
:103750000D013CC081E080930D0181E080937703EF
:1037600080910B0190910C0181709927892B71F543
:1037700081E08093780380910E01853030F4809150
:103780000E018F5F80930E0121C081E080930E01B6
:1037900081E08093790380910B0190910C018270FC
:1037A0009927892B99F481E080937A0380910F0106
:1037B000853030F480910F018F5F80930F0106C038
:1037C00081E080930F0181E080937B030000DF9113
:1037D000CF91BF91AF919F918F912F910F900092B8
:1037E0005F000F901F901895CF93DF93CDB7DEB792
:1037F0008091720390917303A0917403B09175034B
:10380000BC01CD01DF91CF910895CF93DF93CDB768
:10381000DEB70E9493160E94F4160000DF91CF914C
:103820000895CF93DF93CDB7DEB70E943417000021
:10383000DF91CF910895CF93DF93CDB7DEB780911D
:10384000E50381608093E5030000DF91CF91089547
:10385000CF93DF93CDB7DEB78CE60E947A1588E26E
:1038600090E028E230E0F90120812260FC01208311
:1038700083ED0E947A158EE290E02EE230E0F901AD
:1038800020812B7FFC01208360E072EC81E090E0DE
:103890000E94771C84EF91E00E944E0F80E20E940C
:1038A000121860E174EA88EA91E60E94D3008091E0
:1038B000E50381608093E50384E191E00E94E11CCF
:1038C00086E191E00E94E11C0000DF91CF91089514
:1038D000CF93DF93CDB7DEB70E94161B0E94281C42
:1038E0000E94011B0E94FB140E94411BF9CF0F9301
:1038F0001F93CF93DF9300D000D0CDB7DEB769839D
:103900007A838B839C8388EC90E028EC30E0F9018B
:1039100020812068FC0120830DEC10E080E291EA18
:10392000A7E0B0E029813A814B815C81BC01CD01E7
:103930000E94631DDA01C9010197F8019183808318
:1039400088EC90E028EC30E0F90120812F60FC0148
:1039500020838AE290E02AE230E0F90120812860A9
:10396000FC0120838AE290E02AE230E0F901208124
:103970002F7EFC01208300000F900F900F900F907E
:10398000DF91CF911F910F910895CF93DF931F92F5
:10399000CDB7DEB7898389EC90E0FC018081882F68
:1039A00090E080719927892B39F482ED90E029818C
:1039B000FC01208381E001C080E00F90DF91CF9176
:1039C0000895CF93DF9300D0CDB7DEB79A83898374
:1039D0000EC0000089819A81FC0180810E94C51C73
:1039E0008823C1F389819A8101969A838983898189
:1039F0009A81FC018081882361F700000F900F906D
:103A0000DF91CF9108951F920F9200905F000F9267
:103A100011242F933F938F939F93EF93FF93CF9313
:103A2000DF93CDB7DEB789EC90E0FC018081882F71
:103A300090E082709927892BB9F19091BE03809113
:103A4000BD039817E1F082ED90E02091BE03222F94
:103A500030E023583C4FF9012081FC012083809104
:103A6000BE03882F90E001968034910524F4809164
:103A7000BE038F5F01C080E08093BE0315C081E06C
:103A8000809310018AEC90E02AEC30E0F90120816B
:103A90002D7FFC01208389EC90E029EC30E0F901D6
:103AA00020812260FC0120830000DF91CF91FF91F3
:103AB000EF919F918F913F912F910F9000925F0016
:103AC0000F901F901895A1E21A2EAA1BBB1BFD0197
:103AD0000DC0AA1FBB1FEE1FFF1FA217B307E407ED
:103AE000F50720F0A21BB30BE40BF50B661F771F45
:103AF000881F991F1A9469F7609570958095909525
:103B00009B01AC01BD01CF010895EE0FFF1F059091
:103B1000F491E02D0994DF93CF931F930F939A9D17
:103B2000F02D219FF00D8B9DF00D8A9DE02DF10D64
:103B3000039FF00D029FE00DF11D4E9DE00DF11D64
:103B40005E9DF00D4F9DF00D7F936F93BF92AF92EE
:103B50005F934F93D5010E94BB1E8B01AC01D7012F
:103B60000E94BB1EEB01E80FF91FD6010E94DB1D6E
:103B70002F913F91D6010E94BB1EC60FD71FE81F91
:103B8000F91FAF91BF910E94DB1D2F913F910E94C1
:103B9000BB1EC60FD71FE81FF91FD6010E94BB1E10
:103BA000E60FF71F9801BE01CF0111240F911F915D
:103BB000CF91DF9108950E94BB1E460F571FC81F6B
:103BC000D91F08F431960895689401C0E894F92F3C
:103BD000F12B12F00C94181EA0E0B0E0E2EFFDE132
:103BE0000C948A1E092E059422F40E94741E11233F
:103BF00092F4F0E80F26FFEFE094F0940095109512
:103C0000B094C094D094A194BF0ACF0ADF0AEF0AFF
:103C1000FF0A0F0B1F0B0E94231E07FC0E94741E3D
:103C2000CDB7DEB7ECE00C94A61E689401C0E89412
:103C30008F929F92CF93DF930E94231EDF91CF91AB
:103C40009F908F90089588249924F401E401B0E4B2
:103C50009F93AA279A158B049C04ED05FE05CF05BA
:103C6000D007A10798F4AD2FDC2FCF2FFE2FE92D21
:103C7000982C892E982F872F762F652F542F432F1E
:103C8000322F2227B85031F7BF9127C01B2EBF918A
:103C9000BB27220F331F441F551F661F771F881F26
:103CA000991F881C991CEE1FFF1FCC1FDD1FAA1F28
:103CB000BB1F8A149B04EC05FD05CE05DF05A0079C
:103CC000B10748F08A189B08EC09FD09CE09DF0905
:103CD000A00BB10B21601A94E1F62EF49401AF0110
:103CE000BE01CD01000C089560957095809590956A
:103CF00030954095509521953F4F4F4F5F4F6F4FF7
:103D00007F4F8F4F9F4F08952F923F924F925F9218
:103D10006F927F928F929F92AF92BF92CF92DF92DB
:103D2000EF92FF920F931F93CF93DF93CDB7DEB740
:103D3000CA1BDB0B0FB6F894DEBF0FBECDBF0994D4
:103D40002A88398848885F846E847D848C849B842B
:103D5000AA84B984C884DF80EE80FD800C811B8139
:103D6000AA81B981CE0FD11D0FB6F894DEBF0FBE68
:103D7000CDBFED010895A29FB001B39FC001A39FE5
:103D8000700D811D1124911DB29F700D811D112494
:083D9000911D0895F894FFCF86
:103D9800010101171AAF1AEF1A0100010001010110
:103DA800014632000C004156522D496E6974696112
:103DB8006C6973696572756E67206572666F6C678A
:103DC8007265696368210D0A00FF01FF00FF01FFAA
:103DD80000FF01FF00FF01FF00FF01FF00FF01FFDF
:103DE80000FF01FF00FF01FF00000099C5ABCE32C4
:103DF8000BCFD8561D6416FDD307F49E31AC3A3567
:103E0800FFC82C51E963E2FA2797AD0E683C63A519
:103E1800A65875C1B0F3BB6A7E9059099C3B97A21E
:103E2800525F81C644F44F6D8A2E5BB79E85951C00
:103E380050E18378464A4DD38829AFB06A82611B26
:103E4800A4E6777FB24DB9D47CB9F6203312388B0B
:103E5800FD762EEFEBDDE04425BE0227C715CC8C9E
:103E68000971DAE81FDA1443D1C5F35C366E3DF701
:103E7800F80A2B93EEA1E53820C2075BC269C9F0A6
:103E88000C0DDF941AA6113FD4525ECB9BF99060BB
:103E9800559D8604433648AF8D55AACC6FFE64679E
:103EA800A19A7203B731BCA879EBA8726D4066D9A4
:103EB800A32470BDB58FBE167BEC5C75994792DE66
:103EC800572384BA41884A118F7C05E5C0D7CB4E69
:103ED8000EB3DD2A18181381D67BF1E234D03F499E
:103EE800FAB4292DEC1FE7862213A28A67B86C2141
:103EF800A9DC7A45BF77B4EE7114568D93BF982626
:103F08005DDB8E424B7040E985840F1DCA2FC1B618
:103F1800044BD7D212E01979DC83FB1A3E2835B15D
:103F2800F04C23D5E6E7ED7E283DF9A43C96370F03
:103F3800F2F2216BE459EFC02A3A0DA3C891C308E5
:103F480006F5D56C105E1BC7DEAA543391019A980A
:103F58005F658CFC49CE425787ADA03465066E9FDD
:103F6800AB6278FBBDC9B65073D6514F947D9FE4C0
:103F78005A1989804CB2472B82D1A548607A6BE3E5
:103F8800AE1E7D87B8B5B32C7641FCD839EA3273BA
:103F9800F78E2417E125EABC2F4608DFCDEDC6745D
:103FA8000389D01015221EBBDBF80A61CF53C4CA9F
:103FB8000137D2AE179C1C05D9FFFE663B5430CDA5
:103FC800F53026A9E39BE8022D6FA7F662C4695D68
:103FD800ACA07F39BA0BB192746853F196C39D5A5D
:0A3FE80058A78B3E4E0C4595800053
:00000001FF
