S0240000424D535F4D61737465725F57656C7A6D696C6C65725F365F322831292E7372656325
S11300000C94AD000C94CA000C94CA000C94CA0061
S11300100C94CA000C94CA000C94CA000C94CA0034
S11300200C94CA000C94CA000C94CA000C94CA0024
S11300300C94CA000C94CA000C94F70E0C94CA00D9
S11300400C94CA000C94CA000C94CA000C94CA0004
S11300500C94EC0F0C94CA000C94CA000C94CA00C3
S11300600C94CA000C94CA000C949B0E0C94CA0005
S11300700C94CA000C94CA000C94CA000D0D170D00
S11300800F0D320D050D070D090D0B0D110D130D7F
S1130090150D2B0D2D0D2F0D310D320D320D320D91
S11300A0320D320D320D320D320D320D320D320D54
S11300B0320D320D320D320D320D320D320D320D44
S11300C0320D320D320D320D320D320D320D320D34
S11300D0320D320D320D320D320D320D320D320D24
S11300E0320D320D320D320D320D320D320D320D14
S11300F0320D320D320D320D320D320D320D320D04
S1130100320D320D320D320D320D320D320D320DF3
S1130110320D320D320D320D320D320D320D320DE3
S1130120320D320D320D320D320D320D320D320DD3
S1130130320D320D320D320D320D320D320D320DC3
S1130140320D320D320D290D320D270D250D230DE3
S1130150210D1F0D1D0D1B0D190D11241FBECFEFF9
S1130160D0E1DEBFCDBF13E0A0E0B1E0EAE2F3E20C
S113017002C005900D92AA36B107D9F726E0AAE687
S1130180B3E001C01D92AD34B207E1F70E94AA0F9B
S11301900C9493110C940000CF93DF93EC01FB01BA
S11301A088819981009749F0929582958F7089276B
S11301B09F70892701979983888380819181929583
S11301C082958F7089279F70892791838083A9ECFA
S11301D0B3E084E28C93888111968C931197888183
S11301E0998188279F7080818295807F892B1296C0
S11301F08C93129780819181807F9F7092958295D4
S11302008F7089279F70892713968C931397149660
S11302101C92149715961C92888199810196829557
S11302209295907F9827807F9827998388838081EF
S1130230918182959295907F9827807F98279183CA
S11302408083DF91CF910895E9ECF3E084838827DC
S11302509F706295607F692B65830895DF92EF92AA
S1130260FF920F931F93CF93DF9300D000D0CDB7AD
S1130270DEB719826894DD24D2F804E810E00F2E6A
S1130280F6E8EF2EF12CF02D61E0CE0101960E94EC
S1130290890E419AF801408151815093C8034093DB
S11302A0C7039A01275E3F4FF80180819181281787
S11302B0390728F08081918148175907A8F3F8017C
S11302C0808191818417950750F460817181F701D1
S11302D080819181860F971F8217930728F3DA9400
S11302E0D110D2CF83E0898380E68A8384EF8B8325
S11302F08CE68C8364E0CE0101960E94890E419ABB
S11303000F900F900F900F90DF91CF911F910F914D
S1130310FF90EF90DF900895662309F1DC016150AE
S1130320462F50E04F5F5F4F480F591F80E190E028
S11303306D91382F2227FC01EE0FEF2FEE1FFF0BDC
S1130340F195E627FF27EE0FFF1FE45FFE4F808144
S1130350918182279327A417B50751F702C080E142
S113036090E0880F991F08950F931F93CF93DF9305
S1130370EC01442319F0653080F41BC0188282E03C
S1130380898362E0CE010E948C019A838B8364E0AE
S1130390CE010E94890E80E029C0FC01349665508C
S11303A0862F90E005968C0F9D1F1192E817F90790
S11303B0E1F768E08E010C5F1F4FC8010E94610ED7
S11303C066E0C8010E948C01492F55272A8530E038
S11303D04217530751F49C0133274B8550E081E0C9
S11303E02417350719F480E001C081E0DF91CF9133
S11303F01F910F9108958F929F92AF92BF92CF92C7
S1130400DF92EF92FF920F931F93CF93DF93CDB7B9
S1130410DEB768970FB6F894DEBF0FBECDBF1D865A
S113042081E08E8762E0CE010D960E948C019F8749
S1130430888B6894DD24D2F804E810E00F2EF6E8E7
S1130440EF2EF12CF02D61E0CE010D960E94890E65
S1130450419AF801408151815093C8034093C703E6
S11304609A01275E3F4FF80180819181281739074F
S113047028F08081918148175907A8F3F8018081F9
S113048091818417950750F460817181F70180810F
S11304909181860F971F8217930728F3DA94D1105E
S11304A0D2CF64E0CE010D960E94890E0F2EF0E8A3
S11304B0EF2EF5E0FF2EF02D0F2EF8E78F2EF5E04E
S11304C09F2EF02D0F2EFDEEAF2EF3E0BF2EF02D5C
S11304D009EC13E0F501808186FF07C061E0F701B4
S11304E0808191810E94240103C0F8011482158245
S11304F0F8018081898B81818A8B82818B8B8381B6
S11305008C8B84818D8B85818E8B66E0CE014196A8
S11305100E948C019F8B888F68E0CE0141960E94D7
S1130520890EF2E0EF1AF108E814F90499F6419AF9
S1130530CC24C3940DEE13E00F2EF9ECEF2EF3E070
S1130540FF2EF02D02C0D394C3944D2D6CE0CE0148
S113055001960E94B401882319F0419A81E022C0D7
S1130560F801908196FD1AC0DD2069F3F7019181AD
S11305702E8129130BC0FE01379622E030E0419111
S1130580D901A753BC4F9C91491719F0419A81E0B6
S113059009C02F5F3F4F2630310589F7F4E0FC1581
S11305A090F6419A68960FB6F894DEBF0FBECDBFA1
S11305B0DF91CF911F910F91FF90EF90DF90CF903B
S11305C0BF90AF909F908F900895DF92EF92FF922B
S11305D00F931F93CF93DF931F92CDB7DEB719828A
S11305E0E9ECF3E0168284E0878397E0908792EC4D
S11305F09187128696E093879AE9948794E9958780
S1130600168698E097879EE5908B92E5918B128AE7
S11306109AE0938B93EC948B858B10927B051092CC
S11306207A0510927D0510927C0510927F05109238
S11306307E0510928105109280051092ED0388EAE0
S113064091E69093BF058093BE0580E194EA909370
S1130650C1058093C00560EC75E08EEB95E00E94C7
S1130660CC006894DD24D2F804E810E00F2EF6E8FC
S1130670EF2EF12CF02D61E0CE0101960E94890E3F
S1130680419AF801408151815093C8034093C703B4
S11306909A01205E3C4FF801808191812817390727
S11306A028F08081918148175907A8F3F8018081C7
S11306B091818417950750F460817181F7018081DD
S11306C09181860F971F8217930728F3DA94D1102C
S11306D0D2CF0E94FB010F90DF91CF911F910F9118
S11306E0FF90EF90DF9008954F925F926F927F9208
S11306F08F929F92AF92BF92CF92DF92EF92FF922E
S11307000F931F93CF93DF93CDB7DEB764970FB6E4
S1130710F894DEBF0FBECDBF082F192F0E942E0103
S1130720E0908400F09085000E945E0F4B015C0114
S113073022E0820E911CA11CB11C0E945E0F681560
S113074079058A059B05C8F3E4E8F0E0808191818E
S1130750E816F906D8F740918400509185009A0173
S113076028513C4FE4E8F0E0A6E8B0E080819181B4
S11307702817390728F08081918148175907B0F369
S1130780808191818417950750F4608171818D91E6
S11307909C911197860F971F8217930738F3A02E09
S11307A0B12EC12CD12C512C7E018DE0E80EF11C10
S11307B06E2C7F2C442443944EC01192EE15FF05F9
S11307C0E1F764E0CE0101960E94890E4501E0E65E
S11307D08E0E911C850148E0662D772DCE0105967D
S11307E00E94750E66E0862D972D0E948C012B8940
S11307F030E0322F22274C89242B82179307F9F4F7
S11308008E8590E0982F88272D85822BF80191837F
S11308108083888990E0982F88272F85822B938363
S113082082838A8990E0982F88272989822B95834F
S11308308483085E1F4F8016910669F601C0542C0C
S1130840419AFFEFCF1ADF0A26E0A20EB11C84E022
S1130850C816D104C9F0F601EE0FFF1FEE0FFF1FFB
S1130860E753FC4F8681898387818A83D601AA0F47
S1130870BB1FAA0FBB1FAF52BC4F8C918B838185CA
S11308808C83FE01359699CF852D64960FB6F89426
S1130890DEBF0FBECDBFDF91CF911F910F91FF90AF
S11308A0EF90DF90CF90BF90AF909F908F907F900C
S11308B06F905F904F900895CF92DF92EF92FF92E6
S11308C00F931F93CF93DF9300D000D0CDB7DEB743
S11308D0C82E19826894DD24D2F804E810E00F2EA3
S11308E0F6E8EF2EF12CF02D61E0CE0101960E9486
S11308F0890E419AF801408151815093C803409375
S1130900C7039A01275E3F4FF80180819181281720
S1130910390728F08081918148175907A8F3F80115
S1130920808191818417950750F460817181F7016A
S113093080819181860F971F8217930728F3DA9499
S1130940D110D2CF85E08983F3E0CF16D1F0FC1526
S113095038F081E0C81679F0E2E0CE1679F008C0EC
S1130960F5E0CF16A1F0CF1678F086E0C81691F026
S113097080E68A8311C081E68A830EC082E68A8378
S11309800BC083E68A8308C084E68A8305C085E6B3
S11309908A8302C086E68A8362E0CE0101960E94C1
S11309A08C019B838C8364E0CE0101960E94890EA6
S11309B0419A0F900F900F900F90DF91CF911F915C
S11309C00F91FF90EF90DF90CF9008952F923F9278
S11309D04F925F926F927F928F929F92AF92BF924B
S11309E0CF92DF92EF92FF920F931F93CF93DF93F7
S11309F0CDB7DEB7A2970FB6F894DEBF0FBECDBF5A
S1130A000E945C040F2EF7E09F2EF02DE4E8F0E046
S1130A1006E810E020813181B901665D7C4F39011F
S1130A208CE7681A8CEF780A8081918168177907BE
S1130A3028F08081918128173907B0F38081918152
S1130A408217930750F440815181D8018D919C9174
S1130A50840F951F8615970538F39A949110DACF71
S1130A6019828CE08A8362E0CE0101960E948C0197
S1130A709B838C838E010B5F1F4F3E01BDE06B0E89
S1130A80711CF8011192E615F705E1F764E0CE0157
S1130A9001960E94890EE2ECF5E0FAA3E9A30F2E79
S1130AA0FAEC4F2EF5E05F2EF02D4F0148E0BE0129
S1130AB0635F7F4FCE0105960E94750E66E0CE01FE
S1130AC00D960E948C012B8930E0322F22274C890D
S1130AD0242B8217930711F58E8590E0982F882791
S1130AE02D85822BD4018D939D934D01888990E0AF
S1130AF0982F88272F85822B17969C938E93169771
S1130B008A8990E0982F88272989822B1F969C93A5
S1130B108E931E97A415B50549F603C0419A81E04A
S1130B2099C1419A19828EE08A8362E0CE010196CE
S1130B300E948C019B838C83F80111928F01E6152E
S1130B40F705D1F764E0CE0101960E94890E0AED03
S1130B5015E00F2EF2EE8F2EF5E09F2EF02D48E0DB
S1130B60BE01635F7F4FCE0105960E94750E66E05D
S1130B70CE010D960E948C012B8930E0322F222762
S1130B804C89242B8217930711F58E8590E0982FBA
S1130B9088272D85822BD8018D939D938D0188897B
S1130BA090E0982F88272F85822B17969C938E93FD
S1130BB016978A8990E0982F88272989822B1F9677
S1130BC09C938E931E97A815B90549F607C089E032
S1130BD091E00E94DA0F419A81E03CC1419A0F2EC4
S1130BE0F2EF2F2EF5E03F2EF02D38A22F8E01C10B
S1130BF0AD8DBE8D4D915D91BE8FAD8FF201619033
S1130C0071902F016894AA24A6F80F2EF2E4BF2E47
S1130C10F02D0F2EFFE0CF2EF02DD12CE12CF12C56
S1130C2000E010E0242F352F40E050E060E070E059
S1130C3080E090E00E9454105301C12CD12CE12C8F
S1130C40F12C87016D8ABE8ACF8AD88EE98EFA8EFE
S1130C500B8F1C8FC12CD12CE12CF12C00E010E067
S1130C600E94AF102F3DE6EE3E07EBE04E07510524
S1130C70610571058105910531F12CF1205E364E37
S1130C804B40510961097109810991090F2EFAEB51
S1130C90AF2EF02DBB24BA94CC24CA94DD24DA946C
S1130CA0EE24EA94FF24FA940FEF1FEF0E94AF1092
S1130CB0D4012C9311963C93119712964C9312974E
S1130CC013965C9381C02F31E0E33E07E5E04E07C5
S1130CD05105610571058105910531F12CF1205E05
S1130CE0364E4B40510961097109810991090F2E52
S1130CF0F2E9AF2EF02DBB24BA94CC24CA94DD249F
S1130D00DA94EE24EA94FF24FA940FEF1FEF0E9482
S1130D10AF10D4012C9311963C93119712964C93D7
S1130D20129713965C9350C0273DEAEC3E07E2E02D
S1130D304E075105610571058105910509F02CF5F2
S1130D4020513A47474051096109710981099109C4
S1130D500F2EFDECAF2EF02DBB24BA94CC24CA94F4
S1130D60DD24DA94EE24EA94FF24FA940FEF1FEFC3
S1130D700E94AF10D4012C9311963C9311971296B4
S1130D804C93129713965C931FC02858374D4940D3
S1130D90510961097109810991090F2EF3EBAF2EF5
S1130DA0F02DBB24BA94CC24CA94DD24DA94EE2426
S1130DB0EA94FF24FA940FEF1FEF0E94AF10F4019E
S1130DC02083318342835383F4E08F0E911C4214B9
S1130DD0530409F00DCF09A11AA1085F1F4F1AA3EC
S1130DE009A38F8D98A1409698A38F8F8254964023
S1130DF019F10F2EFAEE4F2EF5E05F2EF02D8F8CA9
S1130E0098A0E9A1FAA1FE8FED8FF2CE4191519104
S1130E1061917191041715072607370714F48A01A5
S1130E209B01815099F7F0E12F0E311C92E42916B1
S1130E3096E0390621F406C000E010E09801F101C3
S1130E4084E0E4CF009342061093430620934406C3
S1130E5030934506A2960FB6F894DEBF0FBECDBF01
S1130E60DF91CF911F910F91FF90EF90DF90CF9082
S1130E70BF90AF909F908F907F906F905F904F90B6
S1130E803F902F900895CF92DF92EF92FF920F93AD
S1130E901F93CF93DF936C010CE013E00F2EF4E16A
S1130EA0EF2EF3E0FF2EF02DA1E0B0E0F60110826A
S1130EB0E801699179918E0120E030E0AD01022EC4
S1130EC002C0440F551F0A94E2F746235723452BCB
S1130ED019F090819F5F90832F5F3F4F2C30310535
S1130EE069F7DFEFCD1ADD0A0E151F05F9F6DF915C
S1130EF0CF911F910F91FF90EF90DF90CF900895C5
S1130F002F923F924F925F926F927F928F929F9215
S1130F10AF92BF92CF92DF92FF920F931F93CF9322
S1130F20DF93CDB7DEB72E970FB6F894DEBF0FBEB2
S1130F30CDBFD82EF92E78876F835A8749873C878F
S1130F402B871E870D87CE0101960E9443070F2E23
S1130F50FCE08F2EF3E09F2EF02DCE0101969E83B0
S1130F608D832D2C3F2CF12C412C512C320160E02F
S1130F7070E00F2EF0E5AF2EF3ECBF2EF02DCC2455
S1130F80C394D12C34C09601082E02C0220F331F03
S1130F900A94E2F72023312321153105A1F0408181
S1130FA05181440E551E611C711C4D915C91119729
S1130FB04A155B0538F06417750728F4232B19F0DC
S1130FC0BA0101C05A010196329612968C309105ED
S1130FD0D1F6ED81FE818191FE83ED83F80EF8E177
S1130FE02F0E311C84E1881683E0980649F0F40141
S1130FF0019111914F01D101F10180E090E0C3CF43
S1131000EF81F88571836083E985FA85B182A082D6
S11310102F2D30E040E050E0C301B2010E942C10BB
S1131020EB85FC8531832083ED85FE85F0822E9649
S11310300FB6F894DEBF0FBECDBFDF91CF911F91E5
S11310400F91FF90DF90CF90BF90AF909F908F90C3
S11310507F906F905F904F903F902F9008956F9284
S11310607F928F929F92AF92BF92CF92DF92EF9234
S1131070FF920F931F93CF93DF9300D000D0CDB78F
S1131080DEB7C82ED92E8B017A01A22EB32ECE0143
S113109001960E9443078A2C9B2CAC2CBD2CACE0FF
S11310A0B3E00F2EF4E16F2EF3E07F2EF02DB801A4
S11310B06C597F4F97012C593F4FCC24C394D12CAA
S11310C02BC04191519146175707B8F024173507A3
S11310D0A0F44133554788F0A601082E02C0440FFE
S11310E0551F0A94E2F78A014D915C9111974023B0
S11310F05123452B11F0E02AF12A01968C309105F9
S113110001F7F401E192F1924F01F8E1AF0EB11C45
S11311101296A615B70531F0F50180E090E0E12CB8
S1131120F12CCFCF0F900F900F900F90DF91CF91B4
S11311301F910F91FF90EF90DF90CF90BF90AF90F1
S11311409F908F907F906F9008955F926F927F929F
S11311508F929F92AF92BF92CF92DF92EF92FF92C3
S11311600F931F93CF93DF9300D000D0CDB7DEB79A
S1131170C82ED92E8B017A01A22EB32ECE01019650
S11311800E9443078A2C9B2CAC2CBD2CACE0B3E012
S11311900F2EF4E16F2EF3E07F2EF02D512CB801C9
S11311A068537F4F970128533F4FCC24C394D12CCD
S11311B02CC04191519146175707C0F024173507A9
S11311C0A8F44133554790F0A601082E02C0440FFD
S11311D0551F0A94E2F78A014D915C9111974023BF
S11311E05123452B19F0E02AF12A539401968C30AF
S11311F09105F9F6F401E192F1924F01F8E1AF0E95
S1131200B11C1296A615B70531F0F50180E090E007
S1131210E12CF12CCECF852D0F900F900F900F90D5
S1131220DF91CF911F910F91FF90EF90DF90CF90BE
S1131230BF90AF909F908F907F906F905F90089534
S11312402F923F924F925F926F927F928F929F92D2
S1131250AF92BF92CF92DF92EF92FF920F931F93C0
S1131260CF93DF931092D800883E23E0920749F48D
S11312701092E2008AE08093E3008CE18093E40022
S113128095C0843FC1E09C0749F482E08093E2006A
S11312908AE28093E3008093E40088C08A3F91054A
S11312A049F486E08093E2008AE28093E30080932D
S11312B0E4007CC08EE08093E2008AE28093E30045
S11312C08093E40073C08F5F9F5F682E660C660C8A
S11312D0660C660C6C921082843008F04EC0E101FA
S11312E058828130B9F028F0823029F18330A1F19D
S11312F056C0E6011882E7011882E8011882EB0162
S11313001882EA017882E9017882E4014882E501E1
S11313107882D9CFE6011882E7011882E8011882A1
S1131320EB011882EA017882E9017882E40178828B
S1131330E5017882C8CFE6011882E7011882E80146
S11313401882EB011882EA017882E9017882E401CB
S11313507882E5017882B7CFE6011882E701188226
S1131360E8011882EB011882EA017882E9017882A7
S1131370E4017882E5017882A6CFE1011882E601D2
S11313801882E7011882E8011882EB011882EA0149
S11313901882E9011882E4011882E5011882963066
S11313A008F491CF82E08093D80031C091E080E0CE
S11313B0ADEEB0E0EEEEF0E00F2EFFEE2F2E312C6E
S11313C0F02D0F2EF0EFCF2ED12CF02D0F2EF1EFAC
S11313D0EF2EF12CF02D02EF10E063EF70E044EFFC
S11313E050E025EF30E00F2EF6EF8F2E912CF02DEC
S11313F00F2EF7EFAF2EB12CF02D6894552457F82B
S113140077247A940F2EFFE14F2EF02D5ECFDF91DB
S1131410CF911F910F91FF90EF90DF90CF90BF90ED
S1131420AF909F908F907F906F905F904F903F9080
S11314302F9008950F931F93CF93DF938C011092F5
S1131440ED009091DC0090FF14C0E1E0F0E0CDEEFF
S1131450D0E0ACEDB0E09E2F9295907F98832C91D4
S113146030E00E2E02C0359527950A94E2F720FD50
S113147059C08091EF00982F9F70993018F4EB01B8
S1131480988303C098E0FB01908384FD18C0809189
S1131490F3002091F20090E0880F991F880F991FA4
S11314A0880F991F229526952770820F911DA0E021
S11314B0B0E0E80188839983AA83BB831AC0209192
S11314C0F300B22F2091F200A22F2091F100922F6D
S11314D02091F000822F689412F8B695A7959795FD
S11314E087951694D1F7B068F80180839183A2831D
S11314F0B383EB018881882361F0E42FF52F80E02A
S1131500AAEFB0E09C9191938F5FEB0198818917CA
S1131510C8F380E88093EF008091DC0080958E70A2
S1131520816006C03196E430F10509F094CF80E083
S1131530DF91CF911F910F9108958F929F92AF9257
S1131540BF92CF92DF92EF92FF920F931F93CF93AC
S1131550DF93CDB7DEB728970FB6F894DEBF0FBE82
S1131560CDBFC982DA82EB82FC820D831E832F8376
S113157038872091DC0024FD04C020E42093ED0092
S113158007C02091DC0025FD49C020E52093ED0033
S1131590442381F0FE0131962FEF240F30E02F5FBA
S11315A03F4F2E0F3F1FAAEFB0E051915C93E2171B
S11315B0F307D9F7992394F01092F0004B01880CAB
S11315C0991C880C991C880C991C880C991C880CF3
S11315D0991C8092F2009092F3001BC04B015C01B5
S11315E0880C991CAA1CBB1C880C991CAA1CBB1C2B
S11315F0880C991CAA1CBB1C8092F0009092F100EC
S1131600A092F2008B2C9924AA24BB248092F3008C
S1131610405F40644093EF0081E001C080E0289681
S11316200FB6F894DEBF0FBECDBFDF91CF911F91EF
S11316300F91FF90EF90DF90CF90BF90AF909F906D
S11316408F900895CF92DF92EF92FF920F931F93A2
S1131650CF93DF93CDB7DEB72D970FB6F894DEBFE7
S11316600FBECDBFC982DA82EB82FC821E832F8338
S113167049875A876B8789819A81AB81BC81813084
S11316809105A105B10529F00397A105B105D1F094
S113169024C08E81982F917090936C0382708093F4
S11316A06B038F81813031F4EDEEF3E0808180644F
S11316B0808305C0EDEEF3E080818F7B80833093DF
S11316C0C4030BC0309379058985809378058A8596
S11316D0809377058B85809376052D960FB6F894C5
S11316E0DEBF0FBECDBFDF91CF911F910F91FF9051
S11316F0EF90DF90CF9008952F923F924F925F9298
S11317006F927F928F929F92AF92BF92CF92DF920D
S1131710EF92FF920F931F93CF93DF93CDB7DEB772
S113172061970FB6F894DEBF0FBECDBF823059F07B
S113173018F48823B1F0DDC0833009F476C0843016
S113174009F4A5C0D6C08DEE93E0998B888B9FE0F9
S11317509F870F2E212CF3E03F2E412C512CF02D8E
S11317605CC08091ED038E830E94DD0E8F83CE805A
S1131770DF80E884F9840A851B852C853D8542E059
S113178062E070E080E090E00E949D0A882379F393
S1131790B0C0F301928183819E838F83948185817C
S11317A098878987968187819A878B87FE85FC87AE
S11317B0EDEEF3E080818D87CE80DF80E884F984CC
S11317C00A851B852C853D8548E0C501B4010E942E
S11317D09D0A882389F3FFEF8F1A9F0AAF0ABF0A75
S11317E026E0620E711C8E858D5F8E879F8589131E
S11317F0D0CFE4E02E0E311C411C511C945F9F8716
S1131800888999894896998B888B90E1291693E069
S113181039064104510409F46CC0EF85EC50EE879D
S11318206888798852014101B4CF0F2EFAE7AF2EB0
S1131830F5E0BF2EF02D712C0F2EFDEE8F2EF3E070
S11318409F2EF02DF50190818181F2E0AF0EB11C45
S11318509E838F838091C303888773947986F40170
S113186080818A87CE80DF80E884F9840A851B859D
S11318702C853D8545E065E070E080E090E00E94C5
S11318809D0A882379F3F4E07F12DCCF32C00F2E57
S1131890F2EFAF2EF5E0BF2EF02D712C0F2EFDEEE2
S11318A08F2EF3E09F2EF02DC5010B2C000CAA0BFC
S11318B0BB0B8E839F83A887B98773947A86F401C0
S11318C080818B87CE80DF80E884F9840A851B853C
S11318D02C853D8546E066E070E080E090E00E9463
S11318E09D0A882379F3F0E1AF0EB11C24E0721253
S11318F0DBCF61960FB6F894DEBF0FBECDBFDF918C
S1131900CF911F910F91FF90EF90DF90CF90BF90F8
S1131910AF909F908F907F906F905F904F903F908B
S11319202F900895CF92DF92EF92FF920F931F931F
S1131930CF93DF93CDB7DEB72D970FB6F894DEBF04
S11319400FBECDBF4091E9034423C9F18091DC006F
S113195080738033A1F180916A0350E0873010F4E2
S11319608F5F01C080E09A01082E02C0359527954B
S11319700A94E2F720FFF2CF80936A030E947C0B63
S113198081E090E000906A0302C0880F991F0A94D6
S1131990E2F780959091E90389238093E9030FC0CE
S11319A0C980DA80EB80FC800D811E812F8138850F
S11319B049855A856B857C858D850E94220BAE01F5
S11319C04A5F5F4FBE016B5F7F4FCE0101960E945D
S11319D01A0A8111E5CF2D960FB6F894DEBF0FBE1B
S11319E0CDBFDF91CF911F910F91FF90EF90DF90CA
S11319F0CF90089590E0FC01E556F109EF36F1052A
S1131A0088F5E25CFF4F0C944E10509A0895389A72
S1131A100895529A0895399A0895269A0895539AE2
S1131A200895209A0895219A0895279A0895549A1A
S1131A3008956A9A0895559A0895569A0895229A8F
S1131A4008953C9A08953D9A08953E9A0895259ADA
S1131A5008953F9A0895249A0895239A0895519ACF
S1131A600895579A089580910001882381F01C9B62
S1131A7004C081E080936E0302C010926E031B9B2E
S1131A8004C081E080936D03089510926D0308955E
S1131A90809101018823F9F0809176059091770572
S1131AA0A0917805B0917905181619061A061B0637
S1131AB03CF0B095A095909581959F4FAF4FBF4F47
S1131AC0813F9944A240B10520F081E080936F03E7
S1131AD0089510926F0308950F931F93CF93DF938C
S1131AE080910201882309F4A5C08FEE93E00E943F
S1131AF0740381112EC01092700305E715E023E7EB
S1131B0035E041E755E06FE675E08FEE93E00E9423
S1131B1080078091710590917205893A914638F059
S1131B2080916F05909170058031944A68F080919E
S1131B3071038F5F809371038530D0F081E08093CF
S1131B4073031092710314C0109273031092710303
S1131B500FC08091E90381608093E9038091700351
S1131B608F5F853018F48093700302C01092700365
S1131B7080E00E94E60481111FC08091420690918A
S1131B804306A0914406B091450680379741A105CC
S1131B90B10574F0809172038F5F853018F48093DF
S1131BA072030AC01092720381E08093740304C02C
S1131BB01092720310927403CDEED3E088818F7B70
S1131BC088834091BE055091BF0560917105709165
S1131BD072052AE935E08FEE93E00E94A508809310
S1131BE0C303888186FF14C04091BE055091BF0590
S1131BF060917105709172052AE735E08FEE93E0EC
S1131C000E942F080E94FB018091ED0386FD12C003
S1131C100E94FB0110927B0510927A0510927D05BB
S1131C2010927C0510927F0510927E05109281051A
S1131C3010928005DF91CF911F910F91089594B177
S1131C40926894B9539A803109F138F4843091F050
S1131C508830B1F0823089F507C0803419F18038BA
S1131C6039F1803251F518C08DB581608DBD80E5A4
S1131C708CBD23C08DB58E7F8DBD80E58CBD1DC010
S1131C808DB581608DBD81E58CBD17C08DB58E7F0E
S1131C908DBD81E58CBD11C08DB581608DBD82E5A2
S1131CA08CBD0BC08DB58E7F8DBD82E58CBD05C00E
S1131CB08DB58E7F8DBD83E58CBD8CB58C608CBD60
S1131CC008954198662381F0FC019C01260F311D83
S1131CD0DF0190819EBD0DB407FEFDCF9EB59C93A0
S1131CE03196E217F307A1F708954198442381F050
S1131CF0FC01A62FB72F9C01240F311D91919EBD8D
S1131D000DB407FEFDCF9EB59D93E217F307B1F71F
S1131D1008954198662361F0FC019C01260F311D52
S1131D2091919EBD0DB407FEFDCFE217F307C1F7F5
S1131D300895419A08951F920F920FB60F9211249D
S1131D402F933F934F935F936F937F938F939F93BF
S1131D50AF93BF93EF93FF938091750390917603B4
S1131D603091790321E0230F209379034EB5FC01D0
S1131D70E30FF11D408330917703231740F0109255
S1131D8078038CB58F778CBD0E94990E05C0FC0139
S1131D90E20FF11D80818EBDFF91EF91BF91AF9154
S1131DA09F918F917F916F915F914F913F912F916F
S1131DB00F900FBE0F901F90189580917A0308958D
S1131DC0E0E8F0E0808182608083E1E8F0E08081F7
S1131DD08A61808380ED97E09093870080938600EA
S1131DE0EFE6F0E0808181608083789408951F920B
S1131DF00F920FB60F9211242F938F939F93AF934B
S1131E00BF9380917D0390917E03A0917F03B09155
S1131E1080030196A11DB11D80937D0390937E03E1
S1131E20A0937F03B09380038091060190910701F2
S1131E30883E23E0920730F4019690930701809343
S1131E40060106C081E090E09093070180930601AB
S1131E5080910501853020F48F5F8093050124C0B3
S1131E6081E0809305018091060180FD1DC0909161
S1131E700401953020F49F5F9093040115C091E014
S1131E809093040190937C0381FD0EC081E08093C4
S1131E907B0380910301853020F48F5F80930301DD
S1131EA003C081E080930301BF91AF919F918F9113
S1131EB02F910F900FBE0F901F90189560917D0386
S1131EC070917E0380917F039091800308950E9416
S1131ED0330D0E94480D089580917C03882321F0DE
S1131EE00E94670F10927C0380917B03882321F06A
S1131EF00E946C0D10927B0308958CE60E94FA0CEC
S1131F00419A83ED0E94FA0C729860E072EC81E0D1
S1131F1090E00E94B30F84EF91E00E94200980E1D9
S1131F200E941F0E60E174EA88EA91E60E94E502CD
S1131F308091E90381608093E9038CE293E00E943D
S1131F40DA0F8EE293E00E94DA0F81E593E00E94BB
S1131F50DA0F08950E94E00E0E947D0F0E94920CF9
S1131F600E946C0FFBCFCF93DF939B01AC01C8ECB5
S1131F70D0E088818068888360E271EA87E090E03D
S1131F800E942C10215031093093CE002093CD00B3
S1131F9088818F608883539A5498DF91CF910895F4
S1131FA09091C90094FD04C08093D20081E008950B
S1131FB080E00895CF93DF93EC018881882349F072
S1131FC088810E94D00F8823D9F3219688818111BA
S1131FD0F7CFDF91CF9108951F920F920FB60F9212
S1131FE011242F933F938F93EF93FF938091C90014
S1131FF081FF28C0E091810380918203E817A9F052
S1132000F0E0ED57FC4F80818093D20080918103F2
S1132010282F30E02F5F3F4F2034310514F48F5FB9
S113202001C080E0809381030DC081E080930801AA
S1132030EAECF0E080818D7F8083E9ECF0E0808140
S113204082608083FF91EF918F913F912F910F9048
S11320500FBE0F901F901895A1E21A2EAA1BBB1B4E
S1132060FD010DC0AA1FBB1FEE1FFF1FA217B30760
S1132070E407F50720F0A21BB30BE40BF50B661F76
S1132080771F881F991F1A9469F76095709580953A
S113209090959B01AC01BD01CF010895EE0FFF1F88
S11320A00590F491E02D0994DF93CF931F930F9340
S11320B09A9DF02D219FF00D8B9DF00D8A9DE02DB2
S11320C0F10D039FF00D029FE00DF11D4E9DE00DFB
S11320D0F11D5E9DF00D4F9DF00D7F936F93BF92A8
S11320E0AF925F934F93D5010E9484118B01AC0191
S11320F0D7010E948411EB01E80FF91FD6010E9459
S1132100A4102F913F91D6010E948411C60FD71FAE
S1132110E81FF91FAF91BF910E94A4102F913F9126
S11321200E948411C60FD71FE81FF91FD6010E9411
S11321308411E60FF71F9801BE01CF0111240F91FE
S11321401F91CF91DF9108950E948411460F571F6C
S1132150C81FD91F08F431960895689401C0E89403
S1132160F92FF12B12F00C94E110A0E0B0E0EBEBAE
S1132170F0E10C945311092E059422F40E943D11B0
S1132180112392F4F0E80F26FFEFE094F094009509
S11321901095B094C094D094A194BF0ACF0ADF0ADA
S11321A0EF0AFF0A0F0B1F0B0E94EC1007FC0E94A2
S11321B03D11CDB7DEB7ECE00C946F11689401C00B
S11321C0E8948F929F92CF93DF930E94EC10DF915B
S11321D0CF919F908F90089588249924F401E4016D
S11321E0B0E49F93AA279A158B049C04ED05FE0581
S11321F0CF05D007A10798F4AD2FDC2FCF2FFE2FEA
S1132200E92D982C892E982F872F762F652F542F00
S1132210432F322F2227B85031F7BF9127C01B2EEE
S1132220BF91BB27220F331F441F551F661F771F03
S1132230881F991F881C991CEE1FFF1FCC1FDD1FD0
S1132240AA1FBB1F8A149B04EC05FD05CE05DF0500
S1132250A007B10748F08A189B08EC09FD09CE09CC
S1132260DF09A00BB10B21601A94E1F62EF494015E
S1132270AF01BE01CD01000C089560957095809565
S1132280909530954095509521953F4F4F4F5F4F16
S11322906F4F7F4F8F4F9F4F08952F923F924F92D2
S11322A05F926F927F928F929F92AF92BF92CF92E2
S11322B0DF92EF92FF920F931F93CF93DF93CDB7EB
S11322C0DEB7CA1BDB0B0FB6F894DEBF0FBECDBF63
S11322D009942A88398848885F846E847D848C8434
S11322E09B84AA84B984C884DF80EE80FD800C813D
S11322F01B81AA81B981CE0FD11D0FB6F894DEBF20
S11323000FBECDBFED010895A29FB001B39FC001E0
S1132310A39F700D811D1124911DB29F700D811D0D
S10D23201124911D0895F894FFCFD5
S113232A010101010101010001463200000099C5C1
S113233AABCE320BCFD8561D6416FDD307F49E31AB
S113234AAC3A35FFC82C51E963E2FA2797AD0E6817
S113235A3C63A5A65875C1B0F3BB6A7E9059099C23
S113236A3B97A2525F81C644F44F6D8A2E5BB79E97
S113237A85951C50E18378464A4DD38829AFB06AC3
S113238A82611BA4E6777FB24DB9D47CB9F62033B7
S113239A12388BFD762EEFEBDDE04425BE0227C70B
S11323AA15CC8C0971DAE81FDA1443D1C5F35C360B
S11323BA6E3DF7F80A2B93EEA1E53820C2075BC2FB
S11323CA69C9F00C0DDF941AA6113FD4525ECB9B57
S11323DAF99060559D8604433648AF8D55AACC6F53
S11323EAFE6467A19A7203B731BCA879EBA8726D2F
S11323FA4066D9A32470BDB58FBE167BEC5C759973
S113240A4792DE572384BA41884A118F7C05E5C076
S113241AD7CB4E0EB3DD2A18181381D67BF1E234DA
S113242AD03F49FAB4292DEC1FE7862213A28A6702
S113243AB86C21A9DC7A45BF77B4EE7114568D9332
S113244ABF98265DDB8E424B7040E985840F1DCA16
S113245A2FC1B6044BD7D212E01979DC83FB1A3E9A
S113246A2835B1F04C23D5E6E7ED7E283DF9A43CA6
S113247A96370FF2F2216BE459EFC02A3A0DA3C83A
S113248A91C30806F5D56C105E1BC7DEAA543391B6
S113249A019A985F658CFC49CE425787ADA0346592
S11324AA066E9FAB6278FBBDC9B65073D6514F9482
S11324BA7D9FE45A1989804CB2472B82D1A5486082
S11324CA7A6BE3AE1E7D87B8B5B32C7641FCD83956
S11324DAEA3273F78E2417E125EABC2F4608DFCDCA
S11324EAEDC6740389D01015221EBBDBF80A61CF2E
S11324FA53C4CA0137D2AE179C1C05D9FFFE663BEA
S113250A5430CDF53026A9E39BE8022D6FA7F66275
S113251AC4695DACA07F39BA0BB192746853F19661
S113252AC39D5A58A78B3E4E0C459580FF01FF0068
S113253AFF01FF00FF01FF00FF01FF00FF01FF0091
S113254AFF01FF00FF01FF00FF01FF000C004156DD
S113255A522D496E697469616C6973696572756E25
S113256A67206572666F6C677265696368210D0A14
S113257A0057617274652061756620546573742D01
S10D258A467265696761626521000D
S9030000FC
