:100000000C94AD000C94CA000C94CA000C94CA0065
:100010000C94CA000C94CA000C94CA000C94CA0038
:100020000C94CA000C94CA000C94CA000C94CA0028
:100030000C94CA000C94CA000C94E80C0C94CA00EE
:100040000C94CA000C94CA000C94CA000C94CA0008
:100050000C94B90D0C94CA000C94CA000C94CA00FC
:100060000C94CA000C94CA000C949B0C0C94CA000B
:100070000C94CA000C94CA000C94CA00B10BBB0BC0
:10008000B30BD60BA90BAB0BAD0BAF0BB50BB70B73
:10009000B90BCF0BD10BD30BD50BD60BD60BD60B85
:1000A000D60BD60BD60BD60BD60BD60BD60BD60B48
:1000B000D60BD60BD60BD60BD60BD60BD60BD60B38
:1000C000D60BD60BD60BD60BD60BD60BD60BD60B28
:1000D000D60BD60BD60BD60BD60BD60BD60BD60B18
:1000E000D60BD60BD60BD60BD60BD60BD60BD60B08
:1000F000D60BD60BD60BD60BD60BD60BD60BD60BF8
:10010000D60BD60BD60BD60BD60BD60BD60BD60BE7
:10011000D60BD60BD60BD60BD60BD60BD60BD60BD7
:10012000D60BD60BD60BD60BD60BD60BD60BD60BC7
:10013000D60BD60BD60BD60BD60BD60BD60BD60BB7
:10014000D60BD60BD60BCD0BD60BCB0BC90BC70BD7
:10015000C50BC30BC10BBF0BBD0B11241FBECFEFD3
:10016000D0E1DEBFCDBF14E0A0E0B1E0E4E0F7E213
:1001700002C005900D92A232B107D9F726E0A2E2A3
:10018000B4E001C01D92A53EB207E1F70E94630DE5
:100190000C9480130C94000080912704882309F4A8
:1001A00048C080917A00982F907486FD42C080915B
:1001B0002604E82FF0E02091780030917900EE0FCE
:1001C000FF1FEC5CFB4F3183208321E030E0082EE1
:1001D00002C0220F331F0A94E2F74091220450918B
:1001E0002304242B352B30932304209322048F5F88
:1001F000409124045091250405C08A3010F48F5F8B
:1002000001C0892F9A01082E02C0369527950A94BD
:10021000E2F720FFF2CF80932604ECE7F0E0908134
:100220008F71907E892B8083EAE7F0E08081806483
:1002300080830895CF93DF93EC01FB01888199813E
:10024000009749F0929582958F7089279F70892732
:1002500001979983888380819181929582958F708F
:1002600089279F70892791838083A8E5B4E084E281
:100270008C93888111968C93119788819981882716
:100280009F7080818295807F892B12968C93129724
:1002900080819181807F9F70929582958F70892750
:1002A0009F70892713968C93139714961C9214971A
:1002B00015961C9288819981019682959295907FDE
:1002C0009827807F98279983888380819181829560
:1002D0009295907F9827807F982791838083DF91E4
:1002E000CF910895CF93C0919104C11117C060932D
:1002F0008F04662369F0E82FF92F20E030E0919118
:10030000D901A159BB4F9C932F5F3F4F2617B8F3DC
:1003100041980E945D0C8823E1F30DC0C0919204C6
:10032000C11103C00E94740C06C080919204C1E008
:10033000813009F0C0E08C2FCF910895E8E5F4E01A
:10034000848388279F706295607F692B65830895F9
:10035000BF92CF92DF92EF92FF920F931F93CF93B2
:10036000DF9300D000D0CDB7DEB719826894BB24EC
:10037000B1F80F2EFFE6CF2EF4E0DF2EF02D04E8CB
:1003800010E00F2EF6E8EF2EF12CF02D61E0CE01FB
:1003900001960E9472018823C9F3419AF60112A2C4
:1003A000F8014081518150935704409356049A01BB
:1003B000275E3F4FF801808191812817390728F087
:1003C0008081918148175907A8F3F80180819181B4
:1003D0008417950750F480819181F70160817181C4
:1003E000860F971F8217930728F3BA94B110CECFC8
:1003F00083E0898380E68A8384EF8B838CE68C8319
:1004000064E0CE0101960E9472018823C9F3419AEB
:10041000109291040F900F900F900F90DF91CF9159
:100420001F910F91FF90EF90DF90CF90BF900895B4
:10043000662309F1DC016150462F50E04F5F5F4FAA
:10044000480F591F80E190E06D91382F2227FC0161
:10045000EE0FEF2FEE1FFF0BF195E627FF27EE0FB4
:10046000FF1FE05BFE4F8081918182279327A417B5
:10047000B50751F702C080E190E0880F991F0895F9
:10048000DF92EF92FF920F931F93CF93DF938C0134
:10049000D62E442321F084E08617A0F01FC0FC0173
:1004A000108282E0818362E0C8010E941802F80194
:1004B0009283838364E0C8010E9472018823D1F390
:1004C00080E048C0F80134968BEF860F90E00596E7
:1004D000800F911F1192E817F907E1F7E8012496C0
:1004E000EC2EFD2E68E0CE010E9472018823C1F33C
:1004F000F4E0FD15C0F4EC2FFD2F4BEF4D0D50E057
:100500004B5F5F4F400F511F8CEF9FEF801B910B94
:10051000DC01AE0FBF1FA159BB4F50962C91219308
:10052000E417F507A9F766E08E2D9F2D0E941802AB
:10053000F8012285291303C09385981751F087E0AD
:1005400091E00E949B0D81EF93E00E949B0D81E062
:1005500001C080E0DF91CF911F910F91FF90EF904C
:10056000DF9008957F928F929F92AF92BF92CF9229
:10057000DF92EF92FF920F931F93CF93DF93CDB74C
:10058000DEB768970FB6F894DEBF0FBECDBF1982F5
:1005900081E08A8362E0CE0101960E9418029B836B
:1005A0008C836894772471F80F2EFFE6CF2EF4E049
:1005B000DF2EF02D04E810E00F2EF6E8EF2EF12CE0
:1005C000F02D61E0CE0101960E9472018823C9F3EB
:1005D000419AF60112A2F8014081518150935704CB
:1005E000409356049A01275E3F4FF8018081918124
:1005F0002817390728F08081918148175907A8F3F7
:10060000F801808191818417950750F48081918150
:10061000F70160817181860F971F8217930728F376
:100620007A947110CECF64E0CE0101960E947201DF
:100630008823C9F3109291040F2EF8E7EF2EF6E00D
:10064000FF2EF02D0F2EF4E78F2EF6E09F2EF02DCB
:100650000F2EFBEEAF2EF4E0BF2EF02D08E514E0D8
:100660000F2EFFE6CF2EF4E0DF2EF02DF501808176
:100670008671863139F461E0F701808191810E94B1
:100680009E0103C0F80114821582F80180818D83D8
:1006900081818E8382818F8383818887848189870A
:1006A00085818A8766E0CE0105960E9418029B87A5
:1006B0008C8768E0CE0105960E9472018823C9F3F9
:1006C000F60112A2F2E0EF1AF108E814F90471F64B
:1006D000419A10929104BB24B3940BEE14E00F2EB8
:1006E000FFE6EF2EF4E0FF2EF02D0F2EF8E5CF2ED3
:1006F000F4E0DF2EF02D6894992491F8A12C02C02B
:100700007394B394472D6CE0CE010D960E94400285
:10071000882369F0419A1092910489E191E00E9446
:100720009B0D81EF93E00E949B0D81E035C0F801A5
:100730009081967121F5772061F1F60191812A89E6
:1007400029130BC0FE017396292D3A2D4191D90131
:10075000A85ABB4F9C91491769F0419A1092910495
:1007600080E391E00E949B0D81EF93E00E949B0D3E
:1007700081E012C02F5F3F4F2630310539F7F70176
:1007800012A2F2E0FB1508F0BBCF419A109291043F
:1007900003C0F70112A2B4CF68960FB6F894DEBF7B
:1007A0000FBECDBFDF91CF911F910F91FF90EF90C2
:1007B000DF90CF90BF90AF909F908F907F900895E3
:1007C000BF92CF92DF92EF92FF920F931F93CF933E
:1007D000DF931F92CDB7DEB71982E8E5F4E0168209
:1007E00084E0878397E0908792EC9187128696E069
:1007F00093879AE9948794E99587168698E0978776
:100800009EE5908B92E5918B128A9AE0938B93EC04
:10081000948B858B1092770610927606109279064B
:10082000109278061092EB0488EA91E690939B066A
:1008300080939A0680E194EA90939D0680939C06AB
:100840006CE976E08AE996E00E941A016894BB247C
:10085000B1F80F2EFFE6CF2EF4E0DF2EF02D04E8E6
:1008600010E00F2EF6E8EF2EF12CF02D61E0CE0116
:1008700001960E9472018823C9F3419AF60112A2DF
:10088000F8014081518150935704409356049A01D6
:10089000205E3C4FF801808191812817390728F0AC
:1008A0008081918148175907A8F3F80180819181CF
:1008B0008417950750F480819181F70160817181DF
:1008C000860F971F8217930728F3BA94B110CECFE3
:1008D0000E94B2020F90DF91CF911F910F91FF9074
:1008E000EF90DF90CF90BF9008952F923F924F925C
:1008F0005F926F927F928F929F92AF92BF92CF92B0
:10090000DF92EF92FF920F931F93CF93DF93CDB7B8
:10091000DEB766970FB6F894DEBF0FBECDBF082FC7
:10092000192F0E94A80120918400309185004091E8
:1009300030045091310460913204709133044E5F61
:100940005F4F6F4F7F4F8091300490913104A091A1
:100950003204B091330484179507A607B70798F3BC
:10096000E4E8F0E08081918128173907D8F7809179
:10097000840090918500AC0148515C4FE4E8F0E0C0
:10098000A6E8B0E0208131814217530728F020818A
:10099000318182179307B0F32081318128173907FD
:1009A00050F4208131816D917C911197260F371F72
:1009B0002417350738F3A02EB12EC12CD12CCE012F
:1009C00005969E8B8D8B7E019DE0E90EF11C0F2E0E
:1009D000FFE66F2EF4E07F2EF02D4D885E882E2CE2
:1009E0003F2C69C01192EE15FF05E1F764E0CE01DE
:1009F00001960E9472018823C9F3F30112A24501F6
:100A0000F0E38F0E911C850168E0842D952D0E94E6
:100A100072018823C9F3E22DF32D80E090E0DC0120
:100A2000A159BB4F50962C91219301968830910586
:100A3000B1F766E0822D932D0E9418022B8930E0D9
:100A4000322F22274C89242B2817390711F58E8540
:100A500090E0982F88272D85822BF8019183808341
:100A6000888990E0982F88272F85822B9383828313
:100A70008A8990E0982F88272989822B95838483FF
:100A8000F30112A2085E1F4F8016910609F0BCCF39
:100A900005C0419A1092910481E027C0419AF30168
:100AA00012A2FFEFCF1ADF0A86E0A80EB11C94E075
:100AB000C916D104C9F0F601EE0FFF1FEE0FFF1F9C
:100AC000E85AFB4F8681898387818A83D601AA0FE2
:100AD000BB1FAA0FBB1FA05ABB4F8C918B83818574
:100AE0008C83FE0135967ECF80E066960FB6F89433
:100AF000DEBF0FBECDBFDF91CF911F910F91FF9051
:100B0000EF90DF90CF90BF90AF909F908F907F90AD
:100B10006F905F904F903F902F9008952F923F924B
:100B20004F925F927F928F929F92AF92BF92CF929D
:100B3000DF92EF92FF920F931F93CF93DF9300D03A
:100B400000D000D0CDB7DEB73A8329832701160144
:100B50007C0120E0712CC12C812C912C54011E822F
:100B60001D82A0E5B3ECBC83AB83D701ED91FD9171
:100B70007D018E0E9F1EA11CB11CAB81BC81EA17AA
:100B8000FB0718F4C22EFC83EB83AD81BE81AE1748
:100B9000BF0718F4722EFE83ED832F5F283029F7EC
:100BA0004896DC01ED91FD91CD018E0E9F1EA11C9A
:100BB000B11CAB81BC81EA17FB0718F4C22EFC8381
:100BC000EB83AD81BE81AE17BF0718F4722EFE8392
:100BD000ED832F5F203129F78D819E81FB01918369
:100BE0008083DA017C928B819C81E981FA819183F7
:100BF0008083D801CC92689413F8B694A794979404
:100C000087941694D1F7F2019182808280E1D1011C
:100C10008C9326960FB6F894DEBF0FBECDBFDF9142
:100C2000CF911F910F91FF90EF90DF90CF90BF90E9
:100C3000AF909F908F907F905F904F903F902F90BC
:100C400008956F927F929F92AF92BF92CF92DF9260
:100C5000EF92FF920F931F93CF93DF937C013C01A0
:100C6000E0E36E0E711C912CA12C6C597F4F8A0110
:100C70000C591F4FCC24C394D12C22C0A991B991F7
:100C8000A617B70778F00A171B0760F4A935B8490B
:100C900048F0D6010E2E02C0AA0FBB1F0A94E2F73D
:100CA0004A2B5B2B3196E830F10541F7F90141936E
:100CB00051939F01F8E1EF0EF11CE614F70431F0B7
:100CC000E701E92DFA2D492D5A2DD8CFDF91CF918B
:100CD0001F910F91FF90EF90DF90CF90BF90AF905A
:100CE0009F907F906F900895AF92BF92CF92DF92C6
:100CF000EF92FF920F931F93CF93DF9300D000D01A
:100D0000CDB7DEB7A82E19826894BB24B1F80F2E98
:100D1000FFE6CF2EF4E0DF2EF02D04E810E00F2EDA
:100D2000F6E8EF2EF12CF02D61E0CE0101960E9445
:100D300072018823C9F3419AF60112A2F801808159
:100D400091819093570480935604AC014C5E5F4FA1
:100D5000F801208131814217530728F02081318129
:100D600082179307A8F3F8012081318128173907EA
:100D700050F420813181F70160817181260F371F86
:100D80002417350728F3BA94B110CECF85E08983B4
:100D9000F3E0AF16D1F0FA1538F081E0A81679F03B
:100DA000E2E0AE1679F008C0F5E0AF16A1F0AF169C
:100DB00078F086E0A81691F080E68A8311C081E67B
:100DC0008A830EC082E68A830BC083E68A8308C0CA
:100DD00084E68A8305C085E68A8302C086E68A8324
:100DE00062E0CE0101960E9418029B838C8364E02E
:100DF000CE0101960E9472018823C9F3419A109294
:100E000091040F900F900F900F90DF91CF911F9151
:100E10000F91FF90EF90DF90CF90BF90AF9008952B
:100E20002F923F924F925F926F927F928F929F92FA
:100E3000AF92BF92CF92DF92EF92FF920F931F93E8
:100E4000CF93DF93CDB7DEB76C970FB6F894DEBFC4
:100E50000FBECDBF0E947406609184007091850022
:100E6000AB014C575C4FE4E8F0E0A6E8B0E08081CD
:100E700091814817590728F0808191816817790777
:100E8000B0F3808191818617970750F4808191811A
:100E90002D913C911197820F931F8417950738F37A
:100EA00086E00E9474066091840070918500AB0119
:100EB0004C575C4FE4E8F0E0A6E8B0E08081918117
:100EC0004817590728F08081918168177907B0F396
:100ED000808191818617970750F4808191812D91AF
:100EE0003C911197820F931F8417950738F319824D
:100EF0008CE08A8362E0CE0101960E9418029B83F7
:100F00008C837E0105E0E00EF11C6E011DE0C10E38
:100F1000D11CF7011192EC15FD05E1F764E0CE015B
:100F200001960E9472018823C9F3109291040EE980
:100F300016E01E8B0D8B0F2EF2EA8F2EF6E09F2E01
:100F4000F02D5E012DE0A20EB11C4A2C5B2C212C51
:100F5000312C68E0CE0105960E9472018823C9F306
:100F60006A2C7B2CE42DF52D222D332DD901A1598E
:100F7000BB4F50968C9181932F5F3F4F28303105A6
:100F8000A9F766E0842D952D0E9418022B8930E088
:100F9000322F22274C89242B2817390771F48A898C
:100FA00090E0982F88272989822BD8018D939D93D3
:100FB0008D01A815B90569F605C0419A10929104F2
:100FC00081E099C1419A1092910419828EE08A833E
:100FD00062E0CE0101960E9418029B838C83F70188
:100FE0001192CE16DF06E1F764E0CE0101960E9471
:100FF00072018823C9F31092910402EA16E00F2EC1
:10100000F6EAEF2EF6E0FF2EF02DC12CD12C68E091
:10101000CE0105960E9472018823C9F3E62DF72DB3
:101020008C2D9D2DDC01A159BB4F50962C91219305
:10103000019688309105B1F766E0CE010D960E94C9
:1010400018022B8930E0322F22274C89242B2817B5
:10105000390771F48A8990E0982F88272989822B93
:10106000F801819391938F01EE15FF0581F609C078
:101070008DE491E00E949B0D419A1092910481E0D1
:101080003AC1419A1092910406EA16E00F2EFEEA48
:101090004F2EF6E05F2EF02D6D887E884801D3013B
:1010A0008D919D913D015C018D8BBE8A282F3B2D3A
:1010B00040E050E060E070E080E090E005E00E94F9
:1010C0002013C12CD12CE12CF12C00E010E00E9467
:1010D0004213A22EB32EC42ED52EE62EF72EE82FC5
:1010E000192F06E00E9420130E2F0E94421303E0E6
:1010F0000E942013AD88BE88C12CD12CE12CF12C8C
:1011000000E010E00E94391306E00E9420131296BE
:10111000ED91FC9113975F01C12CD12CE12CF12CA6
:101120008701ED8BBE8ACF8AD88EE98EFA8E0B8F1F
:101130001C8FC12CD12CE12CF12C00E010E00E947E
:101140004B12E22EF32E042F152FB62FA72FF82FB8
:10115000D92E2F3DE6EE3E07EBE04E075105610527
:1011600071058105910531F12CF1205E364E4B4021
:10117000510961097109810991090F2EFAEBAF2E0E
:10118000F02DBB24BA94CC24CA94DD24DA94EE2446
:10119000EA94FF24FA940FEF1FEF0E944B12D40140
:1011A0002C9311963C93119712964C931297139689
:1011B0005C9399C02E2D3F2D402F512F6B2F7A2FEE
:1011C0008F2F9D2D2F31E0E33E07E5E04E075105BF
:1011D000610571058105910531F12CF1205E364ED6
:1011E0004B40510961097109810991090F2EF2E9FA
:1011F000AF2EF02DBB24BA94CC24CA94DD24DA940B
:10120000EE24EA94FF24FA940FEF1FEF0E944B1292
:10121000D4012C9311963C93119712964C931297EC
:1012200013965C9360C02E2D3F2D402F512F6B2FB6
:101230007A2F8F2F9D2D273DEAEC3E07E2E04E07E7
:101240005105610571058105910509F02CF52051C5
:101250003A474740510961097109810991090F2EE7
:10126000FDECAF2EF02DBB24BA94CC24CA94DD241F
:10127000DA94EE24EA94FF24FA940FEF1FEF0E9411
:101280004B12D4012C9311963C93119712964C93C8
:10129000129713965C9327C02E2D3F2D402F512F70
:1012A0006B2F7A2F8F2F9D2D2858374D494051098C
:1012B00061097109810991090F2EF3EBAF2EF02D11
:1012C000BB24BA94CC24CA94DD24DA94EE24EA94A4
:1012D000FF24FA940FEF1FEF0E944B12F4012083BA
:1012E000318342835383F4E08F0E911C8414950460
:1012F00009F0D5CE80E06C960FB6F894DEBF0FBE35
:10130000CDBFDF91CF911F910F91FF90EF90DF90B4
:10131000CF90BF90AF909F908F907F906F905F9095
:101320004F903F902F9008952F923F924F925F924F
:101330007F928F92AF92BF92CF92DF92EF92FF9205
:101340000F931F93CF93DF931092D800883E23E032
:10135000920749F41092E2008AE08093E3008CE166
:101360008093E40047C0843FE1E09E0749F482E0B7
:101370008093E2008AE28093E3008093E4003AC025
:101380008A3F910549F486E08093E2008AE28093E7
:10139000E3008093E4002EC08EE08093E2008AE2B6
:1013A0008093E3008093E40025C0882E880C880C8D
:1013B000880C880CF6018082F7011082843018F4C2
:1013C000F501708202C0F5011082F8011082FB0164
:1013D0001082FA011082F9011082F2011082188243
:1013E0001C92F10110828F5F8630F9F682E08093C3
:1013F000D8002AC080E00F2EFDEECF2ED12CF02D8C
:101400000F2EFEEEEF2EF12CF02D0F2EFFEEAF2E55
:10141000B12CF02D6894772477F800EF10E061EF9D
:1014200070E042EF50E023EF30E00F2EF4EF4F2E4C
:10143000512CF02DC5EFD0E0A6EFB0E00F2EF7EF66
:101440002F2E312CF02DB1CFDF91CF911F910F9125
:10145000FF90EF90DF90CF90BF90AF908F907F90F4
:101460005F904F903F902F9008950F931F93CF93CD
:10147000DF938C011092ED009091DC0090FF14C07E
:10148000E1E0F0E0CDEED0E0ACEDB0E09E2F929543
:10149000907F98832C9130E00E2E02C035952795D1
:1014A0000A94E2F720FD57C08091EF00982F9F70BB
:1014B000993018F4EB01988303C098E0FB01908306
:1014C00084FD15C02091F3008091F20082958695ED
:1014D000877090E0F8E02F9F800D911D1124A0E00F
:1014E000B0E0E80188839983AA83BB831AC0209166
:1014F000F300B22F2091F200A22F2091F100922F41
:101500002091F000822F689412F8B695A7959795D0
:1015100087951694D1F7B068F80180839183A283F0
:10152000B383EB018881882369F0242FE42FF52F02
:10153000AAEFB0E08C9181938E2F821BEB019881F2
:101540008917C0F380E88093EF008091DC008095DC
:101550008E70816006C03196E430F10509F096CFB7
:1015600080E0DF91CF911F910F9108958F929F920C
:10157000AF92BF92CF92DF92EF92FF920F931F93A1
:10158000CF93DF93CDB7DEB728970FB6F894DEBFC1
:101590000FBECDBF4B015C01C982DA82EB82FC82B7
:1015A0000D831E832F8338878091DC0084FD04C067
:1015B00080E48093ED0007C08091DC0085FD42C08F
:1015C00080E58093ED00442361F09E012F5F3F4F43
:1015D000F901AAEFB0E081918C938E2F821B8417C2
:1015E000D0F3BB208CF01092F000880C991C880C72
:1015F000991C880C991C880C991C880C991C809249
:10160000F2009092F30019C0880C991CAA1CBB1C14
:10161000880C991CAA1CBB1C880C991CAA1CBB1CFE
:101620008092F0009092F100A092F2008B2C99240D
:10163000AA24BB248092F300405F40644093EF00F3
:1016400081E001C080E028960FB6F894DEBF0FBE9F
:10165000CDBFDF91CF911F910F91FF90EF90DF9061
:10166000CF90BF90AF909F908F900895CF92DF92D0
:10167000EF92FF920F931F93CF93DF93CDB7DEB717
:101680002D970FB6F894DEBF0FBECDBF40916E040C
:10169000442351F18091DC008073803329F18091E3
:1016A000280490E050E0873010F48F5F01C0892F4C
:1016B0009A01082E02C0359527950A94E2F720FF7B
:1016C000F2CF809328040E94871181E090E000907F
:1016D000280402C0880F991F0A94E2F78095909120
:1016E0006E04892380936E04AE014A5F5F4FBE0192
:1016F0006B5F7F4FCE0101960E94350A882379F0F7
:10170000C980DA80EB80FC800D811E812F813885B5
:1017100049855A856B857C858D850E94D3102D96D1
:101720000FB6F894DEBF0FBECDBFDF91CF911F91F2
:101730000F91FF90EF90DF90CF90089590E0FC0123
:10174000E556F109EF36F10588F5E25CFF4F0C94A0
:101750004312509A0895389A0895529A0895399AE2
:101760000895269A0895539A0895209A0895219AE3
:101770000895279A0895549A08956A9A0895559A53
:101780000895569A0895229A08953C9A08953D9A8C
:1017900008953E9A0895259A08953F9A0895249AA7
:1017A0000895239A0895519A0895579A089583E7C2
:1017B0000E949E0B5F9A089580912D0490912E04B3
:1017C000892BB9F180912B0490912C04892BD9F0AD
:1017D00080919204882369F15F9AEFE6F4E012A207
:1017E00080899189969587959695879590932A04F7
:1017F0008093290410922C0410922B0410922E0432
:1018000010922D04089580919104811112C08CB51D
:10181000837F8CBDEFE6F4E01182108282E080A32A
:101820005F980E945D0C81E090E090932C0480937F
:101830002B04089594B1926894B9539A803109F1B8
:1018400038F4843091F08830B1F0823089F507C0E7
:10185000803419F1803839F1803251F518C08DB5D6
:1018600081608DBD80E58CBD23C08DB58E7F8DBD23
:1018700080E58CBD1DC08DB581608DBD81E58CBDC1
:1018800017C08DB58E7F8DBD81E58CBD11C08DB526
:1018900081608DBD82E58CBD0BC08DB58E7F8DBD09
:1018A00082E58CBD05C08DB58E7F8DBD83E58CBD79
:1018B0008CB580688CBD78940895809191048111D5
:1018C00011C0EFE6F4E013A281E082A381A380A11E
:1018D000813118F080E180938F0480916F048EBD78
:1018E00081E0089580E008950DB407FE22C0AFE6C0
:1018F000B4E09196EC919197F0E08EB5E259FB4FF0
:10190000808B91969C91919790968C919097981737
:1019100060F4FD0181A18F5F81A3E1A1F0E0E259B4
:10192000FB4F80818EBD80E0089581E0809392041A
:10193000089580E008951F920F920FB60F92112420
:101940008F939F93AF93BF93EF93FF93AFE6B4E072
:101950009196EC919197F0E08EB5E259FB4F808B18
:1019600091969C91919790968C919097981758F496
:10197000FD0181A18F5F81A3E1A1F0E0E259FB4F5E
:1019800080818EBD03C081E080939204FF91EF912E
:10199000BF91AF919F918F910F900FBE0F901F90AD
:1019A0001895E0E8F0E0808182608083E1E8F0E073
:1019B00080818A61808380ED97E090938700809397
:1019C0008600EFE6F0E0808181608083789408955E
:1019D0001F920F920FB60F9211248F939F93AF9384
:1019E000BF938091300490913104A0913204B09162
:1019F00033040196A11DB11D8093300490933104EE
:101A0000A0933204B093330481E080932F04BF91FC
:101A1000AF919F918F910F900FBE0F901F901895CF
:101A200080912F04813009F04DC010922F040E9444
:101A3000100F8091030190910401883E23E09207EA
:101A400030F40196909304018093030108C00E9432
:101A5000D11081E090E09093040180930301809184
:101A60000201853020F48F5F80930201089581E0A8
:101A7000809302010E94110F8091030180FD22C01A
:101A80000E94120F80910101853020F48F5F8093B6
:101A90000101089581E0809301010E94130F80915C
:101AA000030181FD0FC00E94140F80910001853059
:101AB00020F48F5F80930001089581E080930001FE
:101AC0000E94150F08950E94D10C0E940F0E0E94D3
:101AD000DC0B0E94740C0E94CC000E94360B0E940A
:101AE000100D0E94D210F3CFCF93DF939B01AC0176
:101AF000C8ECD0E088818068888360E271EA87E082
:101B000090E00E940212215031093093CE002093C0
:101B1000CD0088818F608883539A5498DF91CF914C
:101B200008959091C90094FD04C08093D20081E093
:101B3000089580E00895CF93DF93EC018881882396
:101B400049F088810E94910D8823D9F321968881DC
:101B50008111F7CFDF91CF910895FC019091C900D9
:101B6000892F817090FF04C08091D200808381E032
:101B700008951F920F920FB60F9211242F938F93F7
:101B80009F93EF93FF938091C90080FF19C0E0916C
:101B90009504F09196048091D20080838091950401
:101BA0009091960401969093960480939504895A97
:101BB000944031F489E994E09093960480939504DD
:101BC0008091C90081FF21C0E0919704F0919804B1
:101BD0008081882369F080818093D200809197046E
:101BE00090919804019690939804809397040DC067
:101BF00081E080930501EAECF0E080818D7F8083B5
:101C0000E9ECF0E0808182608083FF91EF919F9109
:101C10008F912F910F900FBE0F901F9018954F929C
:101C20005F927F928F92AF92BF92CF92DF92EF92AC
:101C3000FF920F931F93CF930E94D70B8CE60E94C5
:101C40009E0B419A83ED0E949E0B729860E072ECAD
:101C500081E090E00E94740D84EF91E00E9494096D
:101C600080E20E941A0C8CB58C608CBD60E174EA35
:101C700088EA91E60E94E003C1E00F2EF6EAAF2E5B
:101C8000F6E0BF2EF02D0F2EFAEA4F2EF6E05F2E73
:101C9000F02D812C772473944091300450913104BD
:101CA000609132047091330448535F4F6F4F7F4F00
:101CB0008091300490913104A0913204B0913304AA
:101CC000481759076A077B0798F780E593E00E9459
:101CD0009B0D10E31C0F812F0E94910D8823D9F3D7
:101CE0008DEE94E00E947504813031F488E593E034
:101CF0000E949B0DC72DD0CF0F2EF5E7CF2EF6E01B
:101D0000DF2EF02D0F2EF1E7EF2EF6E0FF2EF02D57
:101D100004E716E02FE636E043E756E06DE676E0AE
:101D20008DEE94E00E948E0583E00E941007809162
:101D30006F0690917006893A914630F485E693E0FB
:101D40000E949B0D172D01C0182D80916D0690915A
:101D50006E068031944AC8F184E793E00E949B0D9F
:101D60001F5F33C0133028F482E893E00E949B0D7C
:101D70001F5F112359F08DE893E00E949B0D105DC9
:101D8000812F0E94910D8823D9F3C82D40913004F2
:101D900050913104609132047091330448515C4F8A
:101DA0006F4F7F4F8091300490913104A0913204A5
:101DB000B0913304481759076A077B0798F7CF5F3C
:101DC000C53008F469CF729A1DC0F50180819181F8
:101DD000A281B38180379741A105B1053CF0133052
:101DE00040F682E893E00E949B0D1F5FF201808124
:101DF0009181A281B38180379741A105B1050CF093
:101E0000B1CFB7CFCF911F910F91FF90EF90DF909F
:101E1000CF90BF90AF908F907F905F904F9008953C
:101E2000089508950895089508958F929F92AF920E
:101E3000BF92CF92DF92EF92FF920F931F93CF93B7
:101E4000DF931F92CDB7DEB78DEE94E00E9475044C
:101E50008093E406813041F48AE593E00E949B0D73
:101E600081EF93E00E949B0D0F2EF5E7CF2EF6E059
:101E7000DF2EF02D0F2EF1E7EF2EF6E0FF2EF02DE6
:101E800004E716E02FE636E043E756E06DE676E03D
:101E90008DEE94E00E948E05CE0101960E94AD0D5C
:101EA000882309F46BC18981803319F0813349F0AB
:101EB0000DC0EBEEF4E08081897E80830E94B20247
:101EC00005C0EBEEF4E08081866180838091EB04B5
:101ED000867121F480E38093060115C0863109F5EF
:101EE00081E38093060140919A0650919B06609190
:101EF0006F067091700626E736E08DEE94E00E9442
:101F000021060E94B2028091EB04867151F40E9476
:101F1000B20210927706109276061092790610920D
:101F2000780683E00E94100786E993E00E949B0DEB
:101F30004AE06AED76E080916F06909170060E940B
:101F4000561388E993E00E949B0D0AED16E0F80114
:101F500080810E94910D8823D1F38CE20E94910D23
:101F60008823D9F38BED96E00E949B0D88EA93E0DD
:101F70000E949B0D809174064AE06AED76E090E045
:101F80000E9456138AED96E00E949B0D4AE06AED8E
:101F900076E080917106909172060E94561381EB53
:101FA00093E00E949B0D0AED16E0F80180810E94EB
:101FB000910D8823D1F38CE20E94910D8823D9F3EF
:101FC0008BED96E00E949B0D4AE06AED76E08091F1
:101FD0006D0690916E060E94561383EC93E00E946A
:101FE0009B0D0AED16E0F80180810E94910D882377
:101FF000D1F38CE20E94910D8823D9F38BED96E00A
:102000000E949B0D88EA93E00E949B0D80917306CD
:102010004AE06AED76E090E00E9456138AED96E081
:102020000E949B0D06EA16E00F2EFEEAAF2EF6E0A8
:10203000BF2EF02D0F2EF4E6CF2ED12CE12CF12C5B
:10204000F02D4801F8016081718182819381A7019F
:1020500096010E942412DA01C9014AE06AED76E095
:102060000E944B1385ED93E00E949B0D8AED96E054
:102070000E949B0D8CE20E94910D8823D9F30C5F86
:102080001F4FF4016081718182819381A7019601C4
:102090000E942412DC01CB014AE06AED76E00E9446
:1020A0004B138AED96E00E949B0D0A151B0549F61D
:1020B0008FED93E00E949B0D0F2EFEEAEF2EF6E0CF
:1020C000FF2EF02D00E010E00F2EFDECCF2EF02DB6
:1020D000D02EF70181917F010F5F1F4F4AE06AED1B
:1020E00076E090E00E9456138AED96E00E949B0DE8
:1020F00084EF93E00E949B0DDC9C812D112486953A
:1021000086958695880F982F990F990F890FD81269
:1021100006C00130E9F281EF93E00E949B0D0B3283
:10212000B8F280916E048C6080936E0486EF93E029
:102130000E949B0D809106010E94910D8823D1F38E
:1021400084E094E00E949B0D83E194E00E949B0D4B
:1021500080916F0690917006883A914638F0809190
:102160006D0690916E068131944A10F072980BC002
:10217000729A09C080E380930601C5CE8091EB047A
:102180008671C1F3ABCE0F90DF91CF911F910F916C
:10219000FF90EF90DF90CF90BF90AF909F908F9087
:1021A000089508950895CF92DF92EF92FF920F93D2
:1021B0001F93CF93DF93CDB7DEB72D970FB6F8946B
:1021C000DEBF0FBECDBFC982DA82EB82FC820D83F7
:1021D0001E832F83388749875A876B877C878D8733
:1021E00089819A81AB81BC81843026E09207A10568
:1021F000B10509F457C070F4823026E09207A105BA
:10220000B105B1F108F041C081309640A105B1059A
:1022100011F16EC0863026E09207A105B10509F4E0
:102220005BC008F44CC0823027E09207A105B105DD
:1022300031F083309740A105B10539F059C0EBEE7C
:10224000F4E080818661808353C0EBEEF4E080810E
:10225000897E80834DC0FE013696AEEAB6E09E01CF
:10226000225F3F4F81918D93E217F307D9F740C06A
:10227000FE013696A6EBB6E09E01225F3F4F8191AC
:102280008D93E217F307D9F733C0FE013696AEEB14
:10229000B6E09E01245F3F4F81918D93E217F307D3
:1022A000D9F726C0FE013696A4ECB6E09E01225F67
:1022B0003F4F81918D93E217F307D9F719C0FE01C3
:1022C0003696ACECB6E09E01225F3F4F81918D9334
:1022D000E217F307D9F70CC0FE013696A4EDB6E07D
:1022E0009E01245F3F4F81918D93E217F307D9F749
:1022F0002D960FB6F894DEBF0FBECDBFDF91CF9104
:102300001F910F91FF90EF90DF90CF9008958F92E3
:102310009F92AF92BF92CF92DF92EF92FF920F9374
:102320001F93CF93DF93CDB7DEB72D970FB6F894F9
:10233000DEBF0FBECDBF833039F18730A9F18230C7
:1023400009F041C0EDE6F6E0808191819F838E83A4
:10235000809173068887E1E7F6E0808191819A8712
:102360008987EFE6F6E0808191819C878B87809159
:1023700074068D8748E00F2EFEEF8F2EF7E09F2E1C
:10238000A12CB12CF02D1FC0E6E7F6E090818181F1
:102390009E838F8342E00F2EFDEF8F2EF7E09F2E5E
:1023A000A12CB12CF02D0FC08091290490912A040A
:1023B0009F838E8342E00F2E88248A94F7E09F2E1D
:1023C000A12CB12CF02DCE80DF80E884F9840A8521
:1023D0001B852C853D85C501B4010E94B60A2D964A
:1023E0000FB6F894DEBF0FBECDBFDF91CF911F9126
:1023F0000F91FF90EF90DF90CF90BF90AF909F90A4
:102400008F900895A1E21A2EAA1BBB1BFD010DC0DF
:10241000AA1FBB1FEE1FFF1FA217B307E407F50794
:1024200020F0A21BB30BE40BF50B661F771F881F70
:10243000991F1A9469F760957095809590959B0106
:10244000AC01BD01CF010895052E97FB1EF4009449
:102450000E943B1257FD07D00E94021207FC03D0D6
:102460004EF40C943B1250954095309521953F4F7A
:102470004F4F5F4F089590958095709561957F4F70
:102480008F4F9F4F0895EE0FFF1F0590F491E02DA1
:102490000994689401C0E894F92FF12B12F00C9480
:1024A0007D12A0E0B0E0E7E5F2E10C94EF12092E16
:1024B000059422F40E94D912112392F4F0E80F2619
:1024C000FFEFE094F09400951095B094C094D094F0
:1024D000A194BF0ACF0ADF0AEF0AFF0A0F0B1F0BF6
:1024E0000E94881207FC0E94D912CDB7DEB7ECE03B
:1024F0000C940B13689401C0E8948F929F92CF9331
:10250000DF930E948812DF91CF919F908F90089562
:1025100088249924F401E401B0E49F93AA279A1532
:102520008B049C04ED05FE05CF05D007A10798F4A8
:10253000AD2FDC2FCF2FFE2FE92D982C892E982F31
:10254000872F762F652F542F432F322F2227B850F5
:1025500031F7BF9127C01B2EBF91BB27220F331F1E
:10256000441F551F661F771F881F991F881C991CC1
:10257000EE1FFF1FCC1FDD1FAA1FBB1F8A149B0469
:10258000EC05FD05CE05DF05A007B10748F08A1868
:102590009B08EC09FD09CE09DF09A00BB10B2160F6
:1025A0001A94E1F62EF49401AF01BE01CD01000CA6
:1025B00008956095709580959095309540955095CB
:1025C00021953F4F4F4F5F4F6F4F7F4F8F4F9F4F23
:1025D00008952F923F924F925F926F927F928F92C7
:1025E0009F92AF92BF92CF92DF92EF92FF920F93A2
:1025F0001F93CF93DF93CDB7DEB7CA1BDB0B0FB6AC
:10260000F894DEBF0FBECDBF09942A883988488868
:102610005F846E847D848C849B84AA84B984C884FE
:10262000DF80EE80FD800C811B81AA81B981CE0FF5
:10263000D11D0FB6F894DEBF0FBECDBFED010895DA
:102640000F93083090F0982F872F762F652F542FF7
:10265000432F322F22270850F4CF220F331F441F5D
:10266000551F661F771F881F991F0A95B2F70F9194
:1026700008952A0D3B1D4C1D5D1D6E1D7F1D801F85
:10268000911F08952A193B094C095D096E097F09BC
:10269000800B910B0895BB274A3031F4992322F423
:1026A000BDE2909581959F4F0C945713BB27FB017A
:1026B0005527AA27880F991FAA1FA41710F0A41B3B
:1026C00083955051B9F7A05DAA3308F0A95DA19395
:1026D000009779F7B111B1931192CB010C9470135B
:1026E000DC01FC01672F71917723E1F7329704C079
:1026F0007C916D9370836291AE17BF07C8F3089504
:04270000F894FFCF7B
:1027040001010101000130504543207374696D6D6E
:1027140074206E6963687421004665686C65722074
:10272400626569207265616420636F6E6669670023
:102734004665686C657220626569204B6F6E6669D8
:10274400672D566572676C656963682100463200BF
:10275400000099C5ABCE320BCFD8561D6416FDD3FD
:1027640007F49E31AC3A35FFC82C51E963E2FA27ED
:1027740097AD0E683C63A5A65875C1B0F3BB6A7EDD
:102784009059099C3B97A2525F81C644F44F6D8ACD
:102794002E5BB79E85951C50E18378464A4DD388BD
:1027A40029AFB06A82611BA4E6777FB24DB9D47CAD
:1027B400B9F6203312388BFD762EEFEBDDE044259D
:1027C400BE0227C715CC8C0971DAE81FDA1443D18D
:1027D400C5F35C366E3DF7F80A2B93EEA1E538207D
:1027E400C2075BC269C9F00C0DDF941AA6113FD46D
:1027F400525ECB9BF99060559D8604433648AF8D5D
:1028040055AACC6FFE6467A19A7203B731BCA8794C
:10281400EBA8726D4066D9A32470BDB58FBE167B3C
:10282400EC5C75994792DE572384BA41884A118F2C
:102834007C05E5C0D7CB4E0EB3DD2A18181381D61C
:102844007BF1E234D03F49FAB4292DEC1FE786220C
:1028540013A28A67B86C21A9DC7A45BF77B4EE71FC
:1028640014568D93BF98265DDB8E424B7040E985EC
:10287400840F1DCA2FC1B6044BD7D212E01979DCDC
:1028840083FB1A3E2835B1F04C23D5E6E7ED7E28CC
:102894003DF9A43C96370FF2F2216BE459EFC02ABC
:1028A4003A0DA3C891C30806F5D56C105E1BC7DEAC
:1028B400AA543391019A985F658CFC49CE4257879C
:1028C400ADA03465066E9FAB6278FBBDC9B650738C
:1028D400D6514F947D9FE45A1989804CB2472B827C
:1028E400D1A548607A6BE3AE1E7D87B8B5B32C766C
:1028F40041FCD839EA3273F78E2417E125EABC2F5C
:102904004608DFCDEDC6740389D01015221EBBDB4B
:10291400F80A61CF53C4CA0137D2AE179C1C05D93B
:10292400FFFE663B5430CDF53026A9E39BE8022D2B
:102934006FA7F662C4695DACA07F39BA0BB192741B
:102944006853F196C39D5A58A78B3E4E0C4595800B
:102954000D0A54657374200009095045432D4665DA
:10296400686C65720009556E646572766F6C74618B
:1029740067652100094F766572766F6C74616765CF
:102984002100094F76657274656D702100094665F2
:10299400686C657220000C00206D696E2E20566FE5
:1029A4006C746167653A2000092043656C6C3A20B9
:1029B400000D0A206176672E20566F6C746167657E
:1029C4003A20000D0A206D61782E20566F6C7461D8
:1029D40067653A20000D0A0A2054656D7020000DC9
:1029E4000A45787465726E616C2053656E736F72FC
:1029F400730D0A0009000D0A0A204D6F64653A2020
:102A0400202020000D0A203C313E2043686172677B
:102A14006520000D0A203C303E2044726976652012
:022A24000000B0
:00000001FF
