:100000000C94AD000C94CA000C94CA000C94CA0065
:100010000C94CA000C94CA000C94CA000C94CA0038
:100020000C94CA000C94CA000C94CA000C94CA0028
:100030000C94CA000C94CA000C94040F0C94CA00CF
:100040000C94CA000C94CA000C94CA000C94CA0008
:100050000C94E60F0C94CA000C94CA000C94CA00CD
:100060000C94CA000C94CA000C94BC0E0C94CA00E8
:100070000C94CA000C94CA000C94CA00D30DDD0D78
:10008000D50DF80DCB0DCD0DCF0DD10DD70DD90D53
:10009000DB0DF10DF30DF50DF70DF80DF80DF80D65
:1000A000F80DF80DF80DF80DF80DF80DF80DF80D28
:1000B000F80DF80DF80DF80DF80DF80DF80DF80D18
:1000C000F80DF80DF80DF80DF80DF80DF80DF80D08
:1000D000F80DF80DF80DF80DF80DF80DF80DF80DF8
:1000E000F80DF80DF80DF80DF80DF80DF80DF80DE8
:1000F000F80DF80DF80DF80DF80DF80DF80DF80DD8
:10010000F80DF80DF80DF80DF80DF80DF80DF80DC7
:10011000F80DF80DF80DF80DF80DF80DF80DF80DB7
:10012000F80DF80DF80DF80DF80DF80DF80DF80DA7
:10013000F80DF80DF80DF80DF80DF80DF80DF80D97
:10014000F80DF80DF80DEF0DF80DED0DEB0DE90DB7
:10015000E70DE50DE30DE10DDF0D11241FBECFEF1F
:10016000D0E1DEBFCDBF16E0A0E0B1E0EAE0F4E30D
:1001700002C005900D92A03FB107D9F72AE0A0EF89
:10018000B6E001C01D92A033B207E1F70E947F0FD5
:100190000C94031A0C94000080E480937C00EAE73E
:1001A000F0E084E080838081806880838081806447
:1001B0008083808186FDFDCF8091780090917900C9
:1001C00008959093F3068093F2061092F40680FD52
:1001D0000BC021E09695879531E0320F80FD02C07B
:1001E000232FF8CF2093F406ECE7F0E08081909184
:1001F000F4069F71807E892B8083EAE7F0E080819E
:100200008064808381E08093F50608958091F506EF
:10021000882309F447C080917A0086FD43C040914D
:10022000F406E42FF0E08091780090917900EE0FD1
:10023000FF1FE05FF84F9183808381E090E0042E00
:1002400002C0880F991F0A94E2F72091F0063091BE
:10025000F106822B932B9093F1068093F006209168
:10026000F2063091F3064F5F50E005C04A3010F4BB
:100270004F5F01C0452FC901042E02C09695879596
:100280000A94E2F780FFF2CF4093F406ECE7F0E047
:1002900080814F71807E482B4083EAE7F0E08081C7
:1002A000806480830895CF93DF93EC01FB01888104
:1002B0009981009749F0929582958F7089279F7058
:1002C000892701979983888380819181929582956E
:1002D0008F7089279F70892791838083ABE2B7E075
:1002E00084E28C93888111968C93119788819981EF
:1002F00088279F7080818295807F892B12968C93AE
:10030000129780819181807F9F70929582958F70E6
:1003100089279F70892713968C93139714961C92A4
:10032000149715961C9288819981019682959295D1
:10033000907F9827807F98279983888380819181F7
:1003400082959295907F9827807F982791838083CC
:10035000DF91CF910895CF93C0916E07C11117C05F
:1003600060936C07662369F0E82FF92F20E030E0F6
:100370009191D901A45BB84F9C932F5F3F4F2617F3
:10038000B8F341980E94810E8823E1F30DC0C0911B
:100390006F07C11103C00E949A0E06C080916F07BB
:1003A000C1E0813009F0C0E08C2FCF910895EBE2DD
:1003B000F7E0848388279F706295607F692B65834F
:1003C0000895BF92CF92DF92EF92FF920F931F9307
:1003D000CF93DF9300D000D0CDB7DEB719828091E4
:1003E0002607882309F442C0B12C0F2EFCE4CF2E3F
:1003F000F7E0DF2EF02D04E810E00F2EF6E8EF2EE8
:10040000F12CF02D61E0CE0101960E94AB01882312
:10041000C9F3419AF60112A2F8014081518150932B
:100420002A07409329079A01275E3F4FF8018081F0
:1004300091812817390728F0808191814817590741
:10044000A8F3F801808191818417950750F4808189
:100450009181F70160817181860F971F8217930741
:1004600028F3B39480912607B81660F283E089835D
:1004700080E68A8384EF8B838CE68C8364E0CE01F4
:1004800001960E94AB018823C9F3419A10926E072E
:100490000F900F900F900F90DF91CF911F910F91C0
:1004A000FF90EF90DF90CF90BF900895662309F101
:1004B000DC016150462F50E04F5F5F4F480F591FDE
:1004C00080E190E06D91382F2227FC01EE0FEF2F95
:1004D000EE1FFF0BF195E627FF27EE0FFF1FE35FEF
:1004E000FE4F8081918182279327A417B50751F78A
:1004F00002C080E190E0880F991F0895DF92EF928B
:10050000FF920F931F93CF93DF938C01D62E44233A
:1005100021F084E08617A0F01FC0FC01108282E069
:10052000818362E0C8010E945602F80192838383AE
:1005300064E0C8010E94AB018823D1F380E042C08F
:10054000F80134968BEF860F90E00596800F911F8F
:100550001192E817F907E1F7E8012496EC2EFD2E39
:1005600068E0CE010E94AB018823C1F3F4E0FD15E1
:10057000C0F4EC2FFD2F4BEF4D0D50E04B5F5F4F64
:10058000400F511F8CEF9FEF801B910BDC01AE0FD2
:10059000BF1FA45BB84F50962C912193E417F50729
:1005A000A9F766E08E2D9F2D0E945602382FF80184
:1005B0002285291306C081E09385931303C080E050
:1005C00001C081E0DF91CF911F910F91FF90EF90DB
:1005D000DF9008959F92AF92BF92CF92DF92EF92F9
:1005E000FF920F931F93CF93DF93CDB7DEB768973A
:1005F0000FB6F894DEBF0FBECDBF198281E08A83AB
:1006000062E0CE0101960E9456029B838C8380910A
:100610002607882309F444C0B12C0F2EFCE4CF2E0A
:10062000F7E0DF2EF02D04E810E00F2EF6E8EF2EB5
:10063000F12CF02D61E0CE0101960E94AB018823E0
:10064000C9F3419AD60192961C92F80140815181DA
:1006500050932A07409329079A01275E3F4FD801FC
:100660008D919C9111972817390728F08D919C91B5
:1006700048175907A0F3F8018081918184179507E5
:1006800050F480819181D7016D917C91860F971FE5
:100690008217930720F3B39480912607B81650F27F
:1006A00064E0CE0101960E94AB018823C9F3109249
:1006B0006E07E0912607EE2309F44EC0B12C0F2EF1
:1006C000FBECCF2EF7E0DF2EF02D0BE217E00F2E24
:1006D000FCE4EF2EF7E0FF2EF02DD6018C9186FF83
:1006E0000DC0F0E0EB19F109EE0FFF1FE55AF64FD0
:1006F00061E0808191810E94D70103C0F8011482DA
:100700001582D8018C918D8311968C9111978E83CF
:1007100012968C9112978F8313968C9113978887DA
:1007200014968C911497898715968C918A8766E028
:10073000CE0105960E9456029B878C8768E0CE0109
:1007400005960E94AB018823C9F3F70112A2B39466
:10075000E0912607BE1608F2419A10926E0710E04B
:100760000F2EFBECEF2EF7E0FF2EF02D0F2EFBE20D
:10077000AF2EF7E0BF2EF02D6894992491F800E099
:100780000F2EFCE4CF2EF7E0DF2EF02D412F6CE092
:10079000CE010D960E947E02882329F0419A109284
:1007A0006E0781E02BC0D7019C9196FD1CC01123E0
:1007B000D1F0F50191812A8929130BC0FE017396AE
:1007C000292D302F4191D901A55DB84F9C91491732
:1007D00029F0419A10926E0781E010C02F5F3F4FC1
:1007E0002630310579F7D60192961C921F5F9091C1
:1007F0002607911758F6419A10926E0768960FB621
:10080000F894DEBF0FBECDBFDF91CF911F910F9146
:10081000FF90EF90DF90CF90BF90AF909F900895A2
:10082000BF92CF92DF92EF92FF920F931F93CF93DD
:10083000DF931F92CDB7DEB71982EBE2F7E01682A5
:1008400084E0878397E0908792EC9187128696E008
:1008500093879AE9948794E99587168698E0978715
:100860009EE5908B92E5918B128A9AE0938B93ECA4
:10087000948B858B90912607992341F0EDE5F9E063
:1008800080E0119211928F5F8917D8F31092CB07F5
:1008900088EA91E69093A2098093A10980E194EA05
:1008A0009093A4098093A30963EA79E081EA99E02F
:1008B0000E94530180912607882309F442C0B12C7D
:1008C0000F2EFCE4CF2EF7E0DF2EF02D04E810E031
:1008D0000F2EF6E8EF2EF12CF02D61E0CE010196FF
:1008E0000E94AB018823C9F3419AF60112A2F801D4
:1008F0004081518150932A07409329079A01205E35
:100900003C4FF801808191812817390728F08081B8
:10091000918148175907A8F3F801808191818417C4
:10092000950750F480819181F70160817181860F74
:10093000971F8217930728F3B39480912607B81660
:1009400060F20E94EA020F90DF91CF911F910F9108
:10095000FF90EF90DF90CF90BF9008952F923F923D
:100960004F925F926F927F928F929F92AF92BF92BF
:10097000CF92DF92EF92FF920F931F93CF93DF936B
:10098000CDB7DEB768970FB6F894DEBF0FBECDBF08
:100990006C010E94E101209184003091850040911A
:1009A000FE065091FF0660910007709101074E5FAF
:1009B0005F4F6F4F7F4F8091FE069091FF06A09191
:1009C0000007B091010784179507A607B70798F3AA
:1009D000E4E8F0E08081918128173907D8F7409149
:1009E0008400509185009A0128513C4FE4E8F0E0E2
:1009F000A6E8B0E0808191812817390728F080812E
:100A0000918148175907B0F3808191818417950728
:100A100008F092C0808191816D917C911197860F31
:100A2000971F8217930730F3188E1F8A812C912C01
:100A300087C01192EA15FB05E1F764E0CE0101964B
:100A40000E94AB018823C9F3F80112A28091260706
:100A5000882309F461C0EF88F88C512C68E0862D5A
:100A6000972D0E94AB018823C9F3E32DF42D822D2D
:100A700090E0DC01A45BB84F50962C912193019635
:100A800088309105B1F766E0832D942D0E945602BF
:100A90002B8930E0322F22274C89242B2817390745
:100AA00091F5852D90E0FC01EE0FFF1FE80FF91F77
:100AB000EE0FFF1FEE0FFF1FEE0FFF1FEE0DFF1DCE
:100AC000EC0DFD1D8E8590E0982F88272D85822BBB
:100AD00091838083888990E0982F88272F85822BA7
:100AE000938382838A8990E0982F88272989822B93
:100AF00095838483F80112A2539480912607581697
:100B000008F4ACCF09C087E091E00E94C80F419A79
:100B100010926E0781E03DC0419AF80112A2FFEFEA
:100B20008F1A9F0A8F89988D0696988F8F8B94E0E5
:100B300089169104A1F42CC0188E1F8A812C912C47
:100B4000FE013596FE8BED8B5E01FDE0AF0EB11C14
:100B50000CE417E06D887E883A2C4B2C212CF40194
:100B6000EE0FFF1FEE0FFF1FE55DF84F86818983B3
:100B700087818A83D401AA0FBB1FAA0FBB1FAD5C5C
:100B8000B84F8C918B8381858C83FE01359651CF34
:100B900080E068960FB6F894DEBF0FBECDBFDF9140
:100BA000CF911F910F91FF90EF90DF90CF90BF906A
:100BB000AF909F908F907F906F905F904F903F90FD
:100BC0002F900895AF92BF92CF92DF92EF92FF9253
:100BD0000F931F93CF93DF9300D000D0CDB7DEB734
:100BE000A82E198280912607882309F442C0B12CCF
:100BF0000F2EFCE4CF2EF7E0DF2EF02D04E810E0FE
:100C00000F2EF6E8EF2EF12CF02D61E0CE010196CB
:100C10000E94AB018823C9F3419AF60112A2F801A0
:100C20008081918190932A0780932907AC01475EC8
:100C30005F4FF801208131814217530728F020814E
:100C4000318182179307A8F3F80120813181281799
:100C5000390750F420813181F70160817181260FBD
:100C6000371F2417350728F3B39480912607B81649
:100C700060F285E08983F3E0AF16D1F0FA1538F021
:100C800081E0A81679F0E2E0AE1679F008C0F5E050
:100C9000AF16A1F0AF1678F086E0A81691F080E6C6
:100CA0008A8311C081E68A830EC082E68A830BC0E4
:100CB00083E68A8308C084E68A8305C085E68A8342
:100CC00002C086E68A8362E0CE0101960E94560247
:100CD0009B838C8364E0CE0101960E94AB01882344
:100CE000C9F3419A10926E070F900F900F900F90DA
:100CF000DF91CF911F910F91FF90EF90DF90CF90F8
:100D0000BF90AF9008952F923F924F925F926F9253
:100D10007F928F929F92AF92BF92CF92DF92EF928B
:100D2000FF920F931F93CF93DF93CDB7DEB76F97EB
:100D30000FB6F894DEBF0FBECDBF0E94E205209132
:100D4000840030918500E4E8F0E0A901465D5C4F45
:100D5000A6E8B0E0B9016C577C4F808191814817BB
:100D6000590728F08081918128173907B0F38081D5
:100D700091818217930750F4808191810D911C918C
:100D80001197800F911F8617970738F386E00E940E
:100D9000E2052091840030918500E4E8F0E0A901AB
:100DA000465D5C4FA6E8B0E0B9016C577C4F80818E
:100DB00091814817590728F08081918128173907B8
:100DC000B0F3808191818217930750F480819181E3
:100DD0000D911C911197800F911F8617970738F37B
:100DE00019828CE08A8362E0CE0101960E9456024D
:100DF0009B838C837E0105E0E00EF11C6E011DE0FB
:100E0000C10ED11CF7011192EC15FD05E1F764E06C
:100E1000CE0101960E94AB018823C9F310926E07A0
:100E200080912607882309F444C0B12C912CA12C71
:100E30000CE417E068E0CE0105960E94AB01882320
:100E4000C9F3FE013D96892D9A2DDC01A45BB84FB4
:100E500050962C912193019688309105B1F766E068
:100E6000CE010D960E9456022B8930E0322F2227A8
:100E70004C89242B28173907B9F4EB2DF0E0EE0F3D
:100E8000FF1FEB55F64F8A8990E0982F8827298914
:100E9000822B91838083D80192961C92B394809187
:100EA0002607B81638F205C0419A10926E0781E005
:100EB000DFC1419A10926E0719828EE08A8362E048
:100EC000CE0101960E9456029B838C83F7011192FA
:100ED000CE16DF06E1F764E0CE0101960E94AB0179
:100EE0008823C9F310926E0780912607882309F49E
:100EF00047C0F12CD12CE12C0CE417E068E0CE01C6
:100F000005960E94AB018823C9F3FE013D968D2D05
:100F10009E2DDC01A45BB84F50962C912193019635
:100F200088309105B1F766E0CE010D960E94560219
:100F30002B8930E0322F22274C89242B28173907A0
:100F4000B1F4EF2DF0E0EE0FFF1FEB53F64F8A895F
:100F500090E0982F88272989822B91838083F8013C
:100F600012A2F39480912607F81640F209C08AE095
:100F700091E00E94C80F419A10926E0781E078C1FB
:100F8000419A10926E07F0912607FD8FFF2309F416
:100F900064C10F2EF5EA4F2EF9E05F2EF02D05EE1D
:100FA00019E0712C48016F2ED2018D919D912D0178
:100FB0005C018D8BBE8A282F3B2D40E050E060E025
:100FC00070E080E090E005E00E948119C12CD12CF6
:100FD000E12CF12C00E010E00E94A319A22EB32E08
:100FE000C42ED52EE62EF72EE82F192F06E00E94EC
:100FF00081190E2F0E94A31903E00E948119AD8868
:10100000BE88C12CD12CE12CF12C00E010E00E9414
:101010009A1906E00E9481195E96ED91FC915F9706
:101020005F01C12CD12CE12CF12C8701ED8BBE8A04
:10103000CF8AD88EE98EFA8E0B8F1C8FC12CD12CC3
:10104000E12CF12C00E010E00E94AC18E22EF32E0F
:10105000042F152FB62FA72FF82FD92E2F3DE6EEF0
:101060003E07EBE04E0751056105710581059105CD
:1010700031F12CF1205E364E4B4051096109710966
:10108000810991090F2EFAEBAF2EF02DBB24BA94F3
:10109000CC24CA94DD24DA94EE24EA94FF24FA9452
:1010A0000FEF1FEF0E94AC18D4012C9311963C93C4
:1010B000119712964C93129713965C9399C02E2D0C
:1010C0003F2D402F512F6B2F7A2F8F2F9D2D2F319A
:1010D000E0E33E07E5E04E07510561057105810536
:1010E000910531F12CF1205E364E4B4051096109DA
:1010F0007109810991090F2EF2E9AF2EF02DBB2461
:10110000BA94CC24CA94DD24DA94EE24EA94FF2421
:10111000FA940FEF1FEF0E94AC18D4012C93119694
:101120003C93119712964C93129713965C9360C060
:101130002E2D3F2D402F512F6B2F7A2F8F2F9D2D2E
:10114000273DEAEC3E07E2E04E07510561057105D7
:101150008105910509F02CF520513A474740510986
:1011600061097109810991090F2EFDECAF2EF02D57
:10117000BB24BA94CC24CA94DD24DA94EE24EA94F5
:10118000FF24FA940FEF1FEF0E94AC18D4012C93A8
:1011900011963C93119712964C93129713965C9369
:1011A00027C02E2D3F2D402F512F6B2F7A2F8F2FA1
:1011B0009D2D2858374D4940510961097109810910
:1011C00091090F2EF3EBAF2EF02DBB24BA94CC2453
:1011D000CA94DD24DA94EE24EA94FF24FA940FEF03
:1011E0001FEF0E94AC18F4012083318342835383A4
:1011F0007394F4E08F0E911C761408F4D5CE4091D0
:10120000E5095091E6096091E7097091E8090D8DB3
:10121000023018F1E9EEF9E0202F225030E0220FE1
:10122000331F220F331F2351364F1E8D0F8DF22C8B
:10123000E32C81919191A191B191481759076A07C7
:101240007B0724F4182F092FFA2EEB2EE217F30751
:1012500081F71E8F0F8F2F2C3E2C1E8D1093250A89
:101260002F8D2093260A2092270A3092280A80E0A8
:101270006F960FB6F894DEBF0FBECDBFDF91CF9152
:101280001F910F91FF90EF90DF90CF90BF90AF90A4
:101290009F908F907F906F905F904F903F902F9096
:1012A0000895EF92FF920F931F93CF93DF938C01DA
:1012B00080912607882361F180E0E12CF12CA1E0E8
:1012C000B0E0282F30E0F801E20FF31F1082220F68
:1012D000331FE901C35FDC4F688179812E2D3F2DDB
:1012E000AD01022E02C0440F551F0A94E2F74623B7
:1012F0005723452B19F090819F5F90832F5F3F4FBD
:101300002C30310569F78F5F909126078917C8F255
:10131000DF91CF911F910F91FF90EF9008952F9241
:101320003F924F925F926F927F928F929F92AF9275
:10133000BF92CF92DF92EF92FF920F931F93CF93C2
:10134000DF93CDB7DEB761970FB6F894DEBF0FBE5F
:10135000CDBF1C01798768875B874A873D872C87CB
:101360001F870E872DB73EB7398B288B80912607B4
:101370004DB75EB7481B51090FB6F8945EBF0FBE5C
:101380004DBF0DB71EB70F5F1F4FC8010E94510917
:1013900080912607882309F46BC0EDE0F3E0FB831E
:1013A000EA839801815090E00196A801480F591FE7
:1013B0005F834E8360E070E0A12CB12C1982412C38
:1013C000512C3201C12CD12C0F2EF0E58F2EF3ECD5
:1013D0009F2EF02DEE24E394F12C8B013D822C8284
:1013E000190139C0C701022E02C0880F991F0A9443
:1013F000E2F7862397230097C1F040815181440E84
:10140000551E611C711CD501AE0FBF1FA00FB11F6F
:101410004D915C914815590538F0C416D50628F44D
:10142000892B19F06A0101C04A012F5F3F4F3296A4
:101430002C303105B9F6F10181911F01F981F80FC6
:10144000F98328E1A21AB108085E1F4F4E815F811F
:1014500024163506C9F0EA81FB8161917191FB8305
:10146000EA83EC81FD81EA19FB0920E030E0BACF84
:101470001982412C512C3201C12CD12C0F2EF0E5B8
:101480008F2EF3EC9F2EF02DE885F985D182C08256
:10149000EA85FB8591828082F9812F2F30E040E040
:1014A00050E0C301B2010E946318EC85FD853183D1
:1014B00020832981EE85FF852083488959890FB6CD
:1014C000F8945EBF0FBE4DBF61960FB6F894DEBFB5
:1014D0000FBECDBFDF91CF911F910F91FF90EF9085
:1014E000DF90CF90BF90AF909F908F907F906F9044
:1014F0005F904F903F902F9008952F923F925F9270
:101500006F927F928F929F92AF92BF92CF92DF9213
:10151000EF92FF920F931F93CF93DF9300D0CDB73D
:10152000DEB75C018B017A0149012DB63EB6809190
:1015300026072DB73EB7281B31090FB6F8943EBFDA
:101540000FBE2DBF8DB79EB701960E9451098091A5
:101550002607811130C056C06191719162177307DF
:10156000C0F046175707A8F46133754790F0B601ED
:10157000082E02C0660F771F0A94E2F77B01A9814B
:10158000BA816D917C916E217F21672B11F00E291C
:101590001F2901968C309105F9F6E72DF0E0EE0F4A
:1015A000FF1FE80DF91D11830083739480912607B6
:1015B000781668F027C0712C612C512C98012C5999
:1015C0003F4FA7014C595F4FCC24C394D12CA72D7A
:1015D000B0E0FD01EE0FFF1FEA0FFB1FEE0FFF1F34
:1015E000EE0FFF1FEE0FFF1FEA0DFB1D862D952D41
:1015F000062D152DAA0FBB1FBD01635F7C4F7A839B
:101600006983AACF0FB6F8943EBE0FBE2DBE0F90D1
:101610000F90DF91CF911F910F91FF90EF90DF908E
:10162000CF90BF90AF909F908F907F906F905F9082
:101630003F902F9008952F923F924F925F926F921A
:101640007F928F929F92AF92BF92CF92DF92EF9252
:10165000FF920F931F93CF93DF9300D0CDB7DEB7E8
:101660005C018B017A0149012DB63EB680912607B7
:101670002DB73EB7281B31090FB6F8943EBF0FBEF9
:101680002DBF8DB79EB701960E9451098091260704
:10169000811132C0612C58C061917191621773073A
:1016A000C8F046175707B0F46133754798F0B60194
:1016B000082E02C0660F771F0A94E2F77B01A9810A
:1016C000BA816D917C916E217F21672B19F00E29D3
:1016D0001F29639401968C309105F1F6E72DF0E017
:1016E000EE0FFF1FE80DF91D1183008373948091A5
:1016F0002607781670F028C0712C612C512C412CD3
:10170000980128533F4FA70148535F4FCC24C394FF
:10171000D12CA72DB0E0FD01EE0FFF1FEA0FFB1F3C
:10172000EE0FFF1FEE0FFF1FEE0FFF1FEA0DFB1D59
:10173000852D942D052D142DAA0FBB1FBD01635FB0
:101740007C4F7A836983A8CF862D0FB6F8943EBE6E
:101750000FBE2DBE0F900F90DF91CF911F910F9173
:10176000FF90EF90DF90CF90BF90AF909F908F90C1
:101770007F906F905F904F903F902F9008952F92A1
:101780003F924F925F927F928F92AF92BF92CF9291
:10179000DF92EF92FF920F931F93CF93DF931092FC
:1017A000D800883E23E0920749F41092E2008AE0D4
:1017B0008093E3008CE18093E40047C0843FE1E044
:1017C0009E0749F482E08093E2008AE28093E3007E
:1017D0008093E4003AC08A3F910549F486E0809303
:1017E000E2008AE28093E3008093E4002EC08EE062
:1017F0008093E2008AE28093E3008093E40025C0B6
:10180000882E880C880C880C880CF6018082F701E1
:101810001082843018F4F501708202C0F501108244
:10182000F8011082FB011082FA011082F901108286
:10183000F201108218821C92F10110828F5F8630B3
:10184000F9F682E08093D8002AC080E00F2EFDEEEA
:10185000CF2ED12CF02D0F2EFEEEEF2EF12CF02DF1
:101860000F2EFFEEAF2EB12CF02D6894772477F871
:1018700000EF10E061EF70E042EF50E023EF30E066
:101880000F2EF4EF4F2E512CF02DC5EFD0E0A6EF28
:10189000B0E00F2EF7EF2F2E312CF02DB1CFDF91CE
:1018A000CF911F910F91FF90EF90DF90CF90BF905D
:1018B000AF908F907F905F904F903F902F900895C2
:1018C0000F931F93CF93DF931092ED002091DC00D4
:1018D00020FF14C021E030E0CDEED0E0ACEDB0E070
:1018E000E22FE295E07FE883EC91F0E0022E02C067
:1018F000F595E7950A94E2F7E0FD57C02091EF00D7
:10190000322F3F70393018F4EB01388303C038E0D0
:10191000FB01308324FD15C02091F3000091F200FB
:1019200002950695077010E0F8E02F9F000D111D3D
:10193000112420E030E0EC01088319832A833B83E3
:101940001AC0E091F3003E2FE091F2002E2FE091BB
:10195000F1001E2FE091F0000E2F689412F83695DA
:101960002795179507951694D1F73068FC010083E9
:10197000118322833383EB018881882369F0242F2C
:10198000E42FF52FAAEFB0E08C9181939E2F921B4C
:10199000EB0188819817C0F380E88093EF00809175
:1019A000DC0080958E70816007C02F5F3F4F243030
:1019B000310509F095CF80E0DF91CF911F910F9114
:1019C0000895CF92DF92EF92FF920F931F93CF93E0
:1019D000DF93CDB7DEB728970FB6F894DEBF0FBE02
:1019E000CDBFC982DA82EB82FC820D831E832F83F6
:1019F00038872091DC0024FD04C020E42093ED0012
:101A000007C02091DC0025FD42C020E52093ED00B9
:101A1000442361F09E012F5F3F4FF901AAEFB0E030
:101A200051915C935E2F521B5417D0F399237CF095
:101A30001092F000660F771F62957295707F76277F
:101A4000607F76276093F2007093F3001BC0DC0187
:101A5000CB01880F991FAA1FBB1F880F991FAA1FB0
:101A6000BB1F880F991FAA1FBB1F8093F000909384
:101A7000F100A093F2008B2F9927AA27BB27809310
:101A8000F300405F40644093EF0081E001C080E0DC
:101A900028960FB6F894DEBF0FBECDBFDF91CF9171
:101AA0001F910F91FF90EF90DF90CF900895CF920C
:101AB000DF92EF92FF920F931F93CF93DF93CDB7F7
:101AC000DEB72D970FB6F894DEBF0FBECDBF4091A5
:101AD0004B074423D1F18091DC0080738033A9F15E
:101AE0008091F60690E050E0873010F48F5F01C0DF
:101AF000892F9A01082E02C0359527950A94E2F79E
:101B000020FFF2CF8093F6060E94FD1681E090E060
:101B10000090F60602C0880F991F0A94E2F780959C
:101B200090914B07892380934B070FC0C980DA80BF
:101B3000EB80FC800D811E812F81388549855A8577
:101B40006B857C858D850E94B316AE014A5F5F4F21
:101B5000BE016B5F7F4FCE0101960E94600C811128
:101B6000E5CF2D960FB6F894DEBF0FBECDBFDF9147
:101B7000CF911F910F91FF90EF90DF90CF9008953C
:101B800090E0FC01E556F109EF36F10588F5E25CDD
:101B9000FF4F0C94A418509A0895389A0895529AB9
:101BA0000895399A0895269A0895539A0895209A87
:101BB0000895219A0895279A0895549A08956A9A43
:101BC0000895559A0895569A0895229A08953C9A30
:101BD00008953D9A08953E9A0895259A08953F9A4A
:101BE0000895249A0895239A0895519A0895579A2A
:101BF000089583E70E94C00D5F9A08958091FB06C7
:101C00009091FC06892BC9F18091F9069091FA0612
:101C1000892BE1F080916F07882379F15F9A109208
:101C20006E0780915C0790915D07969587959695D4
:101C300087959093F8068093F7061092FA06109213
:101C4000F9061092FC061092FB06089580916E072B
:101C5000811113C08CB5837F8CBD10924D071092FB
:101C60004C0782E080936C075F980E94810E81E0B0
:101C700090E09093FA068093F906089594B19268E3
:101C800094B9539A803109F138F4843091F0883056
:101C9000B1F0823089F507C0803419F1803839F10C
:101CA000803251F518C08DB581608DBD80E58CBD49
:101CB00023C08DB58E7F8DBD80E58CBD1DC08DB5DB
:101CC00081608DBD81E58CBD17C08DB58E7F8DBDCA
:101CD00081E58CBD11C08DB581608DBD82E58CBD67
:101CE0000BC08DB58E7F8DBD82E58CBD05C08DB5D9
:101CF0008E7F8DBD83E58CBD8CB580688CBD78945E
:101D0000089580916E07811113C010926F0781E0D2
:101D100080936E0780936D0780916C07813118F076
:101D200080E180936C0780914C078EBD81E008951F
:101D300080E008950DB407FE1DC0EDE6F7E0A08138
:101D4000B0E08EB5A55BB84F50968C939081809192
:101D50006C07981758F480818F5F8083E081F0E0F2
:101D6000E55BF84F80818EBD80E0089581E080932F
:101D70006F07089580E008951F920F920FB60F929B
:101D800011248F939F93AF93BF93EF93FF93EDE64F
:101D9000F7E0A081B0E08EB5A55BB84F50968C936C
:101DA000908180916C07981750F480818F5F8083B9
:101DB000E081F0E0E55BF84F80818EBD03C081E0FB
:101DC00080936F07FF91EF91BF91AF919F918F919A
:101DD0000F900FBE0F901F901895E0E8F0E0808103
:101DE00082608083E1E8F0E080818A61808380ED19
:101DF00097E09093870080938600EFE6F0E0808183
:101E000081608083789408951F920F920FB60F928D
:101E100011248F939F93AF93BF938091FE0690916F
:101E2000FF06A0910007B09101070196A11DB11D09
:101E30008093FE069093FF06A0930007B0930107DE
:101E400081E08093FD06BF91AF919F918F910F909C
:101E50000FBE0F901F9018958091FD06813009F0FC
:101E60004DC01092FD060E946D118091030190916A
:101E70000401883E23E0920730F401969093040118
:101E80008093030108C00E94B11681E090E0909316
:101E900004018093030180910201853020F48F5F5B
:101EA00080930201089581E0809302010E946E11E7
:101EB0008091030180FD22C00E946F118091010179
:101EC000853020F48F5F80930101089581E0809335
:101ED00001010E9470118091030181FD0FC00E94D9
:101EE000C51280910001853020F48F5F809300013E
:101EF000089581E0809300010E94C61208950E9417
:101F0000ED0E0E943C100E949A0E0E9406010E9453
:101F1000570D06C00E94570D0E949A0E0E9406019E
:101F20000E9477108823B1F30E94FE0D0E949A0E42
:101F30000E9406010E94570D0E942C0F0E94B216AB
:101F4000F3CFCF93DF939B01AC01C8ECD0E0888145
:101F50008068888360E271EA87E090E00E946318FD
:101F6000215031093093CE002093CD0088818F60BD
:101F70008883539A5498DF91CF9108959091C90026
:101F800094FD04C08093D20081E0089580E008951C
:101F9000CF93DF93EC018881882349F088810E94E8
:101FA000BE0F8823D9F3219688818111F7CFDF9165
:101FB000CF910895FC019091C900892F817090FF05
:101FC00004C08091D200808381E008951F920F9217
:101FD0000FB60F9211242F938F939F93EF93FF933C
:101FE0008091C90080FF19C0E0917207F0917307DA
:101FF0008091D2008083809172079091730701963F
:1020000090937307809372078658974031F486E760
:1020100097E090937307809372078091C90081FFC6
:1020200021C0E0917407F09175078081882369F0E1
:1020300080818093D20080917407909175070196FA
:1020400090937507809374070DC081E0809305011C
:10205000EAECF0E080818D7F8083E9ECF0E0808124
:1020600082608083FF91EF919F918F912F910F90CC
:102070000FBE0F901F9018950E94F90D8CE60E94DC
:10208000C00D419A83ED0E94C00D729860E072EC21
:1020900081E090E00E94A10F84EF91E00E94BF0BCD
:1020A0000E94CC0088E290E00E94E10080E10E9462
:1020B0003E0E8CB58C608CBD60E174EA88EA91E6D6
:1020C0000E94100481E080930E0780914B0781608D
:1020D00080934B078DE293E00E94C80F8FE293E05C
:1020E0000E94C80F82E593E00E94C80F0895CF9226
:1020F000DF92EF92FF920F931F93CF93DF93809124
:102100000E07813009F0CAC080910D07813009F0B7
:10211000C5C080910C078111C1C080910B078093CD
:102120002607D1E00F2EF8E5EF2EF9E0FF2EF02D77
:102130000F2EF5E2CF2EFAE0DF2EF02D8BE693E0A6
:102140000E94C80FC0E3CD0F8C2F0E94BE0F8823C2
:10215000D9F38DEC97E00E94AE048130A9F484E7B6
:1021600093E00E94C80F8EE893E00E94C80FEBEC4A
:10217000F7E0808190914B07916090934B078F7EA1
:10218000808310920D0775C003E519E021E539E061
:102190004FE459E06DE479E08DEC97E00E948F09FF
:1021A00083E00E948306F70110821182128213825B
:1021B00080914F0990915009893A9146A8F488EA94
:1021C00093E00E94C80F8EE893E00E94C80FEBECEA
:1021D000F7E0808190914B07916090934B078B7F44
:1021E000808310920D0745C080914D0990914E0952
:1021F0008031944AA8F081EC93E00E94C80F8EE8E9
:1022000093E00E94C80FEBECF7E0808190914B07C0
:10221000916090934B078D7F808310920D0729C0AA
:10222000F60180819181A281B38180379741A10518
:10223000B105ACF089ED93E00E94C80F8EE893E001
:102240000E94C80FEBECF7E0808190914B07916002
:1022500090934B07877F808310920D070AC0D5307B
:1022600021F481E080930C0704C0DF5FD63009F0D1
:1022700065CF80910C07813001F585EF93E00E94D6
:10228000C80F85E194E00E94C80F10920D0780915D
:102290004B07816080934B0780E016C080910F0749
:1022A000813069F480910C07813059F480910D07D9
:1022B000811109C0729A81E007C080E005C080E00A
:1022C00003C080E001C080E0DF91CF911F910F91AA
:1022D000FF90EF90DF90CF900895089508950895AE
:1022E0008FE29AE00E94DA0F8823A1F080912F0AF2
:1022F000803319F0813349F00DC0EBECF7E08081B9
:102300008F7B80830E94EA0205C0EBECF7E08081BE
:10231000806480838091CB0786FD33C180E3809306
:1023200006014091A1095091A20960914F09709155
:1023300050092DE739E08DEC97E00E941B0B80934C
:1023400003078091CB0786FF14C04091A1095091EB
:10235000A20960914F09709150092DE539E08DEC8B
:1023600097E00E947D0A0E94EA028091CB0786FDD9
:1023700012C00E94EA0210922D0A9091260799231A
:1023800051F0EDE5F9E080E0119211928F5F89172D
:10239000D8F380932D0A10925C091092580910927C
:1023A000590910925A0910925B0983E00E94830632
:1023B0008091250A9091260AA091270AB091280AB7
:1023C00080379741A105B1052CF0EBECF7E0808157
:1023D0008860808380910F07882309F4C4C08091AE
:1023E0000D078111C3C0809109078111ABC0809195
:1023F0000807811108C08091CB0780FF1AC081E0D7
:102400008093080716C09091CB0790FD04C08150BF
:10241000809308070EC08F5F843018F480930807FC
:1024200008C01092080781E080930907906290939A
:10243000CB0780910707811108C08091CB0781FFEE
:102440001AC081E08093070716C09091CB0791FDD9
:1024500004C08150809307070EC08F5F843018F44A
:102460008093070708C01092070781E0809309074F
:1024700090629093CB0780910607811108C08091EC
:10248000CB0782FF1AC081E08093060716C09091A7
:10249000CB0792FD04C08150809306070EC08F5F6A
:1024A000843018F48093060708C01092060781E074
:1024B0008093090790629093CB0780910507811163
:1024C00008C08091CB0783FF1AC081E08093050785
:1024D00016C09091CB0793FD04C0815080930507EF
:1024E0000EC08F5F843018F48093050708C01092E7
:1024F000050781E08093090790629093CB07809154
:102500000407811108C08091CB0784FF2FC081E0B0
:10251000809304072BC09091CB0794FD04C0815099
:102520008093040723C08F5F8A3018F480930407D8
:102530001DC01092040781E0809309079062909378
:10254000CB0714C08F5F80930907883278F07298A8
:102550001092090781E08093C807EBECF7E08081D7
:102560008F7D808303C072981092090780914B077A
:102570008C6180934B07EBECF7E08081807E808359
:10258000089581E380930601CCCE0895CF92DF9227
:10259000EF92FF920F931F93CF93DF931092020756
:1025A0008091CB0786FF08C091E0909302078F7B54
:1025B0008093CB070E94EA028DEC97E00E94AE0464
:1025C000882349F080910207811105C0EBECF7E008
:1025D0008081806180838091CB0786FD09C09091C6
:1025E0000207913029F480648093CB070E94EA02AD
:1025F00003E519E021E539E04FE459E06DE479E0C5
:102600008DEC97E00E948F0980914F0990915009BD
:10261000893A914628F4EBECF7E08081846080836E
:1026200080914D0990914E098031944A28F0EBEC4D
:10263000F7E08081826080838DE293E00E94C80F82
:102640008091CB078F71A1F0809109074AE061E486
:1026500077E090E00E94D91988E394E00E94C80FC7
:1026600081E497E00E94C80F87E795E00E94C80FB9
:102670008091CB0784FF04C087E494E00E94C80FD8
:1026800080914F0990915009893A914620F481E652
:1026900094E00E94C80F80914D0990914E098031BD
:1026A000944A20F08AE794E00E94C80F8091250A9E
:1026B0009091260AA091270AB091280A8037974165
:1026C000A105B10524F082E994E00E94C80F809131
:1026D000580990915909A0915A09B0915B09803825
:1026E000914DA04FB84020F08EEA94E00E94C80FB0
:1026F00086EC94E00E94C80F10922D0A8091260764
:10270000882311F1C1E4D7E084ED94E00E94C80F62
:1027100080912D0A90E04AE0BE0101960E94D919ED
:1027200088810E94BE0F8823D9F38BED94E00E942C
:10273000C80F80912D0A8F5F80932D0A90912607F4
:10274000891710F310922D0AC1E4D7E0EC2EFD2E6C
:1027500001E010E084E796E00E94C80F8EED94E05F
:102760000E94C80F80912D0A90E04AE0BE010196B8
:102770000E94D91988810E94BE0F8823D9F38981CC
:102780000E94BE0F8823D9F386EE94E00E94C80F02
:1027900010922E0A80912607882309F47CC020E03D
:1027A00030E080912D0A482F50E0F901EE0FFF1F15
:1027B000E053F94FB80102C0660F771F8A95E2F720
:1027C0008081918186239723892B09F456C0C90102
:1027D000880F991F280F391F220F331F220F331F15
:1027E000F901E40FF51FEE0FFF1FE353F84F80814F
:1027F0009181803127E29207C0F04AE06E2D7F2D53
:102800000E94D91988810E94BE0F8823D9F38CE2D7
:102810000E94BE0F8823D9F382E497E00E94C80F7C
:102820008AEE94E00E94C80F2CC08EEE94E00E94C5
:10283000C80F80912E0A90E020912D0AFC01EE0F26
:10284000FF1FE80FF91FEE0FFF1FEE0FFF1FE20F34
:10285000F11DEE0FFF1FE353F84F4AE06E2D7F2D61
:10286000808191810E94D9198E2D9F2D0E94C80FC1
:102870008AEE94E00E94C80F04C081EF94E00E94A9
:10288000C80F20912E0A2F5F20932E0A80912607D1
:10289000281708F485CF80912D0A8F5F80932D0A29
:1028A0008C3008F457CF86E795E00E94C80F4AE0C5
:1028B00061E477E080914F09909150090E94D91905
:1028C0008EEF94E00E94C80FC1E4D7E088810E9497
:1028D000BE0F8823D9F38CE20E94BE0F8823D9F360
:1028E00082E497E00E94C80F8FE095E00E94C80F35
:1028F0004AE061E477E080915109909152090E9489
:10290000D91982E195E00E94C80FC1E4D7E088811F
:102910000E94BE0F8823D9F38CE20E94BE0F882349
:10292000D9F382E497E00E94C80F8FE095E00E94FF
:10293000C80F4AE061E477E080914D0990914E091B
:102940000E94D91985E295E00E94C80FC1E4D7E042
:1029500088810E94BE0F8823D9F38CE20E94BE0FAB
:102960008823D9F382E497E00E94C80F88E395E0BA
:102970000E94C80F10922D0A80912607882309F41F
:1029800071C0C1E4D7E00F2EF4E6CF2ED12CE12C9C
:10299000F12CF02D8DE395E00E94C80F80912D0A57
:1029A00090E04AE0BE0101960E94D91988810E94F8
:1029B000BE0F8823D9F38BED94E00E94C80FE091FD
:1029C0002D0AF0E0EE0FFF1FEE0FFF1FEB51F64F49
:1029D0006081718182819381A70196010E9485188F
:1029E000DA01C9013093CA072093C9074AE0BE0142
:1029F0000E94AC19CE010E94C80F8CE20E94BE0F4B
:102A00008823D9F3E0912D0AF0E0EE0FFF1FEE0FBF
:102A1000FF1FEB51F64F6081718182819381A70185
:102A200096010E948518DC01CB019093CA07809320
:102A3000C9074AE0BE010E94AC19CE010E94C80F2E
:102A40008CE495E00E94C80F1092CA071092C90743
:102A500080912D0A8F5F80932D0A90912607891708
:102A600008F498CF80910A07813029F48FE495E02B
:102A70000E94C80F06C0811104C083E695E00E9441
:102A8000C80F609158097091590980915A09909125
:102A90005B09611521EE720725EF820725E0920799
:102AA00008F442C020E432E44FE050E00E94631892
:102AB000DA01C9012093290A30932A0A40932B0A8C
:102AC00050932C0A4AE061E477E00E94D91981E42E
:102AD00097E00E94C80F8CE20E94BE0F8823D9F3B2
:102AE000609158097091590980915A0990915B0938
:102AF00020E432E44FE050E00E9463186093290A1A
:102B000070932A0A80932B0A90932C0A2AE041E4BE
:102B100057E00E94B71981E497E00E94C80F84E74C
:102B200095E00E94C80FCAC0603826E9720728E9FC
:102B30008207910508F442C020E432E44FE050E0FF
:102B40000E946318DA01C9012093290A30932A0AE6
:102B500040932B0A50932C0A4AE061E477E00E94EC
:102B6000D91981E497E00E94C80F8CE20E94BE0F41
:102B70008823D9F3609158097091590980915A09B5
:102B800090915B0920E432E44FE050E00E9463182A
:102B90006093290A70932A0A80932B0A90932C0A37
:102BA0002AE041E457E00E94B71981E497E00E94CF
:102BB000C80F8BE795E00E94C80F80C0603422E404
:102BC00072072FE08207910508F442C020E432E446
:102BD0004FE050E00E946318DA01C9012093290AEE
:102BE00030932A0A40932B0A50932C0A4AE061E45E
:102BF00077E00E94D91981E497E00E94C80F8CE227
:102C00000E94BE0F8823D9F3609158097091590929
:102C100080915A0990915B0920E432E44FE050E042
:102C20000E9463186093290A70932A0A80932B0AE2
:102C300090932C0A2AE041E457E00E94B71981E4FE
:102C400097E00E94C80F8BE795E00E94C80F36C03E
:102C5000603A76488140910540F180E30E94BE0FC2
:102C60008823D9F38CE20E94BE0F8823D9F36091A8
:102C700058097091590980915A0990915B096093A4
:102C8000290A70932A0A80932B0A90932C0A2AE02F
:102C900041E457E00E94B71981E497E00E94C80F11
:102CA0008BE795E00E94C80F09C080E30E94BE0F29
:102CB0008823D9F38BE795E00E94C80F80915C09C7
:102CC00080FF05C081E895E00E94C80F1BC081FF0E
:102CD00005C08BEB95E00E94C80F14C082FF05C0B1
:102CE00086EE95E00E94C80F0DC083FF05C080E20C
:102CF00096E00E94C80F06C084FF04C08CE496E0F2
:102D00000E94C80F88E796E00E94C80F80910307D1
:102D10004AE061E477E090E00E94D91981E497E00D
:102D20000E94C80F83E996E00E94C80F8CE996E0E4
:102D30000E94C80F809106010E94BE0F8823D1F324
:102D400083EB96E00E94C80F82EC96E00E94C80FC9
:102D5000DF91CF911F910F91FF90EF90DF90CF9077
:102D6000089508950895CF92DF92EF92FF920F9306
:102D70001F93CF93DF93CDB7DEB72D970FB6F8949F
:102D8000DEBF0FBECDBFC982DA82EB82FC828981B1
:102D90009A81AB81BC8181309105A105B10531F0EB
:102DA00081159140A105B10599F018C010930F0746
:102DB000213031F4EBECF7E080818064808305C042
:102DC000EBECF7E080818F7B808330930A0706C0AD
:102DD00010930D0720930B0730930A072D960FB61B
:102DE000F894DEBF0FBECDBFDF91CF911F910F9141
:102DF000FF90EF90DF90CF9008952F923F924F92E7
:102E00005F926F927F928F929F92AF92BF92CF927A
:102E1000DF92EF92FF920F931F93CF93DF93CDB783
:102E2000DEB760970FB6F894DEBF0FBECDBF82301D
:102E300059F018F4882369F02DC1833009F4ECC0EF
:102E4000843009F41CC126C180912607811199C0E4
:102E500021C18091CB078E8380910C078130E1F4F2
:102E600080910D07811135C080910E078F831886E0
:102E700081E08987CE80DF80E884F9840A851B851C
:102E80002C853D8544E062E070E080E090E00E94A7
:102E9000E10C882379F3FEC081111BC080910D07DE
:102EA0008130B9F480910E078F8381E08887CE80CE
:102EB000DF80E884F9840A851B852C853D8543E005
:102EC00062E070E080E090E00E94E10C882379F3FA
:102ED000E1C080910E078F83CE80DF80E884F98483
:102EE0000A851B852C853D8542E062E070E080E02C
:102EF00090E00E94E10C882379F3CCC0F301928129
:102F000083819E838F839481858198878987968129
:102F100087819A878B87FE85FC87EBECF7E08081C1
:102F20008D87CE80DF80E884F9840A851B852C8517
:102F30003D8548E0C501B4010E94E10C882389F376
:102F4000FFEF8F1A9F0AAF0ABF0A26E0620E711CBC
:102F50003E853D5F3E8782149304A404B50471F658
:102F60008F858F5F8F8794E0290E311C411C511C87
:102F7000E889E45FE88B80912607FF85F81760F009
:102F800089C023E0288B0F2EF4E02F2EF3E03F2E94
:102F9000412C512CF02D1F863F85832F90E03C0162
:102FA000660C771C860D971D880F991F880F991F37
:102FB000880F991FFC01E553F84F3F01F889FE8700
:102FC0005201410124E0821A9108A108B10896CF6C
:102FD000E92DF0E0EE0FFF1FE35AF64F908181815B
:102FE0009E838F8380910307888793949986F50148
:102FF00080818A87CE80DF80E884F9840A851B85FA
:103000002C853D8545E065E070E080E090E00E9421
:10301000E10C882379F307C0912C0F2EFBECAF2E27
:10302000F7E0BF2EF02D80912607981688F232C067
:10303000E92DF0E0EE0FFF1FEE0FFF1FEB51F64FF3
:1030400030812181928183813E832F839887898774
:1030500093949A86F50180818B87CE80DF80E88407
:10306000F9840A851B852C853D8546E066E070E085
:1030700080E090E00E94E10C882379F307C0912C56
:103080000F2EFBECAF2EF7E0BF2EF02D8091260720
:10309000981670F260960FB6F894DEBF0FBECDBFE3
:1030A000DF91CF911F910F91FF90EF90DF90CF9024
:1030B000BF90AF909F908F907F906F905F904F9058
:1030C0003F902F900895A1E21A2EAA1BBB1BFD0171
:1030D0000DC0AA1FBB1FEE1FFF1FA217B307E407F7
:1030E000F50720F0A21BB30BE40BF50B661F771F4F
:1030F000881F991F1A9469F760957095809590952F
:103100009B01AC01BD01CF010895052E97FB1EF474
:1031100000940E949C1857FD07D00E94631807FC7A
:1031200003D04EF40C949C18509540953095219501
:103130003F4F4F4F5F4F08959095809570956195E3
:103140007F4F8F4F9F4F0895EE0FFF1F0590F49113
:10315000E02D0994689401C0E894F92FF12B12F046
:103160000C94DE18A0E0B0E0E8EBF8E10C94501904
:10317000092E059422F40E943A19112392F4F0E8E2
:103180000F26FFEFE094F09400951095B094C09452
:10319000D094A194BF0ACF0ADF0AEF0AFF0A0F0BEF
:1031A0001F0B0E94E91807FC0E943A19CDB7DEB741
:1031B000ECE00C946C19689401C0E8948F929F9293
:1031C000CF93DF930E94E918DF91CF919F908F906A
:1031D000089588249924F401E401B0E49F93AA2778
:1031E0009A158B049C04ED05FE05CF05D007A107B9
:1031F00098F4AD2FDC2FCF2FFE2FE92D982C892EA0
:10320000982F872F762F652F542F432F322F222769
:10321000B85031F7BF9127C01B2EBF91BB27220F9B
:10322000331F441F551F661F771F881F991F881C57
:10323000991CEE1FFF1FCC1FDD1FAA1FBB1F8A1486
:103240009B04EC05FD05CE05DF05A007B10748F09E
:103250008A189B08EC09FD09CE09DF09A00BB10B08
:1032600021601A94E1F62EF49401AF01BE01CD0164
:10327000000C0895609570958095909530954095D7
:10328000509521953F4F4F4F5F4F6F4F7F4F8F4F5F
:103290009F4F08952F923F924F925F926F927F922D
:1032A0008F929F92AF92BF92CF92DF92EF92FF9256
:1032B0000F931F93CF93DF93CDB7DEB7CA1BDB0B02
:1032C0000FB6F894DEBF0FBECDBF09942A883988A7
:1032D00048885F846E847D848C849B84AA84B984AE
:1032E000C884DF80EE80FD800C811B81AA81B981BA
:1032F000CE0FD11D0FB6F894DEBF0FBECDBFED01CE
:1033000008950F93083090F0982F872F762F652F10
:10331000542F432F322F22270850F4CF220F331F70
:10332000441F551F661F771F881F991F0A95B2F704
:103330000F9108952A0D3B1D4C1D5D1D6E1D7F1DB7
:10334000801F911F08952A193B094C095D096E09D8
:103350007F09800B910B0895BB274A3031F49923E4
:1033600022F4BDE2909581959F4F0C94DA19BB270A
:10337000FA01A62F6217710581059105330B30FB09
:1033800066F0AA27660F771F881F991FAA1FA2172A
:1033900010F0A21B63953850A9F7A05DAA3308F07E
:1033A000A95DA19336F7B111B1931082CA010C94B3
:1033B000F319BB27FB015527AA27880F991FAA1FBE
:1033C000A41710F0A41B83955051B9F7A05DAA3340
:1033D00008F0A95DA193009779F7B111B19311920B
:1033E000CB010C94F319DC01FC01672F7191772359
:1033F000E1F7329704C07C916D9370836291AE17B0
:0A340000BF07C8F30895F894FFCF4A
:10340A0001010101000130463300463200000099F3
:10341A00C5ABCE320BCFD8561D6416FDD307F49E2A
:10342A0031AC3A35FFC82C51E963E2FA2797AD0E61
:10343A00683C63A5A65875C1B0F3BB6A7E9059096A
:10344A009C3B97A2525F81C644F44F6D8A2E5BB7AC
:10345A009E85951C50E18378464A4DD38829AFB0A2
:10346A006A82611BA4E6777FB24DB9D47CB9F62093
:10347A003312388BFD762EEFEBDDE04425BE0227B2
:10348A00C715CC8C0971DAE81FDA1443D1C5F35C8D
:10349A00366E3DF7F80A2B93EEA1E53820C2075B9A
:1034AA00C269C9F00C0DDF941AA6113FD4525ECB43
:1034BA009BF99060559D8604433648AF8D55AACC3A
:1034CA006FFE6467A19A7203B731BCA879EBA87240
:1034DA006D4066D9A32470BDB58FBE167BEC5C75B2
:1034EA00994792DE572384BA41884A118F7C05E5B1
:1034FA00C0D7CB4E0EB3DD2A18181381D67BF1E262
:10350A0034D03F49FAB4292DEC1FE7862213A28A48
:10351A0067B86C21A9DC7A45BF77B4EE7114568D71
:10352A0093BF98265DDB8E424B7040E985840F1D60
:10353A00CA2FC1B6044BD7D212E01979DC83FB1A21
:10354A003E2835B1F04C23D5E6E7ED7E283DF9A4B7
:10355A003C96370FF2F2216BE459EFC02A3A0DA3D9
:10356A00C891C30806F5D56C105E1BC7DEAA543392
:10357A0091019A985F658CFC49CE425787ADA03479
:10358A0065066E9FAB6278FBBDC9B65073D6514FC4
:10359A00947D9FE45A1989804CB2472B82D1A54861
:1035AA00607A6BE3AE1E7D87B8B5B32C7641FCD842
:1035BA0039EA3273F78E2417E125EABC2F4608DF71
:1035CA00CDEDC6740389D01015221EBBDBF80A6143
:1035DA00CF53C4CA0137D2AE179C1C05D9FFFE6669
:1035EA003B5430CDF53026A9E39BE8022D6FA7F6B0
:1035FA0062C4695DACA07F39BA0BB192746853F1A9
:10360A0096C39D5A58A78B3E4E0C459580FF01FFE5
:10361A0000FF01FF00FF01FF00FF01FF00FF01FFA4
:10362A0000FF01FF00FF01FF00FF01FF000C004146
:10363A0056522D496E697469616C69736965727550
:10364A006E67206572666F6C677265696368210DC3
:10365A000A00576172746520617566205465737437
:10366A002D467265696761626521000D0A205465FD
:10367A00737420000D0A204665686C65723A204B07
:10368A006F6D6D756E696B6174696F6E21000D0ADD
:10369A0020546573742065726E6575742073746145
:1036AA007274656E210D0A000D0A204665686C6504
:1036BA00723A20556E646572766F6C746167652123
:1036CA00000D0A204665686C65723A204F7665726D
:1036DA00766F6C7461676521000D0A204665686C17
:1036EA0065723A204F76657274656D7065726174A1
:1036FA0075726521000D0A0A20546573742D44758C
:10370A007263686C617566206572666F6C67726554
:10371A0069636821000D0A2057617274652061751A
:10372A006620656E646775656C74696765204672A4
:10373A00656967616265210020532D426F782054C4
:10374A00696D65723A2000204665686C65723A2098
:10375A004B6F6D6D756E696B6174696F6E210D0AC1
:10376A0000204665686C65723A20556E646572760B
:10377A006F6C74616765210D0A00204665686C6587
:10378A00723A204F766572766F6C74616765210DA7
:10379A000A00204665686C65723A204F7665727435
:1037AA00656D7065726174757265210D0A00204637
:1037BA0065686C65723A204F7665724375727265F8
:1037CA006E74210D0A002020202020202020202095
:1037DA0020200900536C61766520003A0900205ABE
:1037EA00656C6C6520003A20090020560900302CCF
:1037FA00004B65696E65205A656C6C650900206D21
:10380A00696E2E20566F6C746167653A0920002034
:10381A0056000D0A206176672E20566F6C74616718
:10382A00653A0920000D0A206D61782E20566F6CCA
:10383A00746167653A09200020560D0A000D0A20B6
:10384A0054656D7065726174757220002043000DB5
:10385A000A0A20456E746C6164652D5374726F6D2B
:10386A003A20000D0A0A204C6164652D5374726F68
:10387A006D3A20002041200D0A0A002041200D0A3D
:10388A0000205374726F6D20626566696E64657498
:10389A00207369636820696E206B72697469736347
:1038AA0068656D20426572656963683A202D324108
:1038BA00202E2E2E203041200D0A00204665686CED
:1038CA0065723A205374726F6D20666C6965737302
:1038DA007420696E2064656E20537065696368653B
:1038EA007221200D0A00205374726F6D2062656682
:1038FA00696E646574207369636820696E206B72EF
:10390A00697469736368656D204265726569636885
:10391A003A203041202E2E2E202B3241200D0A0033
:10392A00204665686C65723A205374726F6D206622
:10393A006C6965737374206175732064656D2053B7
:10394A007065696368657221200D0A002046656802
:10395A006C65723A20426574726965627362657257
:10396A0065696368207565626572736368726974F4
:10397A0074656E21200D0A000D0A2042616C616E89
:10398A0063696E6720656D70666F686C656E20612D
:10399A006E2000205A656C6C656E2E000D0A20425E
:1039AA00616C616E63696E672D4D6F64653A2020A4
:1039BA002020000D0A203C313E2043686172676571
:1039CA0020000D0A203C303E2044726976652000B2
:1039DA00FF01FF00FF01FF00FF01FF00FF01FF00E1
:1039EA00FF01FF00FF01FF00FF01FF00FF01FF00D1
:00000001FF
