S0240000424D535F4D61737465725F57656C7A6D696C6C65725F365F322832292E7372656324
S11300000C94AD000C94CA000C94CA000C94CA0061
S11300100C94CA000C94CA000C94CA000C94CA0034
S11300200C94CA000C94CA000C94CA000C94CA0024
S11300300C94CA000C94CA000C940C0F0C94CA00C3
S11300400C94CA000C94CA000C94CA000C94CA0004
S11300500C94EE0F0C94CA000C94CA000C94CA00C1
S11300600C94CA000C94CA000C94C40E0C94CA00DC
S11300700C94CA000C94CA000C94CA00DB0DE50D64
S1130080DD0D000ED30DD50DD70DD90DDF0DE10D0E
S1130090E30DF90DFB0DFD0DFF0D000E000E000E1E
S11300A0000E000E000E000E000E000E000E000EDC
S11300B0000E000E000E000E000E000E000E000ECC
S11300C0000E000E000E000E000E000E000E000EBC
S11300D0000E000E000E000E000E000E000E000EAC
S11300E0000E000E000E000E000E000E000E000E9C
S11300F0000E000E000E000E000E000E000E000E8C
S1130100000E000E000E000E000E000E000E000E7B
S1130110000E000E000E000E000E000E000E000E6B
S1130120000E000E000E000E000E000E000E000E5B
S1130130000E000E000E000E000E000E000E000E4B
S1130140000E000E000EF70D000EF50DF30DF10D6F
S1130150EF0DED0DEB0DE90DE70D11241FBECFEFF3
S1130160D0E1DEBFCDBF16E0A0E0B1E0ECE0F4E307
S113017002C005900D92AE3EB107D9F72AE0AEEE6B
S1130180B6E001C01D92AE32B207E1F70E94870FBC
S11301900C94041A0C94000080E480937C00EAE739
S11301A0F0E084E080838081806880838081806443
S11301B08083808186FDFDCF8091780090917900C5
S11301C008959093F1068093F0061092F20680FD54
S11301D00BC021E09695879531E0320F80FD02C077
S11301E0232FF8CF2093F206ECE7F0E08081909182
S11301F0F2069F71807E892B8083EAE7F0E080819C
S11302008064808381E08093F30608958091F306EF
S1130210882309F447C080917A0086FD43C0409149
S1130220F206E42FF0E08091780090917900EE0FCF
S1130230FF1FE25FF84F9183808381E090E0042EFA
S113024002C0880F991F0A94E2F72091EE063091BC
S1130250EF06822B932B9093EF068093EE0620916A
S1130260F0063091F1064F5F50E005C04A3010F4BB
S11302704F5F01C0452FC901042E02C09695879592
S11302800A94E2F780FFF2CF4093F206ECE7F0E045
S113029080814F71807E482B4083EAE7F0E08081C3
S11302A0806480830895DC01FB018D919C911197FA
S11302B0009751F0929582958F7089279F708927B6
S11302C0019711969C938E9380819181929582954A
S11302D08F7089279F7089279183808384E280931C
S11302E029078C9180932A078D919C9111978827D7
S11302F09F7080818295807F892B80932B078081DA
S11303009181807F9F70929582958F7089279F70CD
S1130310892780932C0710922D0710922E078D9118
S11303209C911197019682959295907F9827807F52
S113033098278D939C938081918182959295907F4B
S11303409827807F982791838083089520916C0754
S1130350211116C060936A07662361F0E82FF92F14
S113036080E090E02191DC01A65BB84F2C930196CC
S11303708617C0F341980E94890E8823E1F30FC0C9
S113038080916D07811104C00E94A20E80E008953F
S113039090916D0781E0913019F080E0089580E03C
S11303A0089580932D0788279F706295607F692B3D
S11303B060932E070895BF92CF92DF92EF92FF923F
S11303C00F931F93CF93DF9300D000D0CDB7DEB748
S11303D0198280912407882309F442C0B12C0F2E7E
S11303E0FCE6CF2EF7E0DF2EF02D04E810E00F2E10
S11303F0F6E8EF2EF12CF02D61E0CE0101960E947B
S1130400A6018823C9F3419AF6011082F8014081BC
S1130410518150932807409327079A01275E3F4F45
S1130420F801808191812817390728F08081918112
S113043048175907A8F3F80180819181841795071B
S113044050F480819181F70160817181860F971F3B
S11304508217930728F3B39480912407B81660F2A7
S113046083E0898380E68A8384EF8B838CE68C83A4
S113047064E0CE0101960E94A6018823C9F3419A43
S113048010926C070F900F900F900F90DF91CF9107
S11304901F910F91FF90EF90DF90CF90BF90089540
S11304A06623E9F0582FE82FF92F80E190E041917D
S11304B0382F2227DC01AA0FAB2FAA1FBB0BB19543
S11304C0A427BB27AA0FBB1FA65FBE4F8D919C918B
S11304D0822793272E2F251B261748F302C080E17D
S11304E090E0880F991F0895DF92EF92FF920F9387
S11304F01F93CF93DF938C01D62E442321F024E065
S1130500261798F01FC0FC01108282E0818362E00C
S1130510C8010E945002F8019283838364E0C801F9
S11305200E94A6018823D1F342C0FC0134968BEFCC
S1130530860F9801280F311DC90105961192E817FD
S1130540F907E1F7E8012496EC2EFD2E68E0CE01D0
S11305500E94A6018823C1F334E03D15C0F4EC2FBA
S1130560FD2F8BEF8D0DA801480F511D4B5F5F4F81
S11305702CEF3FEF201B310BD901AE0FBF1FA65B41
S1130580B84F50968C918193E417F507A9F766E06C
S11305908E2D9F2D0E945002382FF8012285291399
S11305A008C081E09385931305C080E003C080E018
S11305B001C081E0DF91CF911F910F91FF90EF90E7
S11305C0DF9008952F923F924F925F926F927F92A5
S11305D08F929F92AF92BF92CF92DF92EF92FF924F
S11305E00F931F93CF93DF93CDB7DEB768970FB602
S11305F0F894DEBF0FBECDBF198281E08A8362E02A
S1130600CE0101960E9450029B838C838091240723
S1130610882309F443C0B12C0F2EFCE6CF2EF7E05B
S1130620DF2EF02D04E810E00F2EF6E8EF2EF12C6B
S1130630F02D61E0CE0101960E94A6018823C9F342
S1130640419AD6011C92F8014081518150932807A8
S1130650409327079A01275E3F4FD8018D919C91C3
S113066011972817390728F08D919C91481759073D
S1130670A0F3F801808191818417950750F480815B
S11306809181D7016D917C91860F971F82179307F3
S113069020F3B39480912407B81658F264E0CE0195
S11306A001960E94A6018823C9F310926C07E09179
S11306B02407EE2309F464C0D12C0F2EF9EC8F2EFD
S11306C0F7E09F2EF02D0F2EFDE2EF2EF7E0FF2E28
S11306D0F02D0EE217E00F2EF9E2AF2EF7E0BF2E59
S11306E0F02D0F2EFBE26F2EF7E07F2EF02D0F2E54
S11306F0FCE24F2EF7E05F2EF02D0F2EFCE62F2E9E
S1130700F7E03F2EF02DD4018C9186FF0DC0F0E070
S1130710ED19F109EE0FFF1FE75AF64F61E08081F2
S113072091810E94D10104C0F7011082D8011C926A
S1130730F50180818D83AAE2B7E08C918E83F30169
S113074080818F83D2018C918887F701808189878A
S1130750D8018C918A8766E0CE0105960E945002EA
S11307609B878C8768E0CE0105960E94A6018823AA
S1130770C9F3F1011082D394E0912407DE1618F234
S1130780419A10926C07B12C09EC17E00F2EFAE293
S1130790CF2EF7E0DF2EF02D6894992491F8A12C48
S11307A00F2EFCE6EF2EF7E0FF2EF02D4B2D6CE024
S11307B0CE010D960E947402882329F0419A10926A
S11307C06C0781E02AC0D8018C9186FD1BC0BB2038
S11307D0C9F0F60180819A8998130BC0FE017396C3
S11307E0892D9A2D3191DC01A75DB84F2C913217D8
S11307F029F0419A10926C0781E00FC0019686306F
S1130800910581F7D7011C92B394809124078B152D
S113081068F6419A10926C0780E068960FB6F894D7
S1130820DEBF0FBECDBFDF91CF911F910F91FF901F
S1130830EF90DF90CF90BF90AF909F908F907F907C
S11308406F905F904F903F902F900895BF92CF92FA
S1130850DF92EF92FF920F931F93CF93DF931F9238
S1130860CDB7DEB7198210922F0784E0809330074A
S113087097E09093310792EC9093320710923307EC
S113088096E0909334079AE99093350794E990930E
S113089036071092370798E0909338079EE59093B7
S11308A0390792E590933A0710923B079AE09093A8
S11308B03C0793EC90933D0780933E079091240767
S11308C0992341F0EBE5F9E080E0119211928F5FFA
S11308D08917D8F31092C90788EA91E69093A00982
S11308E080939F0980E194EA9093A2098093A109DF
S11308F061EA79E08FE999E00E945301809124072D
S1130900882309F442C0B12C0F2EFCE6CF2EF7E069
S1130910DF2EF02D04E810E00F2EF6E8EF2EF12C78
S1130920F02D61E0CE0101960E94A6018823C9F34F
S1130930419AF6011082F8014081518150932807B1
S1130940409327079A01205E3C4FF80180819181F2
S11309502817390728F08081918148175907A8F38F
S1130960F801808191818417950750F480819181E9
S1130970F70160817181860F971F8217930728F30F
S1130980B39480912407B81660F20E94E2020F909B
S1130990DF91CF911F910F91FF90EF90DF90CF9057
S11309A0BF9008952F923F924F925F926F927F92E1
S11309B08F929F92AF92BF92CF92DF92EF92FF926B
S11309C00F931F93CF93DF93CDB7DEB76A970FB61C
S11309D0F894DEBF0FBECDBF6C010E94DB012091F5
S11309E08400309185004091FC065091FD06609191
S11309F0FE067091FF064E5F5F4F6F4F7F4F8091F1
S1130A00FC069091FD06A091FE06B091FF068417A6
S1130A109507A607B70798F3E4E8F0E08081918191
S1130A2028173907D8F740918400509185009A011E
S1130A3028513C4FE4E8F0E0A6E8B0E080819181E1
S1130A402817390728F08081918148175907B0F396
S1130A50808191818417950750F4808191816D91F3
S1130A607C911197860F971F8217930738F31A8E7C
S1130A70198E188E1F8ACE0105969E8B8D8B5E0172
S1130A809DE0A90EB11C0CE617E0212C8D889E88F0
S1130A905A2C6B2C312C412C7FC01192EA15FB058A
S1130AA0E1F764E0CE0101960E94A6018823C9F310
S1130AB0F801108280912407882309F45EC0E98C30
S1130AC0FA8C722C68E0882D992D0E94A601882347
S1130AD0C9F3E52DF62D832D942DDC01A65BB84FCB
S1130AE050962C912193019688309105B1F766E0D8
S1130AF0852D962D0E9450022B8930E0322F22271B
S1130B004C89242B2817390799F5872D90E0FC018F
S1130B10EE0FFF1F8E0F9F1FFC01EE0FFF1FEE0F46
S1130B20FF1FEE0FFF1FEE0DFF1DEC0DFD1D8E854B
S1130B3090E0982F88272D85822B91838083888944
S1130B4090E0982F88272F85822B938382838A892C
S1130B5090E0982F88272989822B95838483F80134
S1130B601082739480912407781608F4ABCF05C0E3
S1130B70419A10926C0781E02BC0419AF8011082CF
S1130B808F89988D0196988F8F8BE98DFA8D369683
S1130B90FA8FE98F0497D9F0EF89F88DEE0FFF1FD4
S1130BA0EE0FFF1FE75DF84F8681898387818A8373
S1130BB0AF89B88DAA0FBB1FAA0FBB1FAF5CB84F7C
S1130BC08C918B8381858C83FE01359666CF80E082
S1130BD06A960FB6F894DEBF0FBECDBFDF91CF91FA
S1130BE01F910F91FF90EF90DF90CF90BF90AF9047
S1130BF09F908F907F906F905F904F903F902F9039
S1130C000895AF92BF92CF92DF92EF92FF920F932B
S1130C101F93CF93DF9300D000D0CDB7DEB7A82EBB
S1130C20198280912407882309F442C0B12C0F2E25
S1130C30FCE6CF2EF7E0DF2EF02D04E810E00F2EB7
S1130C40F6E8EF2EF12CF02D61E0CE0101960E9422
S1130C50A6018823C9F3419AF6011082F801608144
S1130C6071817093280760932707AB01475E5F4F3C
S1130C70F801208131814217530728F08081918146
S1130C8068177907A8F3F8012081318126173707FF
S1130C9050F480819181F70120813181820F931F6B
S1130CA08417950728F3B39480912407B81660F24B
S1130CB085E08983F3E0AF16D1F0FA1538F081E0CE
S1130CC0A81679F0E2E0AE1679F008C0F5E0AF16A8
S1130CD0A1F0AF1678F086E0A81691F080E68A833A
S1130CE011C081E68A830EC082E68A830BC083E644
S1130CF08A8308C084E68A8305C085E68A8302C0A5
S1130D0086E68A8362E0CE0101960E9450029B83AC
S1130D108C8364E0CE0101960E94A6018823C9F366
S1130D20419A10926C070F900F900F900F90DF91E3
S1130D30CF911F910F91FF90EF90DF90CF90BF90D4
S1130D40AF9008952F923F924F925F926F927F924D
S1130D508F929F92AF92BF92CF92DF92EF92FF92C7
S1130D600F931F93CF93DF93CDB7DEB76E970FB674
S1130D70F894DEBF0FBECDBF0E940106209184000F
S1130D8030918500E4E8F0E0A901465D5C4FA6E8F7
S1130D90B0E0B9016C577C4F8081918148175907A5
S1130DA028F08081918128173907B0F380819181DF
S1130DB08217930750F4808191810D911C911197B2
S1130DC0800F911F8617970738F386E00E9401066B
S1130DD02091840030918500E4E8F0E0A901465DAB
S1130DE05C4FA6E8B0E0B9016C577C4F80819181DB
S1130DF04817590728F08081918128173907B0F3E3
S1130E00808191818217930750F4808191810D91A3
S1130E101C911197800F911F8617970738F3198239
S1130E208CE08A8362E0CE0101960E9450029B838B
S1130E308C837E018DE0E80EF11CFE013596119243
S1130E40EE15FF05E1F764E0CE0101960E94A601CC
S1130E508823C9F310926C0780912407882309F42E
S1130E6043C0D12CB12CC12C0CE617E068E0CE01B4
S1130E7005960E94A6018823C9F3FE013D968B2D99
S1130E809C2DDC01A65BB84F50962C9121930196C2
S1130E9088309105B1F766E0CE010D960E945002AC
S1130EA02B8930E0322F22274C89242B281739072D
S1130EB0B1F4ED2DF0E0EE0FFF1FED55F64F8A89EA
S1130EC090E0982F88272989822B91838083F801C9
S1130ED01082D39480912407D81640F205C0419A19
S1130EE010926C0781E0C2C1419A10926C0719827A
S1130EF08EE08A8362E0CE0101960E9450029B83B9
S1130F008C83FE0135961192EE16FF06E1F764E03C
S1130F10CE0101960E94A6018823C9F310926C07A2
S1130F2080912407882309F447C0F12CD12CE12CAB
S1130F300CE617E068E0CE0105960E94A60188231E
S1130F40C9F3FE013D968D2D9E2DDC01A65BB84FA5
S1130F5050962C912193019688309105B1F766E063
S1130F60CE010D960E9450022B8930E0322F2227A9
S1130F704C89242B28173907B1F4EF2DF0E0EE0F3C
S1130F80FF1FED53F64F8A8990E0982F882729890F
S1130F90822B91838083F8011082F394809124073B
S1130FA0F81640F209C087E091E00E94D00F419A00
S1130FB010926C0781E05AC1419A10926C07F0912B
S1130FC02407FA8FFF2309F444C183EA99E0988F38
S1130FD08F8BE3EEF9E0FE8BED8B198EEF89F88DA4
S1130FE021903190F88FEF8B222D332D40E050E08B
S1130FF060E070E080E090E005E00E948219A22C9D
S1131000B32CC12CD12CE12CF12C00E010E00E9477
S1131010A419A22EB32EC42ED52EE62EF72EE82F19
S1131020192F06E00E9482190E2F0E94A41903E0D2
S11310300E948219A22CB32CC12CD12CE12CF12CAE
S113104000E010E00E949B1906E00E948219EF89DB
S1131050F88D268C378CA22CB32C00E00E94AD189E
S1131060E22EF32E042F152FB62FA72FF82FD92EEB
S11310702F3DE6EE3E07EBE04E0751056105710595
S11310808105910511F10CF1205E364E4B4051095A
S113109061097109810991090F2EFAEBAF2EF02D28
S11310A0BB24BA94CC24CA94DD24DA94EE24EA94C2
S11310B0FF24FA940FEF1FEF0E94AD18ED89FE890B
S11310C0208331834283538392C02E2D3F2D402FA2
S11310D0512F6B2F7A2F8F2F9D2D2F31E0E33E0759
S11310E0E5E04E075105610571058105910511F192
S11310F00CF1205E364E4B4051096109710981099A
S113110091090F2EF2E9AF2EF02DBB24BA94CC2412
S1131110CA94DD24DA94EE24EA94FF24FA940FEFBF
S11311201FEF0E94AD18ED89FE892083318342832D
S113113053835DC02E2D3F2D402F512F6B2F7A2FBF
S11311408F2F9D2D273DEAEC3E07E2E04E07510527
S1131150610571058105910509F00CF520513A47A7
S11311604740510961097109810991090F2EFDEC6C
S1131170AF2EF02DBB24BA94CC24CA94DD24DA9487
S1131180EE24EA94FF24FA940FEF1FEF0E94AD18A7
S1131190ED89FE89208331834283538328C02E2D19
S11311A03F2D402F512F6B2F7A2F8F2F9D2D285895
S11311B0374D4940510961097109810991090F2E7F
S11311C0F3EBAF2EF02DBB24BA94CC24CA94DD24C7
S11311D0DA94EE24EA94FF24FA940FEF1FEF0E94AE
S11311E0AD18ED89FE892083318342835383F98DC1
S11311F0FF5FF98F8D899E8904969E8B8D8B9A8DC6
S1131200F91708F4EBCE4091E3095091E409609199
S1131210E5097091E6099230E0F0E7EEF9E021E0AB
S1131220392F1B8D0C8DFD8CEE8C81919191A191A8
S1131230B191481759076A077B0724F4182F092F1F
S1131240FA2EEB2E2F5F2313F0CF1B8F0C8FFD8E06
S1131250EE8EEB8DE093230AFC8DF093240A8D8DA2
S11312608093250A9E8D9093260A80E06E960FB691
S1131270F894DEBF0FBECDBFDF91CF911F910F91C8
S1131280FF90EF90DF90CF90BF90AF909F908F90A2
S11312907F906F905F904F903F902F900895FF92B2
S11312A00F931F93CF93DF9320912407222361F19F
S11312B010E0F12C00E0A1E0B0E0212F30E0FC01CF
S11312C0E20FF31F1082E901CC0FDD1FC65FDC4F74
S11312D0688179812F2D302FAD01022E02C0440F79
S11312E0551F0A94E2F746235723452B19F04081F2
S11312F04F5F40832F5F3F4F2C30310569F71F5FED
S1131300209124071217C8F2DF91CF911F910F91FA
S1131310FF9008952F923F924F925F926F927F9227
S11313208F929F92AF92BF92CF92DF92EF92FF92F1
S11313300F931F93CF93DF93CDB7DEB761970FB6AB
S1131340F894DEBF0FBECDBF5C017F836E835987E7
S113135048873B872A871D870C872DB73EB73F8771
S11313602E87809124074DB75EB7481B51090FB6ED
S1131370F8945EBF0FBE4DBF0DB71EB70F5F1F4F72
S1131380C8010E944F0980912407882309F473C07F
S1131390AAE0B3E0BB83AA831801815090E00196D0
S11313A0F801E80FF91FFD83EC83612C712C812C6B
S11313B0912C198260E070E0CB01E12CF12C0F2E0E
S11313C0F0E5CF2EF3ECDF2EF02D01E010E09B01D1
S11313D0AC01B40125013FC09801082E02C0220FC0
S11313E0331F0A94E2F748895989242335232115A8
S11313F03105D1F040815181840E951EA11CB11C90
S1131400AF01460F571F460D571DDA014D915C91F0
S11314104C155D0530F0E416F50630F4232B19F471
S113142003C06A0101C07A01019632968C3091059D
S113143099F6A5019401F10181911F01F981F80F39
S1131440F9836851710988E1680E711CAC81BD8112
S11314502A163B06E9F0EA81FB81A191B191FB8355
S1131460EA83F201E61BF70B80E090E0B98BA88BCE
S113147049015A01B1CF198260E070E0CB01E12C3F
S1131480F12C0F2EF0E5CF2EF3ECDF2EF02D02C061
S1131490C501B401AE81BF81ED92FC92E885F98566
S11314A0D182C082F9812F2F30E040E050E00E94C9
S11314B06418AA85BB852D933C932981EC85FD8511
S11314C020834E855F850FB6F8945EBF0FBE4DBF77
S11314D061960FB6F894DEBF0FBECDBFDF91CF91FA
S11314E01F910F91FF90EF90DF90CF90BF90AF903E
S11314F09F908F907F906F905F904F903F902F9030
S113150008952F923F925F926F927F928F929F9253
S1131510AF92BF92CF92DF92EF92FF920F931F93FD
S1131520CF93DF9300D0CDB7DEB75C018B017A0196
S113153049012DB63EB6809124072DB73EB7281B2E
S113154031090FB6F8943EBF0FBE2DBF8DB79EB7BD
S113155001960E944F0980912407882309F458C0FA
S1131560712C612C512C98012C593F4FA7014C59D7
S11315705F4FCC24C394D12C30C001911191021738
S11315801307D0F040175107B8F401331547A0F002
S11315908601082E02C0000F111F0A94E2F71A8375
S11315A00983D7010D911C91A981BA810A231B23B8
S11315B0012B11F06A2B7B2B01968C309105E9F6F7
S11315C0E72DF0E0EE0FFF1FE80DF91D7183608336
S11315D07394809124077816D8F4E72CF12CF70142
S11315E0EE0FFF1FEE0DFF1DEE0FFF1FEE0FFF1F8F
S11315F0EE0FFF1FEA0DFB1D862D952D662D752D13
S1131600D701AA0FBB1F8D01065F1C4F7801B5CF10
S11316100FB6F8943EBE0FBE2DBE0F900F90DF9113
S1131620CF911F910F91FF90EF90DF90CF90BF90DB
S1131630AF909F908F907F906F905F903F902F908E
S113164008952F923F924F925F926F927F928F9262
S11316509F92AF92BF92CF92DF92EF92FF920F933D
S11316601F93CF93DF9300D0CDB7DEB75C018B011E
S11316707A0149012DB63EB6809124072DB73EB7B5
S1131680281B31090FB6F8943EBF0FBE2DBF8DB78E
S11316909EB701960E944F0980912407882309F47C
S11316A05AC0712C412C612C512C980128533F4F66
S11316B0A70148535F4FCC24C394D12C31C001916E
S11316C0119102171307D8F040175107C0F40133E2
S11316D01547A8F08601082E02C0000F111F0A94B6
S11316E0E2F71A830983D7010D911C91A981BA816C
S11316F00A231B23012B19F06A2B7B2B439401969D
S11317008C309105E1F6E72DF0E0EE0FFF1FE80DB8
S1131710F91D718360837394809124077816E0F433
S1131720E72CF12CF701EE0FFF1FEE0DFF1DEE0F5E
S1131730FF1FEE0FFF1FEE0FFF1FEA0DFB1D862D8F
S1131740952D662D752DD701AA0FBB1F8D01065F40
S11317501C4F7801B4CF412C842D0FB6F8943EBEB3
S11317600FBE2DBE0F900F90DF91CF911F910F915F
S1131770FF90EF90DF90CF90BF90AF909F908F90AD
S11317807F906F905F904F903F902F9008952F928D
S11317903F924F925F927F928F92AF92BF92CF927D
S11317A0DF92EF92FF920F931F93CF93DF931092E8
S11317B0D800883E23E0920749F41092E2008AE0C0
S11317C08093E3008CE18093E40047C0843FE1E030
S11317D09E0749F482E08093E2008AE28093E3006A
S11317E08093E4003AC08A3F910549F486E08093EF
S11317F0E2008AE28093E3008093E4002EC08EE04E
S11318008093E2008AE28093E3008093E40025C0A1
S1131810882E880C880C880C880CF6018082F701CD
S11318201082843018F4F501708202C0F501108230
S1131830F8011082FB011082FA011082F901108272
S1131840F201108218821C92F10110828F5F86309F
S1131850F9F682E08093D8002AC080E00F2EFDEED6
S1131860CF2ED12CF02D0F2EFEEEEF2EF12CF02DDD
S11318700F2EFFEEAF2EB12CF02D6894772477F85D
S113188000EF10E061EF70E042EF50E023EF30E052
S11318900F2EF4EF4F2E512CF02DC5EFD0E0A6EF14
S11318A0B0E00F2EF7EF2F2E312CF02DB1CFDF91BA
S11318B0CF911F910F91FF90EF90DF90CF90BF9049
S11318C0AF908F907F905F904F903F902F900895AE
S11318D00F931F93CF93DF931092ED002091DC00C0
S11318E020FF14C021E030E0CDEED0E0ACEDB0E05C
S11318F0E22FE295E07FE883EC91F0E0022E02C053
S1131900F595E7950A94E2F7E0FD57C02091EF00C2
S1131910322F3F70393018F4EB01388303C038E0BC
S1131920FB01308324FD15C02091F3000091F200E7
S113193002950695077010E0F8E02F9F000D111D29
S1131940112420E030E0EC01088319832A833B83CF
S11319501AC0E091F3003E2FE091F2002E2FE091A7
S1131960F1001E2FE091F0000E2F689412F83695C6
S11319702795179507951694D1F73068FC010083D5
S1131980118322833383EB018881882369F0242F18
S1131990E42FF52FAAEFB0E08C9181939E2F921B38
S11319A0EB0188819817C0F380E88093EF00809161
S11319B0DC0080958E70816007C02F5F3F4F24301C
S11319C0310509F095CF80E0DF91CF911F910F9100
S11319D00895CF92DF92EF92FF920F931F93CF93CC
S11319E0DF93CDB7DEB728970FB6F894DEBF0FBEEE
S11319F0CDBFC982DA82EB82FC820D831E832F83E2
S1131A0038872091DC0024FD04C020E42093ED00FD
S1131A1007C02091DC0025FD42C020E52093ED00A5
S1131A20442361F09E012F5F3F4FF901AAEFB0E01C
S1131A3051915C935E2F521B5417D0F399237CF081
S1131A401092F000660F771F62957295707F76276B
S1131A50607F76276093F2007093F3001BC0DC0173
S1131A60CB01880F991FAA1FBB1F880F991FAA1F9C
S1131A70BB1F880F991FAA1FBB1F8093F000909370
S1131A80F100A093F2008B2F9927AA27BB278093FC
S1131A90F300405F40644093EF0081E001C080E0C8
S1131AA028960FB6F894DEBF0FBECDBFDF91CF915D
S1131AB01F910F91FF90EF90DF90CF900895CF92F8
S1131AC0DF92EF92FF920F931F93CF93DF93CDB7E3
S1131AD0DEB72D970FB6F894DEBF0FBECDBF409191
S1131AE049074423D1F18091DC0080738033A9F14C
S1131AF08091F40690E050E0873010F48F5F01C0CD
S1131B00892F9A01082E02C0359527950A94E2F789
S1131B1020FFF2CF8093F4060E941C1781E090E02E
S1131B200090F40602C0880F991F0A94E2F780958A
S1131B30909149078923809349070FC0C980DA80AF
S1131B40EB80FC800D811E812F81388549855A8563
S1131B506B857C858D850E94D216AE014A5F5F4FEE
S1131B60BE016B5F7F4FCE0101960E94680C81110C
S1131B70E5CF2D960FB6F894DEBF0FBECDBFDF9133
S1131B80CF911F910F91FF90EF90DF90CF90089528
S1131B9090E0FC01E556F109EF36F10588F5E25CC9
S1131BA0FF4F0C94A518509A0895389A0895529AA4
S1131BB00895399A0895269A0895539A0895209A73
S1131BC00895219A0895279A0895549A08956A9A2F
S1131BD00895559A0895569A0895229A08953C9A1C
S1131BE008953D9A08953E9A0895259A08953F9A36
S1131BF00895249A0895239A0895519A0895579A16
S1131C00089583E70E94C80D5F9A08958091F906AC
S1131C109091FA06892BC9F18091F7069091F80604
S1131C20892BE1F080916D07882379F15F9A1092F6
S1131C306C0780915A0790915B07969587959695C6
S1131C4087959093F6068093F5061092F806109205
S1131C50F7061092FA061092F906089580916C071F
S1131C60811113C08CB5837F8CBD10924B071092E9
S1131C704A0782E080936A075F980E94890E81E098
S1131C8090E09093F8068093F706089594B19268D3
S1131C9094B9539A803109F138F4843091F0883042
S1131CA0B1F0823089F507C0803419F1803839F1F8
S1131CB0803251F518C08DB581608DBD80E58CBD35
S1131CC023C08DB58E7F8DBD80E58CBD1DC08DB5C7
S1131CD081608DBD81E58CBD17C08DB58E7F8DBDB6
S1131CE081E58CBD11C08DB581608DBD82E58CBD53
S1131CF00BC08DB58E7F8DBD82E58CBD05C08DB5C5
S1131D008E7F8DBD83E58CBD8CB580688CBD789449
S1131D10089580916C07811113C010926D0781E0C2
S1131D2080936C0780936B0780916A07813118F068
S1131D3080E180936A0780914A078EBD81E008950F
S1131D4080E008950DB407FE1DC0EBE6F7E0A08126
S1131D50B0E08EB5A75BB84F50968C93908180917C
S1131D606A07981758F480818F5F8083E081F0E0E0
S1131D70E75BF84F80818EBD80E0089581E0809319
S1131D806D07089580E008951F920F920FB60F9289
S1131D9011248F939F93AF93BF93EF93FF93EBE63D
S1131DA0F7E0A081B0E08EB5A75BB84F50968C9356
S1131DB0908180916A07981750F480818F5F8083A7
S1131DC0E081F0E0E75BF84F80818EBD03C081E0E5
S1131DD080936D07FF91EF91BF91AF919F918F9188
S1131DE00F900FBE0F901F901895E0E8F0E08081EF
S1131DF082608083E1E8F0E080818A61808380ED05
S1131E0097E09093870080938600EFE6F0E080816E
S1131E1081608083789408951F920F920FB60F9279
S1131E2011248F939F93AF93BF938091FC0690915D
S1131E30FD06A091FE06B091FF060196A11DB11DFD
S1131E408093FC069093FD06A093FE06B093FF06D4
S1131E5081E08093FB06BF91AF919F918F910F908A
S1131E600FBE0F901F9018958091FB06813009F0EA
S1131E704DC01092FB060E94731180910301909152
S1131E800401883E23E0920730F401969093040104
S1131E908093030108C00E94D01681E090E09093E3
S1131EA004018093030180910201853020F48F5F47
S1131EB080930201089581E0809302010E947411CD
S1131EC08091030180FD22C00E947511809101015F
S1131ED0853020F48F5F80930101089581E0809321
S1131EE001010E9476118091030181FD0FC00E94BF
S1131EF01E1380910001853020F48F5F80930001D0
S1131F00089581E0809300010E941F1308950E94A8
S1131F10F50E0E9444100E94A20E0E9406010E9427
S1131F205F0D06C00E945F0D0E94A20E0E94060172
S1131F300E947F108823B1F30E94060E0E94A20E15
S1131F400E9406010E945F0D0E94340F0E94D11668
S1131F50F3CFCF93DF939B01AC01C8ECD0E0888131
S1131F608068888360E271EA87E090E00E946418E8
S1131F70215031093093CE002093CD0088818F60A9
S1131F808883539A5498DF91CF9108959091C90012
S1131F9094FD04C08093D20081E0089580E0089508
S1131FA0CF93DF93EC018881882349F088810E94D4
S1131FB0C60F8823D9F3219688818111F7CFDF9149
S1131FC0CF910895FC019091C900892F817090FFF1
S1131FD004C08091D200808381E008951F920F9203
S1131FE00FB60F9211242F938F939F93EF93FF9328
S1131FF08091C90080FF19C0E0917007F0917107CA
S11320008091D2008083809170079091710701962E
S113201090937107809370078458974031F484E754
S113202097E090937107809370078091C90081FFB6
S113203021C0E0917207F09173078081882369F0D1
S113204080818093D20080917207909173070196EA
S113205090937307809372070DC081E0809305010C
S1132060EAECF0E080818D7F8083E9ECF0E0808110
S113207082608083FF91EF919F918F912F910F90B8
S11320800FBE0F901F9018950E94010E8CE60E94BF
S1132090C80D419A83ED0E94C80D729860E072ECFD
S11320A081E090E00E94A90F84EF91E00E94C70BA9
S11320B00E94CC0088E290E00E94E10080E10E944E
S11320C0460E8CB58C608CBD60E174EA88EA91E6BA
S11320D00E94260481E080930C0780914907816067
S11320E0809349078AE293E00E94D00F8CE293E048
S11320F00E94D00F8FE493E00E94D00F0895CF92F6
S1132100DF92EF92FF920F931F93CF9380910C076E
S1132110813009F0CAC080910B07813009F0C5C035
S113212080910A078111C1C0809109078093240717
S1132130C1E00F2EF6E5CF2EF9E0DF2EF02D0F2EA5
S1132140F3E2EF2EFAE0FF2EF02D88E693E00E94F2
S1132150D00F10E31C0F812F0E94C60F8823D9F3E0
S11321608BEC97E00E94D2048130A9F481E793E0DC
S11321700E94D00F8BE893E00E94D00FE9ECF7E0C7
S11321808081909149079160909349078F7E808365
S113219010920B0775C001E519E02FE439E04DE416
S11321A059E06BE479E08BEC97E00E948A0983E0C4
S11321B00E94A206F601108211821282138280917B
S11321C04D0990914E09893A9146A8F485EA93E025
S11321D00E94D00F8BE893E00E94D00FE9ECF7E067
S11321E08081909149079160909349078B7F808308
S11321F010920B0745C080914B0990914C09803196
S1132200944AA8F08EEB93E00E94D00F8BE893E001
S11322100E94D00FE9ECF7E080819091490791602A
S1132220909349078D7F808310920B0729C0F70193
S113223080819181A281B38180379741A105B10545
S1132240ACF086ED93E00E94D00F8BE893E00E94FF
S1132250D00FE9ECF7E08081909149079160909369
S11322604907877F808310920B070AC0C53021F489
S113227081E080930A0704C0CF5FC63009F065CFC0
S113228080910A07813001F582EF93E00E94D00F1C
S113229082E194E00E94D00F10920B0780914907CD
S11322A081608093490780E016C080910D078130DA
S11322B069F480910A07813059F480910B078111E8
S11322C009C0729A81E007C080E005C080E003C0C5
S11322D080E001C080E0CF911F910F91FF90EF90BB
S11322E0DF90CF9008950895089508950F931F9354
S11322F0109200078091C90786FF08C091E090936F
S113230000078F7B8093C9070E94E2028BEC97E061
S11323100E94D204882349F080910007811105C0EE
S1132320E9ECF7E08081806180838091C90786FDB4
S113233009C090910007913029F480648093C90703
S11323400E94E20201E519E02FE439E04DE459E08E
S11323506BE479E08BEC97E00E948A0980914D0947
S113236090914E09893A914628F4E9ECF7E080818E
S11323708460808380914B0990914C098031944A08
S113238028F0E9ECF7E08081826080838DE29AE0B6
S11323900E94E20F8823A1F080912D0A803319F066
S11323A0813349F00DC0E9ECF7E080818F7B8083B5
S11323B00E94E20205C0E9ECF7E08081806480833A
S11323C08091C90786FD33C180E380930601409163
S11323D09F095091A00960914D0970914E092BE716
S11323E039E08BEC97E00E94210B809301078091E8
S11323F0C90786FF14C040919F095091A0096091BC
S11324004D0970914E092BE539E08BEC97E00E9461
S1132410810A0E94E2028091C90786FD12C00E94CF
S1132420E20210922B0A90912407992351F0EBE5D4
S1132430F9E080E0119211928F5F8917D8F38093AD
S11324402B0A10925A0910925609109257091092A9
S113245058091092590983E00E94A2068091230A28
S11324609091240AA091250AB091260A80379741B9
S1132470A105B1052CF0E9ECF7E080818860808348
S113248080910D07882309F4C4C080910B07811142
S1132490C3C0809107078111ABC0809106078111E9
S11324A008C08091C90780FF1AC081E080930607A5
S11324B016C09091C90790FD04C08150809306070F
S11324C00EC08F5F843018F48093060708C0109202
S11324D0060781E08093070790629093C907809173
S11324E00507811108C08091C90781FF1AC081E0E6
S11324F08093050716C09091C90791FD04C08150CF
S1132500809305070EC08F5F843018F4809305070D
S113251008C01092050781E08093070790629093AA
S1132520C90780910407811108C08091C90782FFFF
S11325301AC081E08093040716C09091C90792FDE8
S113254004C08150809304070EC08F5F843018F458
S11325508093040708C01092040781E08093070762
S113256090629093C90780910307811108C08091FC
S1132570C90783FF1AC081E08093030716C09091B6
S1132580C90793FD04C08150809303070EC08F5F79
S1132590843018F48093030708C01092030781E085
S11325A08093070790629093C90780910207811175
S11325B008C08091C90784FF2FC081E0809302077F
S11325C02BC09091C90794FD04C0815080930207E9
S11325D023C08F5F8A3018F4809302071DC01092C5
S11325E0020781E08093070790629093C90714C0A3
S11325F08F5F80930707883278F0729810920707EC
S113260081E08093C607E9ECF7E080818F7D8083C9
S113261003C0729810920707809149078C618093D8
S11326204907E9ECF7E08081807E808304C081E380
S113263080930601CCCE1F910F9108950895CF92F7
S1132640DF92EF92FF920F931F93CF93DF938AE26F
S113265093E00E94D00F8091C90784FD05C0982F94
S1132660937011F48C70E1F0809107074AE06FE3F6
S113267077E090E00E94DA1985E394E00E94D00F9D
S11326808FE397E00E94D00F84E795E00E94D00F7B
S11326908091C90784FF04C084E494E00E94D00FB1
S11326A080914D0990914E09893A914620F48EE526
S11326B094E00E94D00F80914B0990914C09803195
S11326C0944A20F087E794E00E94D00F8091230A77
S11326D09091240AA091250AB091260A8037974147
S11326E0A105B10524F08FE894E00E94D00F8091F9
S11326F0560990915709A0915809B0915909803809
S1132700914DA04FB84020F08BEA94E00E94D00F86
S113271083EC94E00E94D00F10922B0A809124073E
S1132720882309F426C3CFE3D7E081ED94E00E9427
S1132730D00F80912B0A90E04AE0BE0101960E94DE
S1132740DA1988810E94C60F8823D9F388ED94E0B2
S11327500E94D00F80912B0A8F5F80932B0A909157
S11327602407891710F310922B0A03C381E796E01C
S11327700E94D00F8BED94E00E94D00F80912B0A21
S113278090E04AE0BE0101960E94DA1988810E9415
S1132790C60F8823D9F3F70180810E94C60F8823CE
S11327A0D1F383EE94E00E94D00F10922C0A809112
S11327B02407882309F47FC020E030E040912B0AED
S11327C0842F90E0F901EE0FFF1FE353F94FB60198
S11327D002C0660F771F4A95E2F7AB010190F081C2
S11327E0E02D4E235F23452B09F457C0F901EE0F6A
S11327F0FF1F2E0F3F1FF901EE0FFF1FEE0FFF1FEC
S11328008E0F9F1FFC01EE0FFF1FE553F84F8081D1
S11328109181803177E29707B8F04AE0602F712FF9
S11328200E94DA1988810E94C60F8823D9F38CE2AA
S11328300E94C60F8823D9F3C7010E94D00F87EEE8
S113284094E00E94D00F2DC08BEE94E00E94D00F34
S113285080912C0A90E020912B0AFC01EE0FFF1FBF
S11328608E0F9F1FFC01EE0FFF1FEE0FFF1FE20FE5
S1132870F11DEE0FFF1FE553F84F4AE0602F712F53
S1132880808191810E94DA19802F912F0E94D00FAC
S113289087EE94E00E94D00F04C08EEE94E00E9474
S11328A0D00F20912C0A2F5F20932C0A80912407AB
S11328B0281708F482CF80912B0A8F5F80932B0A0C
S11328C08C3008F453CF83E795E00E94D00F4AE0A0
S11328D06FE377E080914D0990914E090E94DA19D7
S11328E08BEF94E00E94D00FCFE3D7E088810E9461
S11328F0C60F8823D9F38CE20E94C60F8823D9F32C
S113290080E497E00E94D00F8CE095E00E94D00F05
S11329104AE06FE377E080914F09909150090E945B
S1132920DA198FE095E00E94D00FCFE3D7E08881D9
S11329300E94C60F8823D9F38CE20E94C60F882315
S1132940D9F380E497E00E94D00F8CE095E00E94D8
S1132950D00F4AE06FE377E080914B0990914C09E6
S11329600E94DA1982E295E00E94D00FCFE3D7E00B
S113297088810E94C60F8823D9F38CE20E94C60F77
S11329808823D9F380E497E00E94D00F85E395E093
S11329900E94D00F10922B0A80912407882309F4F7
S11329A071C0CFE3D7E00F2EF4E6CF2ED12CE12C6B
S11329B0F12CF02D8AE395E00E94D00F80912B0A30
S11329C090E04AE0BE0101960E94DA1988810E94D3
S11329D0C60F8823D9F388ED94E00E94D00FE091CC
S11329E02B0AF0E0EE0FFF1FEE0FFF1FED51F64F25
S11329F06081718182819381A70196010E9486186A
S1132A00DA01C9013093C8072093C7074AE0BE0121
S1132A100E94AD19CE010E94D00F8CE20E94C60F15
S1132A208823D9F3E0912B0AF0E0EE0FFF1FEE0F9D
S1132A30FF1FED51F64F6081718182819381A7015F
S1132A4096010E948618DC01CB019093C8078093FD
S1132A50C7074AE0BE010E94AD19CE010E94D00F03
S1132A6089E495E00E94D00F1092C8071092C7071E
S1132A7080912B0A8F5F80932B0A909124078917EA
S1132A8008F498CF80910807813029F48CE495E00C
S1132A900E94D00F06C0811104C080E695E00E9418
S1132AA0D00F6091560970915709809158099091FF
S1132AB059096115E1EE7E07E5EF8E07E5E09E0713
S1132AC008F442C020E432E44FE050E00E9464186D
S1132AD0DA01C9012093270A3093280A4093290A6E
S1132AE050932A0A4AE06FE377E00E94DA198FE3F1
S1132AF097E00E94D00F8CE20E94C60F8823D9F37E
S1132B00609156097091570980915809909159091B
S1132B1020E432E44FE050E00E9464186093270AF6
S1132B207093280A8093290A90932A0A2AE04FE393
S1132B3057E00E94B8198FE397E00E94D00F81E715
S1132B4095E00E94D00FCAC06038F6E97F07F8E923
S1132B508F07910508F442C020E432E44FE050E0CE
S1132B600E946418DA01C9012093270A3093280AC5
S1132B704093290A50932A0A4AE06FE377E00E94BF
S1132B80DA198FE397E00E94D00F8CE20E94C60FFF
S1132B908823D9F360915609709157098091580997
S1132BA09091590920E432E44FE050E00E94641807
S1132BB06093270A7093280A8093290A90932A0A1B
S1132BC02AE04FE357E00E94B8198FE397E00E9490
S1132BD0D00F88E795E00E94D00F80C0603422E4D3
S1132BE072072FE08207910508F442C020E432E422
S1132BF04FE050E00E946418DA01C9012093270ACB
S1132C003093280A4093290A50932A0A4AE06FE332
S1132C1077E00E94DA198FE397E00E94D00F8CE2EC
S1132C200E94C60F8823D9F3609156097091570901
S1132C30809158099091590920E432E44FE050E022
S1132C400E9464186093270A7093280A8093290AC3
S1132C5090932A0A2AE04FE357E00E94B8198FE3C1
S1132C6097E00E94D00F88E795E00E94D00F36C00D
S1132C70603A76488140910540F180E30E94C60F96
S1132C808823D9F38CE20E94C60F8823D9F360917C
S1132C905609709157098091580990915909609388
S1132CA0270A7093280A8093290A90932A0A2AE013
S1132CB04FE357E00E94B8198FE397E00E94D00FCA
S1132CC088E795E00E94D00F09C080E30E94C60FF8
S1132CD08823D9F388E795E00E94D00F80915A09A0
S1132CE080FF05C08EE795E00E94D00F1BC081FFD6
S1132CF005C088EB95E00E94D00F14C082FF05C088
S1132D0083EE95E00E94D00F0DC083FF05C08DE1D6
S1132D1096E00E94D00F06C084FF04C089E496E0C8
S1132D200E94D00F85E796E00E94D00F80910107A2
S1132D304AE06FE377E090E00E94DA198FE397E0CE
S1132D400E94D00F80E996E00E94D00F89E996E0B6
S1132D500E94D00F809106010E94C60F8823D1F3F0
S1132D6080EB96E00E94D00F8FEB96E00E94D00F8C
S1132D700EC0CFE3D7E00C2F1D2F0F2EF0E4EF2E63
S1132D80F7E0FF2EF02DCC24C394D12CEFCCDF91AF
S1132D90CF911F910F91FF90EF90DF90CF90089506
S1132DA008950895CF92DF92EF92FF920F931F93AD
S1132DB0CF93DF93CDB7DEB72D970FB6F894DEBF70
S1132DC00FBECDBFC982DA82EB82FC8289819A81EF
S1132DD0AB81BC8181309105A105B10531F081152C
S1132DE09140A105B10599F018C010930D07213049
S1132DF031F4E9ECF7E080818064808305C0E9EC7C
S1132E00F7E080818F7B80833093080706C010939E
S1132E100B0720930907309308072D960FB6F894F3
S1132E20DEBF0FBECDBFDF91CF911F910F91FF90F9
S1132E30EF90DF90CF9008955F926F927F928F9280
S1132E409F92AF92BF92CF92DF92EF92FF920F9335
S1132E501F93CF93DF93CDB7DEB72D970FB6F894BA
S1132E60DEBF0FBECDBF8230C9F018F4882339F11C
S1132E7015C1833059F0843009F010C1912C0F2E04
S1132E80F9ECAF2EF7E0BF2EF02D04C1912C0F2EDC
S1132E90F9ECAF2EF7E0BF2EF02DD1C080912407BE
S1132EA0882309F4FBC00F2EFFE07F2EF02D612C48
S1132EB00F2EF9EC8F2EF7E09F2EF02D86C0809117
S1132EC0C9078E8380910A078130E1F480910B0752
S1132ED0811135C080910C078F83188681E0898722
S1132EE0CE80DF80E884F9840A851B852C853D85A6
S1132EF044E062E070E080E090E00E94E90C882306
S1132F0079F3CCC081111BC080910B078130B9F4D7
S1132F1080910C078F8381E08887CE80DF80E884EE
S1132F20F9840A851B852C853D8543E062E070E0C9
S1132F3080E090E00E94E90C882379F3AFC080918F
S1132F400C078F83CE80DF80E884F9840A851B8593
S1132F502C853D8542E062E070E080E090E00E94D4
S1132F60E90C882379F39AC0F501908181819E83CD
S1132F708F839281838198878987948185819A87B9
S1132F808B875C86F40180818D87CE80DF80E88426
S1132F90F9840A851B852C853D8548E064E070E052
S1132FA080E090E00E94E90C882379F3F6E0AF0E0C
S1132FB0B11C23E0520E5710D7CF63943CE0730E3C
S1132FC080912407681608F069C0862D90E05C01A2
S1132FD0AA0CBB1C8A0D9B1D880F991F880F991F73
S1132FE0880F991FFC01E553F84F5F010F2EF4EF92
S1132FF05F2EF02D570CB8CFE92DF0E0EE0FFF1F38
S1133000E55AF64F908181819E838F8380910107D9
S1133010888793949986F50180818A87CE80DF80A2
S1133020E884F9840A851B852C853D8545E065E0A7
S113303070E080E090E00E94E90C882379F38091AD
S113304024079816C8F22AC0E92DF0E0EE0FFF1FFE
S1133050EE0FFF1FED51F64F308121819281838164
S11330603E832F839887898793949A86F50180817C
S11330708B87CE80DF80E884F9840A851B852C85C4
S11330803D8546E066E070E080E090E00E94E90C57
S1133090882379F3809124079816B0F22D960FB601
S11330A0F894DEBF0FBECDBFDF91CF911F910F917A
S11330B0FF90EF90DF90CF90BF90AF909F908F9054
S11330C07F906F905F900895A1E21A2EAA1BBB1BFC
S11330D0FD010DC0AA1FBB1FEE1FFF1FA217B307E0
S11330E0E407F50720F0A21BB30BE40BF50B661FF6
S11330F0771F881F991F1A9469F7609570958095BA
S113310090959B01AC01BD01CF010895052E97FB5D
S11331101EF400940E949D1857FD07D00E94641865
S113312007FC03D04EF40C949D18509540953095AF
S113313021953F4F4F4F5F4F08959095809570951F
S113314061957F4F8F4F9F4F0895EE0FFF1F05909E
S1133150F491E02D0994689401C0E894F92FF12BBF
S113316012F00C94DF18A0E0B0E0E9EBF8E10C9465
S11331705119092E059422F40E943B19112392F44B
S1133180F0E80F26FFEFE094F09400951095B094CA
S1133190C094D094A194BF0ACF0ADF0AEF0AFF0AB1
S11331A00F0B1F0B0E94EA1807FC0E943B19CDB7B6
S11331B0DEB7ECE00C946D19689401C0E8948F922A
S11331C09F92CF93DF930E94EA18DF91CF919F9053
S11331D08F90089588249924F401E401B0E49F9326
S11331E0AA279A158B049C04ED05FE05CF05D0078C
S11331F0A10798F4AD2FDC2FCF2FFE2FE92D982CAB
S1133200892E982F872F762F652F542F432F322FF7
S11332102227B85031F7BF9127C01B2EBF91BB277F
S1133220220F331F441F551F661F771F881F991FC6
S1133230881C991CEE1FFF1FCC1FDD1FAA1FBB1F7C
S11332408A149B04EC05FD05CE05DF05A007B10734
S113325048F08A189B08EC09FD09CE09DF09A00B88
S1133260B10B21601A94E1F62EF49401AF01BE0172
S1133270CD01000C089560957095809590953095DA
S11332804095509521953F4F4F4F5F4F6F4F7F4F64
S11332908F4F9F4F08952F923F924F925F926F925C
S11332A07F928F929F92AF92BF92CF92DF92EF92D2
S11332B0FF920F931F93CF93DF93CDB7DEB7CA1B53
S11332C0DB0B0FB6F894DEBF0FBECDBF09942A887E
S11332D0398848885F846E847D848C849B84AA8426
S11332E0B984C884DF80EE80FD800C811B81AA81B3
S11332F0B981CE0FD11D0FB6F894DEBF0FBECDBF7E
S1133300ED0108950F93083090F0982F872F762FB2
S1133310652F542F432F322F22270850F4CF220F2A
S1133320331F441F551F661F771F881F991F0A9557
S1133330B2F70F9108952A0D3B1D4C1D5D1D6E1DA6
S11333407F1D801F911F08952A193B094C095D09AF
S11333506E097F09800B910B0895BB274A3031F425
S1133360992322F4BDE2909581959F4F0C94DB192B
S1133370BB27FA01A62F6217710581059105330B4E
S113338030FB66F0AA27660F771F881F991FAA1FB4
S1133390A21710F0A21B63953850A9F7A05DAA33B9
S11333A008F0A95DA19336F7B111B1931082CA0157
S11333B00C94F419BB27FB015527AA27880F991FE2
S11333C0AA1FA41710F0A41B83955051B9F7A05D50
S11333D0AA3308F0A95DA193009779F7B111B193CD
S11333E01192CB010C94F419DC01FC01672F71914B
S11333F07723E1F7329704C07C916D9370836291D7
S10F3400AE17BF07C8F30895F894FFCF7F
S113340C01010101000130463200000099C5ABCE28
S113341C320BCFD8561D6416FDD307F49E31AC3A4B
S113342C35FFC82C51E963E2FA2797AD0E683C636B
S113343CA5A65875C1B0F3BB6A7E9059099C3B97FD
S113344CA2525F81C644F44F6D8A2E5BB79E85955C
S113345C1C50E18378464A4DD38829AFB06A826107
S113346C1BA4E6777FB24DB9D47CB9F6203312385D
S113347C8BFD762EEFEBDDE04425BE0227C715CC81
S113348C8C0971DAE81FDA1443D1C5F35C366E3D4E
S113349CF7F80A2B93EEA1E53820C2075BC269C981
S11334ACF00C0DDF941AA6113FD4525ECB9BF9900D
S11334BC60559D8604433648AF8D55AACC6FFE6487
S11334CC67A19A7203B731BCA879EBA8726D4066F8
S11334DCD9A32470BDB58FBE167BEC5C759947924D
S11334ECDE572384BA41884A118F7C05E5C0D7CBBB
S11334FC4E0EB3DD2A18181381D67BF1E234D03F7B
S113350C49FAB4292DEC1FE7862213A28A67B86CFA
S113351C21A9DC7A45BF77B4EE7114568D93BF980C
S113352C265DDB8E424B7040E985840F1DCA2FC18A
S113353CB6044BD7D212E01979DC83FB1A3E28353A
S113354CB1F04C23D5E6E7ED7E283DF9A43C963743
S113355C0FF2F2216BE459EFC02A3A0DA3C891C3C0
S113356C0806F5D56C105E1BC7DEAA543391019A7C
S113357C985F658CFC49CE425787ADA03465066EC6
S113358C9FAB6278FBBDC9B65073D6514F947D9FE7
S113359CE45A1989804CB2472B82D1A548607A6BC6
S11335ACE3AE1E7D87B8B5B32C7641FCD839EA322C
S11335BC73F78E2417E125EABC2F4608DFCDEDC640
S11335CC740389D01015221EBBDBF80A61CF53C4D7
S11335DCCA0137D2AE179C1C05D9FFFE663B54308A
S11335ECCDF53026A9E39BE8022D6FA7F662C469DA
S11335FC5DACA07F39BA0BB192746853F196C39D3C
S113360C5A58A78B3E4E0C459580FF01FF00FF01D5
S113361CFF00FF01FF00FF01FF00FF01FF00FF019E
S113362CFF00FF01FF00FF01FF000C004156522D6B
S113363C496E697469616C6973696572756E67202A
S113364C6572666F6C677265696368210D0A005751
S113365C617274652061756620546573742D4672AD
S113366C65696761626521000D0A205465737420D5
S113367C000D0A204665686C65723A204B6F6D6DBF
S113368C756E696B6174696F6E21000D0A20546547
S113369C73742065726E65757420737461727465CD
S11336AC6E210D0A000D0A204665686C65723A207D
S11336BC556E646572766F6C7461676521000D0AD2
S11336CC204665686C65723A204F766572766F6C2D
S11336DC7461676521000D0A204665686C65723A51
S11336EC204F76657274656D706572617475726560
S11336FC21000D0A0A20546573742D447572636895
S113370C6C617566206572666F6C67726569636857
S113371C21000D0A2057617274652061756620655D
S113372C6E646775656C7469676520467265696754
S113373C616265210020532D426F782054696D65B8
S113374C723A2000204665686C65723A204B6F6DA6
S113375C6D756E696B6174696F6E210D0A0020467C
S113376C65686C65723A20556E646572766F6C741C
S113377C616765210D0A00204665686C65723A2004
S113378C4F766572766F6C74616765210D0A002043
S113379C4665686C65723A204F76657274656D7017
S11337AC65726174757265210D0A00204665686C3A
S11337BC65723A204F76657243757272656E742128
S11337CC0D0A002020202020202020202020200949
S11337DC00536C61766520003A0900205A656C6CC4
S11337EC6520003A20090020560900302C004B6556
S11337FC696E65205A656C6C650900206D696E2EC6
S113380C20566F6C746167653A0920002056000DD0
S113381C0A206176672E20566F6C746167653A09CD
S113382C20000D0A206D61782E20566F6C74616730
S113383C653A09200020560D0A000D0A2054656DC6
S113384C7065726174757220002043000D0A0A20A1
S113385C456E746C6164652D5374726F6D3A2000FF
S113386C0D0A0A204C6164652D5374726F6D3A20F5
S113387C002041200D0A0A002041200D0A0020538B
S113388C74726F6D20626566696E64657420736909
S113389C636820696E206B72697469736368656D03
S11338AC20426572656963683A202D3241202E2EC0
S11338BC2E203041200D0A00204665686C65723A52
S11338CC205374726F6D20666C6965737374206910
S11338DC6E2064656E20537065696368657221207F
S11338EC0D0A00205374726F6D20626566696E64F4
S11338FC6574207369636820696E206B72697469DE
S113390C736368656D20426572656963683A20303B
S113391C41202E2E2E202B3241200D0A00204665EC
S113392C686C65723A205374726F6D20666C6965AD
S113393C737374206175732064656D2053706569AD
S113394C6368657221200D0A00204665686C6572F7
S113395C3A20426574726965627362657265696363
S113396C6820756562657273636872697474656ED8
S113397C21200D0A000D0A2042616C616E63696E90
S113398C6720656D70666F686C656E20616E2000D3
S113399C205A656C6C656E2E000D0A2042616C61B8
S11339AC6E63696E672D4D6F64653A20202020008C
S11339BC0D0A203C313E2043686172676520000D7E
S11339CC0A203C303E2044726976652000FF01FFDA
S11339DC00FF01FF00FF01FF00FF01FF00FF01FFDB
S11139EC00FF01FF00FF01FF00FF01FF0000CC
S9030000FC
